:1073A9002566090025640900504B472C25644000D7
:1073B90050542C252E33662C252E33662C252E333E
:1073C900662C252E33664000422C25642C2564400A
:0A73D90000432C25642C25644000BD
:1072020048110A608040C0A02000E0481038010206
:067212000304070005065D
:105F0500EFFB3395E04B6003025FAA759850438E13
:105F150040538EFE53890FEDFB3395E0FAEB640792
:105F25004A7006758BD0758DFFEDFB3395E0FAEB66
:105F350064064A7006758BA0758DFFEDFB3395E001
:105F4500FAEB64054A7006758B70758DFFEDFB33B2
:105F550095E0FAEB64044A7006758BE0758DFEEDED
:105F6500FB3395E0FAEB64034A7006758BC0758DBB
:105F7500FDEDFB3395E0FAEB64024A7006758B8004
:105F8500758DFBEDFB3395E0FAEB64014A7005F581
:105F95008B758DF7EDFB3395E04B7005F58B758DA6
:105FA500EEC2ABD28EEF3395E0FEEF64014E600397
:105FB500026049759A50EDFF3395E0FEEF64074E98
:105FC500700675D7D075D6FFEDFF3395E0FEEF640B
:105FD500064E700675D7A075D6FFEDFF3395E0FE2A
:105FE500EF64054E700675D77075D6FFEDFF3395D6
:105FF500E0FEEF64044E700675D7E075D6FEEDFF42
:106005003395E0FEEF64034E700675D7C075D6FD77
:10601500EDFF3395E0FEEF64024E700675D780758F
:10602500D6FBEDFF3395E0FEEF64014E7005F5D725
:1060350075D6F7AF05EF3395E04F7005F5D775D6F3
:05604500EE438E142261
:10736F00EFFB3395E04B7012EDFB3395E0FAEB64D6
:10737F00014A7004D2AC8002C2ACEF3395E0FEEF4D
:10738F0064014E7014AF05EF3395E0FEEF64014ECC
:0A739F00700443AF012253AFFE2239
:10618000900A86EFF0A905AF03AD077F01125F0506
:10619000901040E5E8F0900A86E0FF3395E0FEEFCE
:1061A00064014E706043BA01901040E0541FF0E467
:1061B000901109F0901109E0FF3395E0FEC3EF94D0
:1061C00008EE64809480503DE03395E0FE740A2F21
:1061D000F58274113EF583E0B50122901040E0FF96
:1061E000901109E0FD3395E0FC740A2DF5827411DD
:1061F0003CF583E0FEEF4E901040F08008901109CE
:10620000E004F080AF900A86E0FF3395E0FEEF6493
:10621000034E706053BAFE901040E054F8F0E490E2
:106220001109F0901109E0FF3395E0FEC3EF9408E7
:10623000EE64809480503DE03395E0FE74382FF595
:106240008274103EF583E0B50122901040E0FF908B
:106250001109E0FD3395E0FC74382DF58274103C93
:10626000F583E0FEEF4E901040F08008901109E0B9
:1062700004F080AF901040E0F5E87F017E001274DA
:026280004A22B0
:106FE8009009AEEBF0A3EAF0A3E9F0EFFD3395E0EA
:106FF8004D702B9009AEE0FBA3E0FAA3E0F9124232
:10700800B1601B9009AEE0A3E475F001124353A9E7
:10701800F0FA1242B1F5993099FDC29980D5EF3353
:1070280095E0FEEF64014E70319009AEE0FBA3E0FD
:10703800FAA3E0F91242B160219009AEE0A3E47529
:10704800F001124353A9F0FA1242B1F59BE59A54A4
:0B70580002640270F8539AFD80CF2202
:0E6AFB0090097CEFF0A3EBF0A3EAF0A3E9F022
:106B0900E4900982F0A3F0900982F0A3F090098043
:106B1900E0FEA3E0FFC3900983E09F900982E09E15
:106B29004003026BAC7B017A117913C003C002C028
:106B3900019009B174FFF0A37473F0A374A9F090E4
:106B49000982E0FEA3E07802C333CE33CED8F9FF41
:106B590090097DE0FBA3E0FAA3E0F98F828E83120E
:106B690044469009B41244C4D001D002D00312465D
:106B79006C9009847401F0A37411F0A37413F0905C
:106B8900097CE0FF900984E0FBA3E0FAA3E0F91295
:106B99006FE8900983E004F07006900982E004F040
:036BA900026B1666
:016BAC0022C6
:0E6BAD00900989EFF0A3EBF0A3EAF0A3E9F062
:106BBB00E490098FF0A3F090098FF0A3F090098D6A
:106BCB00E0FEA3E0FFC3900990E09F90098FE09E49
:106BDB004003026C5E7B017A117913C003C002C0C3
:106BEB00019009B174FFF0A37473F0A374ADF0902E
:106BFB000990E025E0FF90098FE033FE90098AE0D1
:106C0B00FBA3E0FAA3E0F98F828E83124394FF90EB
:106C1B0009B4E5F0F0A3EFF0D001D002D003124697
:106C2B006C9009917401F0A37411F0A37413F0909C
:106C3B000989E0FF900991E0FBA3E0FAA3E0F912C8
:106C4B006FE8900990E004F0700690098FE004F073
:036C5B00026BC801
:016C5E002213
:0E698B00900984EFF0A3EBF0A3EAF0A3E9F08B
:10699900E490098CF0A3F0900988E0FFA3E0900946
:1069A9008CCFF0A3EFF090098AE0FEA3E0FFC3903B
:1069B900098DE09F90098CE09E4003026A457B01A6
:1069C9007A117913C003C002C0019009B174FFF0B4
:1069D900A37473F0A374ADF090098DE025E0FF90E6
:1069E900098CE033FE900985E0FBA3E0FAA3E0F906
:1069F9008F828E83124394FF9009B4E5F0F0A3EFE0
:106A0900F0D001D002D00312466C90098E7401F0C7
:106A1900A37411F0A37413F0900984E0FF90098E18
:106A2900E0FBA3E0FAA3E0F9126FE890098DE00416
:0C6A3900F0700690098CE004F00269AFD8
:016A4500222E
:0E706300900994EFF0A3EBF0A3EAF0A3E9F09C
:10707100E4FFFED3900999E09F900998E09E405764
:10708100900994E0FD3395E0FCED4C7017A3E0FB13
:10709100A3E0FAA3E0F98F828E831242CAF59930F8
:1070A10099FDC299900994E0FD3395E0FCED6401EE
:1070B1004C701DA3E0FBA3E0FAA3E0F98F828E835D
:1070C1001242CAF59BE59A5402640270F8539AFD84
:0770D1000FEF70010E809C1F
:0170D8002295
:086D0900900978EFF0A3EDF012
:106D11007E007F147D007B017A09797A12456D7BB3
:106D2100017A09797A9009B174FFF0A37473F0A321
:106D310074B1F0900979E0FE3395E09009B4F0A3C5
:106D4100CEF012466CE4901109F0901109E0FF3386
:106D510095E0FEC3EF9408EE648094805047E033E1
:106D610095E0FE74FD2FF58274113EF583E0FF90EE
:106D71000978E05F6027901109E0FF3395E0FE7428
:106D8100382FF58274103EF583E0FD7B077F0312F7
:106D910061807B017A09797A7F01126FE89011098C
:056DA100E004F080A5F4
:016DA60022CA
:106F6B00900978EFF0E4901109F0901109E0FF33EC
:106F7B0095E0FEC3EF9408EE64809480505EE0339E
:106F8B0095E0FE74FD2FF58274113EF583E0FF90C2
:106F9B000978E05F603E901109E0FF3395E0FE74E5
:106FAB00382FF58274103EF583E0FD7B077F0312CB
:106FBB006180539AFE759B25E59A5402640270F822
:106FCB00539AFDE59A30E0ED539AFEE59BB425E527
:0D6FDB00800280E1901109E004F0808E2218
:0E5BBA00900978EFF0A3EBF0A3EAF0A3E9F076
:105BC800E4901112F0901112E0FF3395E0FEC3EF5C
:105BD8009430EE648094805029E03395E0FEEF2500
:105BE800E0FFEE33FE900979E0FBA3E0FAA3E0F9C9
:105BF8008F828E83E4F5F01243EB901112E004F0EB
:105C080080C3E4901109F0901109E0FF3395E0FE9C
:105C1800C3EF9408EE64809480503EE03395E0FE34
:105C280074FD2FF58274113EF583E0FF900978E04A
:105C38005F601E901109E0FF3395E0FE74382FF580
:105C48008274103EF583E0FD7B077F03126180803C
:105C580008901109E004F080AEE4901112F0539A14
:105C6800FE759B02E59A5402640270F8539AFDE5AA
:105C78009A30E0ED539AFE901112E0FF3395E0FE62
:105C880074412FF58274103EF583E59BF090111254
:105C9800E004F0E59A30E0FB539AFE901112E0FF21
:105CA8003395E0FE74412FF58274103EF583E59B31
:105CB800F0901112E004F0E0FF3395E0FEEF64602D
:105CC8004E70D0800280CCE4901112F0901112E056
:105CD800FF3395E0FEC3EF9460EE64809480400348
:105CE800025D68E03395E0FE74412FF58274103E42
:105CF800F583E0FE3395E090097CF0A3CEF0E0F860
:105D0800E4F0E890097CF0901112E03395E0FE741D
:105D1800422FF58274103EF583E0FF90097DE02F55
:105D2800F090097CE03400F0E0FCA3E0FD90111253
:105D3800E0FFA2E713FF3395E0FEEF25E0FFEE3327
:105D4800FE900979E0FBA3E0FAA3E0F98F828E8345
:105D5800EC8DF01243EB901112E02402F0025CD4B7
:015D68002218
:10656300900978EFF0A3EBF0A3EAF0A3E9F07B0145
:106573007A107941C003C002C0019009B174FFF0E1
:10658300A37473F0A374B9F0900979E0FBA3E0FA64
:10659300A3E0F91244269009B41244C4900979E0A7
:1065A300FBA3E0FAA3E0F99000041244469009B873
:1065B3001244C4900979E0FBA3E0FAA3E0F9900048
:1065C300081244469009BC1244C4900979E0FBA325
:1065D300E0FAA3E0F990000C1244469009C012447B
:1065E300C4D001D002D00312466CE4901109F0909C
:1065F3001109E0FF3395E0FEC3EF9408EE64809445
:1066030080503CE03395E0FE74FD2FF58274113E1B
:10661300F583E0FF900978E05F601C901109E0FFCB
:106623003395E0FE74382FF58274103EF583E0FD58
:106633007B077F03126180901109E004F080B07B37
:0B664300017A1079417F01126FE822FC
:0E604A00900978EFF0A3EBF0A3EAF0A3E9F0E1
:106058007E007F327D007B017A09797C12456D9044
:10606800120FE0640170557B017A09797CC003C086
:1060780002C0019009B174FFF0A37473F0A374D146
:10608800F0900979E0FBA3E0FAA3E0F9124369FF75
:106098009009B4E5F0F0A3EFF0900979E0A3E0A34C
:1060A800E0900002124394FF9009B6E5F0F0A3EFE8
:1060B800F0D001D002D00312466C805B90120FE042
:1060C800640270537B017A09797CC003C002C00165
:1060D8009009B174FFF0A37473F0A374DAF0900917
:1060E80079E0FBA3E0FAA3E0F9124369FF9009B451
:1060F800E5F0F0A3EFF0900979E0A3E0A3E09000C9
:1061080002124394FF9009B6E5F0F0A3EFF0D00136
:10611800D002D00312466CE4901109F0901109E006
:10612800FF3395E0FEC3EF9408EE648094805047F7
:10613800E03395E0FE74FD2FF58274113EF583E09F
:10614800FF900978E05F6027901109E0FF3395E040
:10615800FE74382FF58274103EF583E0FD7B077FCF
:10616800031261807B017A09797C7F01126FE890C4
:076178001109E004F080A50D
:01617F0022FD
:106E4400544F393200746F393200534F5038007345
:106E54006F7038004344464E38006364666E3800F1
:106E6400332E335600352E30560035560042000D71
:106E74000A5472696D6D696E672050726F67726132
:106E84006D2056657273696F6E20697320420D0A16
:106E94000043000D0A5472696D6D696E672050726B
:106EA4006F6772616D2056657273696F6E206973C6
:106EB40020430D0A000D0A202000526F746174698A
:106EC4006F6E3A0056424520616E6420526F7461C1
:0B6ED40074696F6E3A000D0A0D0A0091
:0472180041120F010F
:10752400900984EBF0A3EAF0A3E9F07D07E4FF12ED
:107534005F05900984E0FBA3E0FAA3E0F9E4FF12FD
:037544006FE822CB
:10741900900978EBF0A3EAF0A3E9F0A3EDF07D077A
:10742900E4FF125F05900978E0FBA3E0FAA3E0F915
:10743900A3E0FF900980E4F0A3EFF0E4FF126AFBF8
:017449002220
:1073E300900984EBF0A3EAF0A3E9F0A3ECF0A3ED9A
:1073F300F07D07E4FF125F05900984E0FBA3E0FA48
:10740300A3E0F9A3E0FFA3E090098DCFF0A3EFF091
:06741300E4FF126BAD2244
:0B4A8A00900978EBF0A3EAF0A3E9F03C
:104A9500E4900988F0A3F07D07FF125F05E490120A
:104AA5000EF0C2983098FDC29890120EE02441F5A0
:104AB50082E43410F583E599F090120EE02441F577
:104AC50082E43410F583E06440600890120EE0043F
:104AD500F080D1900978E0FBA3E0FAA3E0F9E412B5
:104AE50042F7900988F0900988E0FF3395E0FEC30E
:104AF500EF9420EE64809480502390097BE0FBA323
:104B0500E0FAA3E0F9900988E03395E08F82F58318
:104B15007463124309900988E004F080C97B017A27
:104B2500107941900A8974FFF0A3746EF0A3744460
:104B3500F012680FEB8A8389827B007A0079007016
:104B450006E5827002E583702C7B017A107941902D
:104B55000A8974FFF0A3746EF0A37449F012680F0C
:104B6500EB8A8389827B007A0079007006E5827082
:104B750002E5836016900978E0FBA3E0FAA3E0F96B
:104B85001242B144071242F7024C7E7B017A10793A
:104B950041900A8974FFF0A3746EF0A3744EF0126D
:104BA500680FEB8A8389827B007A0079007006E5BD
:104BB500827002E583702C7B017A107941900A8915
:104BC50074FFF0A3746EF0A37453F012680FEB8AB0
:104BD5008389827B007A0079007006E5827002E5A0
:104BE500836016900978E0FBA3E0FAA3E0F912428E
:104BF500B144061242F7024C7E7B017A107941904E
:104C05000A8974FFF0A3746EF0A37458F012680F4C
:104C1500EB8A8389827B007A0079007006E58270D1
:104C250002E583702C7B017A107941900A8974FF23
:104C3500F0A3746EF0A3745EF012680FEB8A83899B
:104C4500827B007A0079007006E5827002E5836058
:104C550015900978E0FBA3E0FAA3E0F91242B1440C
:104C6500051242F78013900978E0FBA3E0FAA3E070
:104C7500F91242B144F01242F77B017A1079419062
:104C85000A8974FFF0A3746EF0A37464F012680FC0
:104C9500EB8A8389827B007A0079007006E5827051
:104CA50002E5836016900978E0FBA3E0FAA3E0F93A
:104CB5001242B144701242F7024D407B017A1079DD
:104CC50041900A8974FFF0A3746EF0A37469F01221
:104CD500680FEB8A8389827B007A0079007006E58C
:104CE500827002E583702C7B017A107941900A89E4
:104CF50074FFF0A3746EF0A3746EF012680FEB8A64
:104D05008389827B007A0079007006E5827002E56E
:104D1500836015900978E0FBA3E0FAA3E0F912425D
:104D2500B144601242F78013900978E0FBA3E0FAE2
:104D3500A3E0F91242B1440F1242F77E007F0A7DCB
:104D4500007B017A09797E12456DE490120EF09090
:104D5500120EE02441F582E43410F583E0B42C080A
:104D650090120EE004F0800890120EE004F080DF4F
:104D750090120EE02441F582E43410F583E0B42C62
:104D85000890120EE004F0800890120EE004F08006
:104D9500DFE4900988F0900988E0FF3395E0FEC3D1
:104DA500EF9420EE648094804003024E647E007F81
:104DB5000A7D007B017A09797E12456DE4900989A7
:104DC500F090120EE02441F582E43410F583E0649E
:104DD5002C604490120EE02441F582E43410F583F2
:104DE500E06440603290120EE02441F582E4341014
:104DF500F583E0FF900989E0FD3395E0FC747E2D95
:104E0500F58274093CF583EFF0900989E004F09090
:104E1500120EE004F080AA7B017A09797E126734CC
:104E2500EF14FF90097BE0FBA3E0FAA3E0F99009FA
:104E350088E0FD3395E08D82F583EF1243099012EA
:104E45000EE02441F582E43410F583E06440600F00
:0F4E550090120EE004F0900988E004F0024D9BEB
:014E6400222B
:1055DE00E4900982F0A3F07D07FF125F05E49012BC
:1055EE000EF0C2983098FDC29890120EE02441F54C
:1055FE0082E43410F583E599F090120EE02441F523
:10560E0082E43410F583E06440600890120EE004EA
:10561E00F080D17B017A107941900A8974FFF0A352
:10562E00746EF0A37471F012680FEB8A8389827B1B
:10563E00007A0079007006E5827002E583601190B1
:10564E00120F7401F07BFF7A6E7973127524803B12
:10565E007B017A107941900A8974FFF0A3746EF081
:10566E00A37495F012680FEB8A8389827B007A000F
:10567E0079007006E5827002E583600F90120F7458
:10568E0002F07BFF7A6E79971275247E007F0A7D79
:10569E00007B017A09797812456DE490120EF09034
:1056AE00120EE02441F582E43410F583E0B42308B1
:1056BE0090120EE004F0800890120EE004F080DFED
:1056CE00E4900982F0900982E0FF3395E0FEC3EF8B
:1056DE009402EE6480948040030257FD7E007F0AA0
:1056EE007D007B017A09797812456DE4900983F08B
:1056FE0090120EE02441F582E43410F583E0642C20
:10570E00604490120EE02441F582E43410F583E0FB
:10571E006440603290120EE02441F582E43410F5BC
:10572E0083E0FF900983E0FD3395E0FC74782DF55E
:10573E008274093CF583EFF0900983E004F0901237
:10574E000EE004F080AA7B017A097978126734ACF6
:10575E0006AD07900982E0FF3395E0FEEF25E0FFEE
:10576E00EE33FE74CD2FF58274113EF583ECF0A36B
:10577E00EDF090120EE02441F582E43410F583E052
:10578E006440705C7BFF7A6E79B912752490120FAB
:10579E00E06401702B7D07FF125F057BFF7A6E7947
:1057AE00BE1275247B017A1179CD900988E4F0A39D
:1057BE0004F0A3E4F0A37402F0E4FF12698B8016E8
:1057CE007BFF7A6E79C81275247B017A1179CD7DB3
:1057DE00027C001273E37BFF7A6E79DA1275242253
:0F57EE0090120EE004F0900982E004F00256D30E
:0157FD002289
:0A75F50049533F4000454E4440005A
:10721C004811F301800220044008104811FD0102BE
:06722C0004081020408060
:04760E0075F8FF22EA
:1071A100AB07E49011FBF0901205F0901205E0FDA1
:1071B1003395E0FCC3ED9408EC64809480503AE090
:1071C1003395E0FC74FD2DF58274113CF583E05B91
:1071D100601F9011FBE0FE901205E03395E0FC7416
:1071E100F32DF58274113CF583E0FDEE4D9011FB1A
:1071F100F0901205E004F080B29011FBE0F4F5F894
:01720100226A
:1068CE00900978EBF0A3EAF0A3E9F0900978E0FBE9
:1068DE00A3E0FAA3E0F9E41242F79011FCF0901154
:1068EE00FCE0FF3395E0FEC3EF9408EE64809480E5
:1068FE00400302698AE4901127F0A3F09011FCE0A6
:10690E003395E0FE74382FF58274103EF583E0FD6A
:10691E007B077F031261807BFF7A7579F57F011209
:10692E006FE8539AFEE59A30E031539AFEE59BB438
:10693E005929900978E0FBA3E0FAA3E0F91242B1DD
:10694E00FF9011FCE0FD3395E0FC74FD2DF5827493
:10695E00113CF583E04F1242F78018901127E47531
:10696E00F00112433DFEE5F0B420BAEEB44EB6800F
:0D697E000280B29011FCE004F00268EC22EF
:1070D900900978EFF0E49011FCF09011FCE0FF3397
:1070E90095E0FEC3EF9408EE648094805047E03346
:1070F90095E0FE74FD2FF58274113EF583E0FF9053
:107109000978E05F60279011FCE0FF3395E0FE7499
:10711900382FF58274103EF583E0FD7B077F03125B
:1071290061807BFF7A7579FA7F01126FE89011FC13
:06713900E004F080A52235
:0872320041121100411210008D
:10744A00E4FDFC438E805389F0758ACD758CD4C2D5
:10745A008DD2A9D28C901210E064027006F00DED64
:0F746A0070010CEDB507EEECB506EAC28CC2A9B5
:0174790022F0
:1074FF00E4901210F0438E805389F0758A91758C49
:10750F00FFC28DD2A9D28C901210E0640170F8C224
:05751F008CC2A9F0225E
:03000B000275A9D2
:1075A900C0E0C083C082901210E004F0D082D08382
:0375B900D0E032ED
:1072AA00494E495400696E697400496E6974005305
:1072BA00544152540053746172740073746172744D
:1072CA000052756E4D6F64650053544F50005374ED
:1072DA006F700073746F70004E65787453746172C6
:0272EA0074002E
:10732E0043BA8090FE0374C0F090FE03E030E0F9A3
:10733E0090FE01E4F090FE0004F0E4F5BA75F8FF5B
:10734E00C20FC210C20ED288D28AC2A8C2AAD2AFAF
:10735E0075CCFFF5CB75E2FFF5E14392025391FD3B
:01736E0022FC
:1074AA00E4FFFEFDFCC3EF9498EE64809483501DC4
:1074BA00E4FCFDC3ED94C8EC648094805008000D90
:0D74CA00ED70010C80ED0FEF70010E80D809
:0174D7002292
:0300030002757F04
:10757F00C0E0C0D075D018C2A81274AA30B2FAD227
:06758F000FD0D0D0E03265
:030023000253A3E2
:0D53A300C0E0C0F0C083C082C0D075D0183B
:1053B000E4FFC2AC3098FDC298EFFD3395E0FC7479
:1053C000412DF58274103CF583E599F0EF3395E0BB
:1053D000FC74412DF58274103CF583E06440600359
:1053E0000F80D17B017A107941900A8974FFF0A374
:1053F0007472F0A374AAF012680FEB8A8389827B1F
:10540000007A0079007006E5827002E58370587BAF
:10541000017A107941900A8974FFF0A37472F0A3A5
:1054200074AFF012680FEB8A8389827B007A00796F
:10543000007006E5827002E583702C7B017A10799A
:1054400041900A8974FFF0A37472F0A374B4F0124F
:10545000680FEB8A8389827B007A0079007006E509
:10546000827002E5836002D2107B017A107941904C
:105470000A8974FFF0A37472F0A374B9F012680F74
:10548000EB8A8389827B007A0079007006E582705E
:1054900002E58370587B017A107941900A8974FF84
:1054A000F0A37472F0A374BFF012680FEB8A8389C3
:1054B000827B007A0079007006E5827002E58370D5
:1054C0002C7B017A107941900A8974FFF0A37472E1
:1054D000F0A374C5F012680FEB8A8389827B007A8F
:1054E0000079007006E5827002E5836002D20F7BCE
:1054F000017A107941900A8974FFF0A37472F0A3C5
:1055000074CBF012680FEB8A8389827B007A007972
:10551000007006E5827002E5836002D20E7B017A9C
:10552000107941900A8974FFF0A37472F0A374D3C8
:10553000F012680FEB8A8389827B007A0079007011
:1055400006E5827002E58370587B017A10794190FC
:105550000A8974FFF0A37472F0A374D8F012680F74
:10556000EB8A8389827B007A0079007006E582707D
:1055700002E583702C7B017A107941900A8974FFCF
:10558000F0A37472F0A374DDF012680FEB8A8389C4
:10559000827B007A0079007006E5827002E5836004
:1055A0000343C7207B017A107941900A8974FFF088
:1055B000A37472F0A374E2F012680FEB8A838982FD
:1055C0007B007A0079007006E5827002E583600353
:0355D00043C720AE
:0B55D300D0D0D082D083D0F0D0E032E6
:10754700D2A67F027E0012744AC2A67F057E001271
:0C755700744AD2A67F027E0012744A2201
:10756300D2A77F027E0012744AC2A77F057E001253
:0C757300744AD2A77F027E0012744A22E4
:1027670053797374656D20496E69742E2E2E0D0A88
:10277700000D0A0950726F6772616D20566572739A
:10278700696F6E2056312E362E312E2E2E0D0A00F1
:102797000D0A506C656173652053656E6420436F45
:1027A7006D6D6164203A20537461727420446562D0
:1027B70075672F4E6F726D616C20526561642F547F
:1027C70072696D2054656D706572617475726550BC
:1027D7006F696E7473400D0A000D0A54656D70655C
:1027E700726174757265506F696E7473203A204F09
:1027F7006E652C54687265652C5369782C54656E28
:102807002C456C6576656E0D0A000D0A41646420DF
:102817002744656661756C74272063616E20736B4E
:10282700697020696E7075742050743130300D0AEC
:10283700000D0A44656661756C74203A20544F395F
:10284700322D332E33562C50543130302C312C321C
:102857002C332C342C352C362C372C38400D0A0DC4
:102867000A00444542554700646562756700446540
:1028770062756700202044656275675F004465667E
:1028870061756C740044454641554C540064656657
:1028970061756C740020204E6F726D616C20446509
:1028A7006661756C745F0020204E6F726D616C5F9E
:1028B70000726561640052656164005245414400DD
:1028C700526561642020007472696D005472696DED
:1028D700005452494D005472696D2020004F6E65B7
:1028E70000312054656D7065726174757265506F43
:1028F700696E740D0A0D0A0054687265650033200D
:1029070054656D7065726174757265506F696E7428
:102917000D0A0D0A0053697800362054656D7065FD
:10292700726174757265506F696E740D0A0D0A00D5
:1029370054656E0031302054656D70657261747531
:102947007265506F696E740D0A0D0A00456C6576E5
:10295700656E0031312054656D70657261747572F2
:1029670065506F696E740D0A0D0A000D0A506C658B
:1029770061736520696E707574205472696D6D6935
:102987006E6720446174612045473A20566572732B
:10299700696F6E20235642452C526F746174696FBC
:1029A7006E20202F2F56657273696F6E3A20422072
:1029B7006F722043400D0A0056657273696F6E206F
:1029C70042207C20526F746174696F6E2056616C6F
:1029D7007565733A203020746F2031350D0A005623
:1029E700657273696F6E2043207C20526F74617427
:1029F700696F6E2056616C7565733A203020746F6D
:102A070020372020205642452056616C7565733A61
:102A1700203020746F203235340D0A0054657374EA
:102A2700696E672059534C204368616D6265722E49
:102A37002E2E0D0A000D0A546865726520697320F1
:102A47006E6F207465737420626F61726420696EA3
:102A5700207468652063757272656E74207379736C
:102A670074656D2E20506C656173652063686563BE
:102A77006B207468617420746865207465737420B2
:102A8700626F61726420697320706C756767656433
:102A970020696E2C20616E64207468656E207475E1
:102AA700726E206F6E2074686520706F7765722074
:102AB700616761696E212121004F4B2E0D0A437515
:102AC7007272656E742053797374656D20426F61FD
:102AD7007264203A200D0A0D0A00092B3D3D3D3D49
:102AE7003D3D3D3D3D2B3D3D3D3D3D3D3D3D3D2B33
:102AF7003D3D3D3D3D3D3D3D3D2B3D3D3D3D3D3D11
:102B07003D3D3D2B3D3D3D3D3D3D3D3D3D2B3D3D12
:102B17003D3D3D3D3D3D3D2B3D3D3D3D3D3D3D3DF0
:102B27003D2B3D3D3D3D3D3D3D3D3D2B0D0A0009C6
:102B37007C20426F6172642D31207C20426F61726C
:102B4700642D32207C20426F6172642D33207C20FB
:102B5700426F6172642D34207C20426F6172642D54
:102B670035207C20426F6172642D36207C20426FB5
:102B77006172642D37207C20426F6172642D38208A
:102B87007C0D0A00097C0020202059657320202035
:102B97007C002020204E2F412020207C000D0A00A1
:102BA7000D0A53797374656D20496E697420656EDB
:102BB700642E0D0A00506C6561736520656E74653F
:102BC7007220746865205061636B61676520547972
:102BD7007065206F66207468652031384232302076
:102BE700616E642074686520766F6C746167652018
:102BF7006F6620746865205663632050696E0D0AFE
:102C0700416E6420656E74657220746865205B256B
:102C1700645D2050543130307328313C3D204E756F
:102C27006D626572203C3D203332292075736564DF
:102C370020696E207468652073797374656D2069E7
:102C47006E206F72646572284E6F726D616C456796
:102C57003A20544F39322D332E33562C50543130BD
:102C6700302C312C342C372C3840206F722044659F
:102C770062756745673A20544F39322D332E3356E4
:102C87002C40293A0D0A000D0A5061636B61676594
:102C97002054797065204F7220566F6C7461676598
:102CA7002056616C75652069732057726F6E6721B6
:102CB700212120506C656173652072652D656E74E6
:102CC70065722021212100456E7465722074686544
:102CD700206E756D626572206F66205054313030FA
:102CE70020617265206E6F7420636F727265637402
:102CF7002E5468652073797374656D2061637475EC
:102D0700616C6C79206E656564732025642050546E
:102D17003130307320616E6420746865206163749C
:102D270075616C20696E707574205054313030288D
:102D370073292069732025642E20506C65617365A3
:102D47002072652D656E74657220212121005468FB
:102D570065206E756D626572206F662074686520E8
:102D6700696E707574205054313030206973206457
:102D770075706C69636174652C20706C656173652F
:102D87002072652D656E74657220212121200D0A40
:102D9700004973756D203D2025662041000D0A20EE
:102DA7005468652044555420706F77657220737599
:102DB70070706C792063757272656E742069732008
:102DC7006F76657220746865206C696D69742C2054
:102DD700706C6561736520636865636B20746F2031
:102DE700736565206966205B4455545D20697320CF
:102DF70073686F72742D6369726375697465642093
:102E0700212121616E64207468656E20706F77657B
:102E170072206974206261636B206F6E0D0A000D6A
:102E27000A5663632856290954612843656C7369F8
:102E37007573290900252E33640900505431303049
:102E47002D252E326409004963635F73756D284130
:102E5700290D0A0D0A000D0A5472696D6D696E67B6
:102E6700205374617274202E2E2E2E2E2E0D0A00E2
:102E77000D0A0D0A09536574206368616D626572F6
:102E870027732074656D706572617475726520743F
:102E97006F20252E32662043656C736975732E0D7E
:102EA7000A000D0A0909566363203D20252E326664
:102EB70020560D0A00090957726974652064617408
:102EC70061203A20000D0A0D0A00090900546865BF
:102ED700206E756D626572206F6620636F6E736515
:102EE700637574697665206572726F727320726597
:102EF7006365697665642062792074686520584A3D
:102F07005920686173207265616368656420313098
:102F17002074696D65732E20506C6561736520633D
:102F27006865636B20746861742074686520584A0B
:102F37005920686173206661696C65642121210DE0
:102F47000A09616E64207468656E20706F77657218
:102F5700206974206261636B206F6E2E0D0A002555
:102F6700660D0A000D0A0931384232302054656D6A
:102F77007065726174757265204176657261676507
:102F87002056616C7565203A0D0A0909000D0A4340
:102F9700616C204F66667365742064617461203AC2
:102FA700200909000D0A52656164205642452064D4
:102FB700617461203A200909000D0A526561642095
:102FC7004F66667365742064617461203A2009094D
:102FD700000D0A526F746174696F6E2056616C75CB
:102FE7006573203A200909000D0A09090009090932
:102FF70009002566000D0A09544331384232302052
:1030070054656D706572617475726520417665727D
:103017006167652056616C7565203A0D0A090900DC
:103027000D0A0D0A252E326609252E326609000D76
:103037000A5472696D696E672050726F63657373A6
:103047002066696E69736865640D0A000D0A20546D
:10305700656D7065726174757265206D65617375F4
:1030670072656D656E742061742066756C6C207670
:103077006F6C7461676520696E2066756C6C20746F
:10308700656D706572617475726520617265612026
:103097007374617274202E2E2E2E2E2E0D0A000DA3
:1030A7000A0954433138423230202620584A5920E1
:1030B70054656D70657261747572652041766572CD
:1030C7006167652056616C7565203A0D0A0909002C
:1030D7004661696C09005061737309000D0A4669FE
:1030E7006E616C20526573756C743A0909000D0A9C
:1030F70031384232302052656164696E6720546509
:103107006D70657261747572652050726F63657357
:10311700732066696E69736865642C53656E6420F5
:103127005B4E6578745374617274405D20616761AA
:10313700696E20666F72206E657874207374617291
:1031470074696E67202E2E2E0D0A0041A0000042E2
:10315700AA0000C25C0000C2200000C1C80000C174
:103167002000000000000041C80000424800004263
:10317700AA000042C8000042FA00004009999A409C
:1031870009999A4009999A3F2666663F2666663FDF
:103197002666663F2666663F2666664009999A4018
:1031A70009999ABFECCCCDBFECCCCDBFECCCCDBE52
:1031B700B33333BEB33333BEB33333BEB33333BEAC
:1031C700B33333BFECCCCDBFECCCCDC25C0000C178
:1031D70020000041C800004270000042AA000042DF
:1031E700FA0000400000003F0000003F0000003FE1
:1031F7000000003F00000040000000C0000000BFCA
:10320700000000BF000000BF000000BF000000C0BA
:10321700000000C120000041C8000042AA00003F92
:103227000000003F0000003F000000BF000000BF9B
:10323700000000BF00000041C800003F000000BFC1
:10324700000000C25C0000C2200000C1F00000C105
:103257002000004120000041C80000423400004225
:1032670070000042AA000042C8000042FA00004075
:1032770000000040000000400000003F0000003F49
:103287000000003F0000003F0000003F0000003F3B
:103297000000004000000040000000C0000000C027
:1032A700000000C0000000BF000000BF000000BF1A
:1032B700000000BF000000BF000000BF000000C00A
:0732C700000000C000000040
:10723A0048112900010203040506074C1195404034
:10724A000000405333334066666641119200411193
:06725A003100C192C19158
:100026009000397430F0C2049009741244D0000074
:10003600000012732E7FA07E0F12744A7BFF7A2770
:1000460079671275247BFF7A2779781275247BFFEE
:100056007A2779971275247BFF7A2779E01275241F
:100066007BFF7A2879111275247BFF7A287938125A
:100076007524D2A8D2AC300FFD7B017A107941905D
:100086000A8974FFF0A37428F0A37469F012680F4C
:10009600EB8A8389827B007A0079007006E582709C
:1000A60002E58370587B017A107941900A8974FFC2
:1000B600F0A37428F0A3746FF012680FEB8A83899B
:1000C600827B007A0079007006E5827002E5837013
:1000D6002C7B017A107941900A8974FFF0A3742869
:1000E600F0A37475F012680FEB8A8389827B007A1D
:1000F6000079007006E5827002E583600EC2037B1C
:10010600FF7A28797B1275240201E8D2037B017AF3
:10011600107941900A8974FFF0A37428F0A37484BF
:10012600F012680FEB8A8389827B007A007900706F
:1001360006E5827002E58370587B017A107941905A
:100146000A8974FFF0A37428F0A3748CF012680F68
:10015600EB8A8389827B007A0079007006E58270DB
:1001660002E583702C7B017A107941900A8974FF2D
:10017600F0A37428F0A37494F012680FEB8A8389B5
:10018600827B007A0079007006E5827002E5836062
:1001960048D204E4901190F0901190E0C394087452
:1001A6008094805023E02429F582E43411F583E01D
:1001B600FF901190E02415F582E43400F583EFF00A
:1001C600901190E004F080D09000117408F07BFF4D
:1001D6007A28799C12752480097BFF7A2879AE12D9
:1001E60075247B017A107941900A8974FFF0A37413
:1001F60028F0A374B8F012680FEB8A8389827B001B
:100206007A0079007006E5827002E58370587B01FA
:100216007A107941900A8974FFF0A37428F0A374C8
:10022600BDF012680FEB8A8389827B007A00790021
:100236007006E5827002E583702C7B017A107941A5
:10024600900A8974FFF0A37428F0A374C2F01268B0
:100256000FEB8A8389827B007A0079007006E5823B
:100266007002E5836013E49001BBF090000FE0F0AC
:100276007BFF7A2879C712752420030302031F7BAC
:10028600017A107941900A8974FFF0A37428F0A3CB
:1002960074CEF012680FEB8A8389827B007A00792C
:1002A600007006E5827002E58370587B017A10794A
:1002B60041900A8974FFF0A37428F0A374D3F01256
:1002C600680FEB8A8389827B007A0079007006E5E5
:1002D600827002E583702C7B017A107941900A893D
:1002E60074FFF0A37428F0A374D8F012680FEB8A99
:1002F6008389827B007A0079007006E5827002E5C8
:100306008360169001BB7408F090000FE04408F07B
:100316007BFF7A2879DD1275247B017A107941906A
:100326000A8974FFF0A37428F0A374E4F012680F2E
:10033600EB8A8389827B007A0079007006E58270F9
:1003460002E583601290118F7401F07BFF7A2879A1
:10035600E81275240204507B017A107941900A89CB
:1003660074FFF0A37428F0A374FFF012680FEB8AF1
:100376008389827B007A0079007006E5827002E547
:1003860083601290118F7403F07BFF7A297905122E
:1003960075240204507B017A107941900A8974FF12
:1003A600F0A37429F0A3741CF012680FEB8A8389FA
:1003B600827B007A0079007006E5827002E5836030
:1003C6001190118F7406F07BFF7A2979201275241B
:1003D60080787B017A107941900A8974FFF0A374C2
:1003E60029F0A37437F012680FEB8A8389827B00A9
:1003F6007A0079007006E5827002E583601190113B
:100406008F740AF07BFF7A29793B127524803B7B37
:10041600017A107941900A8974FFF0A37429F0A338
:100426007453F012680FEB8A8389827B007A007915
:10043600007006E5827002E583600F90118F740BE1
:10044600F07BFF7A29795A127524E4901193F09083
:10045600118FE0FF901193E0C39F40030206FA90CC
:10046600118FE06401707B901193E025E025E02474
:100476003EF582E43432F5831244B4901193E025BC
:10048600E025E024A1F582E43411F5831244C490FA
:100496001193E025E025E02442F582E43432F58329
:1004A6001244B4901193E025E025E0245EF582E441
:1004B6003411F5831244C4901193E025E025E0241D
:1004C60046F582E43432F5831244B4901193E02564
:1004D600E025E02432F582E43411F5831244C402A7
:1004E60006F190118FE06403707B901193E025E094
:1004F60025E0241AF582E43432F5831244B49011CF
:1005060093E025E025E024A1F582E43411F5831279
:1005160044C4901193E025E025E02426F582E434D6
:1005260032F5831244B4901193E025E025E0245E71
:10053600F582E43411F5831244C4901193E025E06A
:1005460025E02432F582E43432F5831244B4901166
:1005560093E025E025E02432F582E43411F5831298
:1005660044C40206F190118FE06406707B901193EB
:10057600E025E025E024D2F582E43431F583124407
:10058600B4901193E025E025E024A1F582E434112E
:10059600F5831244C4901193E025E025E024EAF5A2
:1005A60082E43431F5831244B4901193E025E025BA
:1005B600E0245EF582E43411F5831244C49011936D
:1005C600E025E025E02402F582E43432F583124486
:1005D600B4901193E025E025E02432F582E434114D
:1005E600F5831244C40206F190118FE0640A707B11
:1005F600901193E025E025E0245AF582E43431F5A4
:10060600831244B4901193E025E025E024A1F582FD
:10061600E43411F5831244C4901193E025E025E0FB
:100626002482F582E43431F5831244B4901193E0C8
:1006360025E025E0245EF582E43411F5831244C4F6
:10064600901193E025E025E024AAF582E43431F503
:10065600831244B4901193E025E025E02432F5821C
:10066600E43411F5831244C40206F190118FE0645C
:100676000B7078901193E025E025E0244AF582E49A
:100686003432F5831244B4901193E025E025E0243A
:10069600A1F582E43411F5831244C4901193E02548
:1006A600E025E02476F582E43432F5831244B490F2
:1006B6001193E025E025E0245EF582E43411F5830C
:1006C6001244C4901193E025E025E024A2F582E4CB
:1006D6003432F5831244B4901193E025E025E024EA
:1006E60032F582E43411F5831244C4901193E00488
:1006F600F00204559001BBE0FF3395E0FEEF64087D
:100706004E701E7BFF7A2979721275247BFF7A2937
:1007160079BF1275247BFF7A2979E6127524125562
:10072600DE3003267BFF7A2A7923127524E4FDFF47
:1007360012637E7B017A11798BE490097DF0FDFFCF
:100746001251517FE87E0312744A7F007E007D00BD
:100756007C0012713F12760ED2103010FDC2107F4F
:10076600647E0012744A7FFF1271A17FD07E071249
:10077600744A7B017A00790C1268CE90000CE0FF77
:100786003395E0FEEF4E700F12760E7BFF7A2A79D4
:100796003C1275240200787BFF7A2A79C0127524F0
:1007A6007BFF7A2A79E11275247BFF7A2B79361240
:1007B60075247BFF7A2A79E11275247BFF7A2B79DF
:1007C6008B127524E4900010F090000DF090000D4F
:1007D600E0FF3395E0FEC3EF9408EE64809480500A
:1007E6003BE03395E0FE74FD2FF58274113EF583F0
:1007F600E0FF90000CE05F60127BFF7A2B798E128F
:100806007524900010E02404F080097BFF7A2B7990
:100816009912752490000DE004F080B17BFF7A2BCD
:1008260079A41275247BFF7A2A79E1127524900047
:100836000CE0FF1271A17BFF7A2B79A71275242099
:100846000303020ACB300403020A927BFF7A2B7958
:10085600BC1275247B017A00790FC00390097BEBEB
:10086600F0A37400F0A37415F0D003124A8A7B013A
:100876007A1079411275247BFF7A2B79A41275249C
:100886007E007FC87D007B017A10794112456DC2DA
:1008960000C20190000FE05407FF3395E0FEEF64BD
:1008A600074E700ED20090096C1244D03ECCCCCDCF
:1008B600803C90000FE05407FF3395E0FEEF64059F
:1008C6004E700ED20090096C1244D03ECCCCCD8036
:1008D6001D90000FE05407FF3395E0FEEF64064ECF
:1008E600700CD20090096C1244D03ECCCCCD900056
:1008F6000FE054F0FF3395E0FEEF64704E702CD29B
:10090600019009701244D04053333390119512442C
:10091600D0402CCCCD9011991244D0405333339013
:10092600119D1244D040B00000803B90000FE0546F
:10093600F0FF3395E0FEEF64604E702AD201900915
:10094600701244D040A000009011951244D04098F7
:1009560000009011991244D040A0000090119D1201
:1009660044D040A8000030000320010C7BFF7A2C05
:10097600798E12752402085AD202200303020ACB8A
:10098600E4900011F0A3F0900012E0FF3395E0FE32
:10099600C3EF9420EE64809480502EE03395E0FE01
:1009A60074152FF58274003EF583E0FF3395E0FE63
:1009B600C3EF9421EE648094805006900011E00409
:1009C600F0900012E004F080BE900010E0FFA3E07B
:1009D6006F60407B017A1079419009B174FFF0A3F2
:1009E600742CF0A374CEF0900010E03395E09009DB
:1009F600B4F0A3EFF0900011E0FE3395E09009B655
:100A0600F0A3CEF012466C7B017A10794112752460
:100A160002085AE4900013F0900010E014FF9000D2
:100A260013E0FEC3EF6480F8EE648098504CE00457
:100A3600FF900010E0C36480F8EF6480985030EFB8
:100A4600FD3395E0FC74152DF58274003CF583E0CA
:100A5600FE900013E0FD3395E0FC74152DF58274CD
:100A6600003CF583E0B50604C20280030F80C23065
:100A76000208900013E004F0809E2002487BFF7A73
:100A86002D795512752402085A02085A90096C12DB
:100A960044D03ECCCCCD9009701244D04053333371
:100AA60090000FE04477F09011951244D0402CCC82
:100AB600CD9011991244D04053333390119D124476
:100AC600D040B000007E007FC87D007B017A10799F
:100AD6004112456DD2A8D2AC300FFDC20F90000C6A
:100AE600E0FF90000FE0540FFD126D097F887E1322
:100AF60012744A9001BBE0FF3395E0FEEF64084EA6
:100B0600700E90000CE0FF7B017A1179CD12604ADD
:100B1600900970E0FCA3E0FDA3E0FEA3E0FF1271E4
:100B26003F7F647E0012744A7B017A0979747D03E3
:100B36007F011257FE7F007E007D007C0012713F10
:100B46007B017A1079419009B174FFF0A3742DF0FE
:100B5600A37498F0900974E0FCA3E0FDA3E0FEA363
:100B6600E0FF9009B41244C412466C7B017A1079F6
:100B760041127524E4FFFEFD7C40900974E0F8A361
:100B8600E0F9A3E0FAA3E0FB123F94600D400B7B73
:100B9600FF7A2D79A412752480FE7BFF7A2E7926A2
:100BA600127524E490000DF090000DE0FF3395E0FF
:100BB600FEC3EF9408EE648094804003020C4BE081
:100BC6003395E0FE74FD2FF58274113EF583E0FF48
:100BD60090000CE05F606590000E7401F090000ECE
:100BE600E0FF3395E0FEC3EF9431EE6480948050CD
:100BF6004B7B017A1079419009B174FFF0A3742EF2
:100C0600F0A3743CF090000DE0FF3395E0FE7C000D
:100C16007D3012432BA3E0FD3395E0FCEF2DFFEE74
:100C26003C9009B4F0A3EFF012466C7B017A107980
:100C36004112752490000EE004F080A190000DE0B2
:100C460004F0020BAE300368E4900012F09000103E
:100C5600E0FF900012E0FEC3EF6480F8EE64809837
:100C6600504E7B017A1079419009B174FFF0A3745C
:100C76002EF0A37442F0900012E0FF3395E0FE746C
:100C8600152FF58274003EF583E0FF3395E0FEEF05
:100C96002401FFE43E9009B4F0A3EFF012466C7B0A
:100CA600017A107941127524900012E004F0809DBB
:100CB6007BFF7A2E794E1275247FE87E0312744AE2
:100CC6007FE87E0312744A9001BBE0FF3395E0FE95
:100CD600EF64084E6003021BAB7BFF7A2E795D1230
:100CE60075242011507B017A1079419009B174FF67
:100CF600F0A3742EF0A37477F0A31244D041C80079
:100D06000012466C7B017A107941127524E490003A
:100D160013F0900013E0FF3395E0FEC3EF943CEE32
:100D260064809480500F7F307E7512744A90001351
:100D3600E004F080DD7FB87E0B12744A900970E003
:100D4600FCA3E0FDA3E0FEA3E0FF12713F7B017A66
:100D56001079419009B174FFF0A3742EF0A374A921
:100D6600F0900970E0FCA3E0FDA3E0FEA3E0FF9095
:100D760009B41244C412466C7B017A10794112758B
:100D860024E4900012F0900012E0FF3395E0FEC3D9
:100D9600EF9420EE648094805027E03395E0FEEFD8
:100DA6007802C333CE33CED8F924BCF58274013E23
:100DB600F5831244D000000000900012E004F08099
:100DC600C5E490000DF090000DE0FF3395E0FEC302
:100DD600EF9408EE648094805064E4A3F090000ED3
:100DE600E0FF3395E0FEC3EF9430EE6480948050CC
:100DF60045E03395E0FEEF7802C333CE33CED8F923
:100E0600FF90000DE0FD3395E0FC9002FC75F0C00C
:100E1600ED12451BEC75F0C0A42583F583E5822F02
:100E2600F582E5833EF5831244D000000000900071
:100E36000EE004F080A790000DE004F080887FB8F3
:100E46007E0B12744A7BFF7A2E79BC1275247B01C5
:100E56007A1179CD7D027C001273E37BFF7A2E79BD
:100E6600CC12752412754790000CE0FF126F6BE4EC
:100E7600900036F0900036E0FF3395E0FEC3EF9425
:100E86000AEE6480948040030211927BFF7A2E79E9
:100E9600D11275247B017A0F79B8124E65EF700373
:100EA600020F40E4900012F0900012E0FF3395E04C
:100EB600FEC3EF9420EE648094804003020F5CE052
:100EC6003395E0FEEF7802C333CE33CED8F924BC97
:100ED600F58274013EF583C083C082E0F8A3E0F991
:100EE600A3E0FAA3E0FBC000C001C002C00390006B
:100EF60012E0FF3395E0FEEF7802C333CE33CED84F
:100F0600F924B8F582740F3EF583E0FCA3E0FDA357
:100F1600E0FEA3E0FFE4FBFA79207841123EF7D029
:100F260003D002D001D000123CFDD082D0831244FF
:100F3600C4900012E004F0020EAEE4FDFF126471EC
:100F46007F007E007D007C0012713F7BFF7A2E7948
:100F5600D412752480FE1275637F647E0012744A73
:100F66007B017A0979747D037F011257FEE49000B4
:100F76000DF090000DE0FF3395E0FEC3EF9408EE10
:100F8600648094804003021107E03395E0FE74FD0F
:100F96002FF58274113EF583E0FF90000CE05F7040
:100FA600030210FE7E007FC87D007B017A10794126
:100FB60012456D90000DE0FF3395E0FE74FD2FF5B0
:100FC6008274113EF583E0FF90000CE05FFF7B0129
:100FD6007A09790C125BBAE490000EF0900039E0C1
:100FE600FF90000EE0FEC3EF6480F8EE6480984048
:100FF600030210F0E0FF3395E0FEEF25E0FFEE334D
:10100600FE740C2FF58274093EF583E0FCA3E0FD27
:10101600EC124023E4FBFA79807841123EF7C004D3
:10102600C005C006C00790000EE0FF3395E0FEEF56
:101036007802C333CE33CED8F9243CF58274023E0F
:10104600F583D007D006D005D0041244C490000E14
:10105600E0FF3395E0FEEF7802C333CE33CED8F906
:10106600FF90000DE0FD3395E0FC9002FC75F0C0AA
:10107600ED12451BEC75F0C0A42583F583E5822FA0
:10108600F582E5833EF583C083C082E0F8A3E0F9EC
:10109600A3E0FAA3E0FBC000C001C002C0039000B9
:1010A6000EE0FF3395E0FEEF7802C333CE33CED8A1
:1010B600F9243CF58274023EF583E0FCA3E0FDA32F
:1010C600E0FEA3E0FFE4FBFA79207841123EF7D078
:1010D60003D002D001D000123CFDD082D08312444E
:1010E600C490000EE004F0020FE27B017A02793C24
:1010F600900039E0FD12741990000DE004F0020F23
:1011060078E4900012F0900011E0FFA3E0FEC3EF38
:101116006480F8EE6480985036E0FF3395E0FE7404
:10112600152FF58274003EF583E0FF3395E0FEEF60
:101136007802C333CE33CED8F924B8F9740F3EFA09
:101146007B017D01127419900012E004F080B77BD8
:10115600017A1079419009B174FFF0A3742FF0A3BE
:101166007466F0900974E0FCA3E0FDA3E0FEA3E042
:10117600FF9009B41244C412466C7B017A1079417F
:10118600127524900036E004F0020E7A7BFF7A2F67
:10119600796B127524E490000DF090000DE0FF339A
:1011A60095E0FEC3EF9408EE648094805040E033EF
:1011B60095E0FE74FD2FF58274113EF583E0FF90F5
:1011C600000CE05F6020A3E0FF3395E0FE7C007D2D
:1011D600C012432B74FC2FF974023EFA7B01900077
:1011E60039E0FD12741990000DE004F080ACE49033
:1011F6000012F0900011E0FFA3E0FEC3EF6480F858
:10120600EE6480985036E0FF3395E0FE74152FF5B6
:101216008274003EF583E0FF3395E0FEEF7802C36B
:1012260033CE33CED8F924BCF974013EFA7B017D66
:1012360001127419900012E004F080B77BFF7A2E39
:1012460079CC1275247F0A7E0012744AE490003825
:10125600F090000DF090000DE0FF3395E0FEC3EF37
:101266009408EE6480948040030213637E007FC876
:101276007D007B017A10794112456D90000DE0FFEB
:101286003395E0FE74FD2FF58274113EF583E0FF81
:1012960090000CE05F700302135A900038E004F0EF
:1012A600E4900037F0900037E0FF3395E0FEC3EF9F
:1012B6009404EE648094805077E0A3E075F004A473
:1012C6002FF582E435F0F583E5822411F582E58376
:1012D6003400F583E0FF3395E0FEEF7802C333CEAA
:1012E60033CED8F924BCF58274013EF583E0FCA325
:1012F600E0FDA3E0FEA3E0FFC004C005C006C007F2
:10130600900037E0FF3395E0FEEF7802C333CE332B
:10131600CED8F924FCF58274083EF583D007D006B2
:10132600D005D0041244C4900037E004F00212AB9A
:1013360090000DE0FF3395E0FE74FD2FF5827411E9
:101346003EF583E0FF90000CE05FFF7B017A0879B1
:10135600FC12656390000DE004F002125B7FB87E1C
:101366000B12744A7BFF7A2F7994127524E490004D
:101376000DF090000DE0FF3395E0FEC3EF9408EE0C
:10138600648094805065E03395E0FE74FD2FF5820D
:1013960074113EF583E0FF90000CE05F60457E002F
:1013A6007FC87D007B017A10794112456D90000D52
:1013B600E0FF3395E0FE74FD2FF58274113EF58350
:1013C600E0FF90000CE05FFF7B017A09790C125B6D
:1013D600BA7B017A09790C900039E0FD3395E0FC7F
:1013E6001273E390000DE004F0808790000FE05444
:1013F600F0FF3395E0FEEF64604E600B7F007E00E9
:101406007DA07C4012713F7FB87E0B12744A127524
:10141600477F647E0012744A12756390000CE0FFE9
:10142600126F6B7BFF7A2F79AB127524E490000D57
:10143600F090000DE0FF3395E0FEC3EF9408EE64F4
:101446008094805065E03395E0FE74FD2FF582743C
:10145600113EF583E0FF90000CE05F60457E007F63
:10146600C87D007B017A10794112456D90000DE030
:10147600FF3395E0FE74FD2FF58274113EF583E08F
:10148600FF90000CE05FFF7B017A09790C125BBAD2
:101496007B017A09790C900039E0FD3395E0FC1266
:1014A60073E390000DE004F080877BFF7A2F79C00C
:1014B600127524E490000DF090000DE0FF3395E0E6
:1014C600FEC3EF9408EE648094805065E03395E0A7
:1014D600FE74FD2FF58274113EF583E0FF90000C3B
:1014E600E05F60457E007FC87D007B017A10794110
:1014F60012456D90000DE0FF3395E0FE74FD2FF56B
:101506008274113EF583E0FF90000CE05FFF7B01E3
:101516007A09790C125BBA7B017A09790C90003949
:10152600E0FD3395E0FC1273E390000DE004F080DB
:10153600877BFF7A2F79D8127524E490000DF090FE
:10154600000DE0FF3395E0FEC3EF9408EE6480944F
:10155600805065E03395E0FE74FD2FF58274113EF0
:10156600F583E0FF90000CE05F60457E007FC87D5C
:10157600007B017A10794112456D90000DE0FF3332
:1015860095E0FE74FD2FF58274113EF583E0FF9021
:10159600000CE05FFF7B017A09790C125BBA7B01D4
:1015A6007A09790C900039E0FD3395E0FC1273E37B
:1015B60090000DE004F080877FE87E0312744AE411
:1015C600900012F0900012E0FF3395E0FEC3EF9416
:1015D60020EE648094805027E03395E0FEEF780299
:1015E600C333CE33CED8F924BCF58274013EF583DD
:1015F6001244D000000000900012E004F080C5E420
:1016060090000DF090000DE0FF3395E0FEC3EF94DF
:1016160008EE648094805064E4A3F090000EE0FF2E
:101626003395E0FEC3EF9430EE648094805045E03D
:101636003395E0FEEF7802C333CE33CED8F9FF9070
:10164600000DE0FD3395E0FC9002FC75F0C0ED1254
:10165600451BEC75F0C0A42583F583E5822FF58242
:10166600E5833EF5831244D00000000090000EE0B2
:1016760004F080A790000DE004F08088E490003626
:10168600F0900036E0FF3395E0FEC3EF940AEE6477
:1016960080948040030219607BFF7A2F79EF1275E0
:1016A6002420030302176F7B017A0F79B8124E6567
:1016B600EF7003021753E4900012F0900012E0FF5F
:1016C6003395E0FEC3EF9420EE64809480400302DD
:1016D600176FE03395E0FEEF7802C333CE33CED8F2
:1016E600F924BCF58274013EF583C083C082E0F81C
:1016F600A3E0F9A3E0FAA3E0FBC000C001C002C06A
:1017060003900012E0FF3395E0FEEF7802C333CE7C
:1017160033CED8F924B8F582740F3EF583E0FCA3E6
:10172600E0FDA3E0FEA3E0FFE4FBFA792078411296
:101736003EF7D003D002D001D000123CFDD082D0BB
:10174600831244C4900012E004F00216C1E4FDFFC7
:101756001264717F007E007D007C0012713F7BFF6A
:101766007A2E79D412752480FE1275637F647E000A
:1017760012744A7B017A0979747D037F011257FE40
:10178600E490000DF090000DE0FF3395E0FEC3EF0E
:101796009408EE64809480400302191AE03395E0C1
:1017A600FE74FD2FF58274113EF583E0FF90000C68
:1017B600E05F70030219117E007FC87D007B017A0D
:1017C60010794112456D90000DE0FF3395E0FE74EF
:1017D600FD2FF58274113EF583E0FF90000CE05F6B
:1017E600FF7B017A09790C125BBAE490000EF09047
:1017F6000039E0FF90000EE0FEC3EF6480F8EE646F
:1018060080984003021903E0FF3395E0FEEF25E0E0
:10181600FFEE33FE740C2FF58274093EF583E0FC6F
:10182600A3E0FDEC124023E4FBFA79807841123EF6
:10183600F7C004C005C006C00790000EE0FF339550
:10184600E0FEEF7802C333CE33CED8F9243CF582DE
:1018560074023EF583D007D006D005D0041244C4E6
:1018660090000EE0FF3395E0FEEF7802C333CE33EF
:10187600CED8F9FF90000DE0FD3395E0FC9002FC18
:1018860075F0C0ED12451BEC75F0C0A42583F583F9
:10189600E5822FF582E5833EF583C083C082E0F8BA
:1018A600A3E0F9A3E0FAA3E0FBC000C001C002C0B8
:1018B6000390000EE0FF3395E0FEEF7802C333CECF
:1018C60033CED8F9243CF58274023EF583E0FCA3BE
:1018D600E0FDA3E0FEA3E0FFE4FBFA7920784112E5
:1018E6003EF7D003D002D001D000123CFDD082D00A
:1018F600831244C490000EE004F00217F57B017ACF
:1019060002793C900039E0FD12741990000DE00454
:10191600F002178B7BFF7A2F79F41275247B017AFC
:101926001079419009B174FFF0A3742FF0A374F9F4
:10193600F0900974E0FCA3E0FDA3E0FEA3E0FF90B5
:1019460009B41244C412466C7B017A1079411275AF
:1019560024900036E004F00216877BFF7A2F79FC8C
:10196600127524E490000DF090000DE0FF3395E031
:10197600FEC3EF9408EE648094805040E03395E017
:10198600FE74FD2FF58274113EF583E0FF90000C86
:10199600E05F6020A3E0FF3395E0FE7C007DC0128F
:1019A600432B74FC2FF974023EFA7B01900039E058
:1019B600FD12741990000DE004F080ACE490001262
:1019C600F0900011E0FFA3E0FEC3EF6480F8EE6440
:1019D60080985036E0FF3395E0FE74152FF582743B
:1019E600003EF583E0FF3395E0FEEF7802C333CE89
:1019F60033CED8F924BCF974013EFA7B017D01127D
:101A06007419900012E004F080B77B017A107941D6
:101A16009009B174FFF0A37430F0A37427F0900915
:101A260070E0FCA3E0FDA3E0FEA3E0FF9009B41282
:101A360044C49031521244B49009B81244C41246B8
:101A46006C7B017A10794112752490000FE05407DF
:101A5600FF3395E0FEEF64074E6003021B9790008C
:101A66000DF090000DE0FF3395E0FEC3EF9408EE15
:101A7600648094804003021B97E03395E0FE74FD7A
:101A86002FF58274113EF583E0FF90000CE05F7045
:101A960003021B8EE490000EF0900039E0FF9000E8
:101AA6000EE0FEC3EF6480F8EE6480984003021BEC
:101AB6006CE0FF3395E0FEEF7802C333CE33CED829
:101AC600F9FF90000DE0FD3395E0FC9002FC75F007
:101AD600C0ED12451BEC75F0C0A42583F583E582A5
:101AE6002FF582E5833EF583C083C082E0FCA3E048
:101AF600FDA3E0FEA3E0FFC004C005C006C007903A
:101B0600000EE0FF75F00C12428FFF90000DE0759D
:101B1600F004A42FF582E435F0F583E5822415F56B
:101B260082E5833400F583E0FF3395E0FEEF78022B
:101B3600C333CE33CED8F924BCF58274013EF58387
:101B4600E0F8A3E0F9A3E0FAA3E0FBD007D006D0C3
:101B560005D004123CF9D082D0831244C490000E02
:101B6600E004F0021A9F90000DE0FF3395E0FE7C42
:101B7600007DC012432B74FC2FF974023EFA7B01E0
:101B8600900039E0FD12741990000DE004F0021A7D
:101B9600687F007E007D007C0012713F7BFF7A30FB
:101BA6007936127524D2ACD2A87BFF7A30795312DB
:101BB6007524E490000DF090000DE0FF3395E0FEF3
:101BC600C3EF9408EE648094805056E4A3F090002E
:101BD60039E0FF90000EE0FEC3EF6480F8EE64800B
:101BE600985036E0FF3395E0FE90000DE0FD33950A
:101BF600E0FC90003A75F030ED12451BEC75F030C4
:101C0600A42583F583E5822FF582E5833EF583E4FB
:101C1600F090000EE004F080B590000DE004F08036
:101C260096E4900035F090118FE0FF900035E0FDCE
:101C36003395E0FCC3ED9F7480F86C984003022650
:101C4600947B017A107941C003C002C0019009B1AA
:101C560074FFF0A3742EF0A37477F0900035E0FFC4
:101C66003395E0FEEF7802C333CE33CED8F924A104
:101C7600F58274113EF583E0FCA3E0FDA3E0FEA32C
:101C8600E0FF9009B41244C4D001D002D00312463A
:101C96006C7B017A10794112752420112B300328B0
:101CA600E4900014F0900014E0FF3395E0FEC3EFDB
:101CB6009478EE64809480500F7F307E7512744A5B
:101CC600900014E004F080DDE49001BAF09001BACF
:101CD600E0FF3395E0FEC3EF9403EE64809480400A
:101CE60003022680E4900012F0900012E0FF339584
:101CF600E0FEC3EF9420EE648094805027E0339595
:101D0600E0FEEF7802C333CE33CED8F924BCF58299
:101D160074013EF5831244D000000000900012E0EA
:101D260004F080C5E490000DF090000DE0FF3395BF
:101D3600E0FEC3EF9408EE648094805064E4A3F060
:101D460090000EE0FF3395E0FEC3EF9430EE648022
:101D560094805045E03395E0FEEF7802C333CE33EE
:101D6600CED8F9FF90000DE0FD3395E0FC9002FC23
:101D760075F0C0ED12451BEC75F0C0A42583F58304
:101D8600E5822FF582E5833EF5831244D0000000FC
:101D96000090000EE004F080A790000DE004F080B3
:101DA600889001BAE0FF3395E0FEEF7802C333CEA8
:101DB60033CED8F92495F58274113EF583E0FCA361
:101DC600E0FDA3E0FEA3E0FF12713F7F887E1312C1
:101DD600744A1275477F147E0012744AE4900036E6
:101DE600F0900036E0FF3395E0FEC3EF940AEE6410
:101DF60080948040030220F97BFF7A2E79D11275F8
:101E0600247B017A0F79B8124E65EF7003021EAD7E
:101E1600E4900012F0900012E0FF3395E0FEC3EF6D
:101E26009420EE648094804003021EC3E03395E064
:101E3600FEEF7802C333CE33CED8F924BCF58274D4
:101E4600013EF583C083C082E0F8A3E0F9A3E0FA7F
:101E5600A3E0FBC000C001C002C003900012E0FF77
:101E66003395E0FEEF7802C333CE33CED8F924B8EB
:101E7600F582740F3EF583E0FCA3E0FDA3E0FEA32C
:101E8600E0FFE4FBFA79207841123EF7D003D00256
:101E9600D001D000123CFDD082D0831244C4900001
:101EA60012E004F0021E1B7F007E007D007C001203
:101EB600713F7BFF7A2E79D412752480FE127563EA
:101EC6007F647E0012744A7B017A0979747D037FF0
:101ED600011257FEE490000DF090000DE0FF3395DF
:101EE600E0FEC3EF9408EE64809480400302206E07
:101EF600E03395E0FE74FD2FF58274113EF583E024
:101F0600FF90000CE05F70030220657E007FC87DB5
:101F1600007B017A10794112456D90000DE0FF3388
:101F260095E0FE74FD2FF58274113EF583E0FF9077
:101F3600000CE05FFF7B017A09790C125BBAE49032
:101F4600000EF0900039E0FF90000EE0FEC3EF6453
:101F560080F8EE6480984003022057E0FF3395E056
:101F6600FEEF25E0FFEE33FE740C2FF58274093E7A
:101F7600F583E0FCA3E0FDEC124023E4FBFA798054
:101F86007841123EF7C004C005C006C00790000E97
:101F9600E0FF3395E0FEEF7802C333CE33CED8F9B7
:101FA600243CF58274023EF583D007D006D005D0D6
:101FB600041244C490000EE0FF3395E0FEEF780271
:101FC600C333CE33CED8F9FF90000DE0FD3395E054
:101FD600FC9002FC75F0C0ED12451BEC75F0C0A438
:101FE6002583F583E5822FF582E5833EF583C0835D
:101FF600C082E0F8A3E0F9A3E0FAA3E0FBC000C0CA
:1020060001C002C00390000EE0FF3395E0FEEF78BA
:1020160002C333CE33CED8F9243CF58274023EF5A2
:1020260083E0FCA3E0FDA3E0FEA3E0FFE4FBFA7976
:10203600207841123EF7D003D002D001D000123CE6
:10204600FDD082D0831244C490000EE004F0021F3B
:10205600497B017A02793C900039E0FD12741990AF
:10206600000DE004F0021EDFE4900012F090001173
:10207600E0FFA3E0FEC3EF6480F8EE64809850367C
:10208600E0FF3395E0FE74152FF58274003EF5836C
:10209600E0FF3395E0FEEF7802C333CE33CED8F9B6
:1020A60024B8F9740F3EFA7B017D01127419900071
:1020B60012E004F080B77B017A1079419009B1747F
:1020C600FFF0A3742FF0A37466F0900974E0FCA3EC
:1020D600E0FDA3E0FEA3E0FF9009B41244C412465B
:1020E6006C7B017A107941127524900036E004F079
:1020F600021DE77BFF7A3079A6127524E490000D65
:10210600F090000DE0FF3395E0FEC3EF9408EE6417
:102116008094805040E03395E0FE74FD2FF5827484
:10212600113EF583E0FF90000CE05F6020A3E0FF26
:102136003395E0FE7C007DC012432B74FC2FF974AE
:10214600023EFA7B01900039E0FD12741990000DF1
:10215600E004F080ACE4900012F0900011E0FFA3E0
:10216600E0FEC3EF6480F8EE6480985036E0FF33FB
:1021760095E0FE74152FF58274003EF583E0FF337B
:1021860095E0FEEF7802C333CE33CED8F924BCF9FE
:1021960074013EFA7B017D01127419900012E0046D
:1021A600F080B77B017A107941C003C002C001906C
:1021B60009B174FFF0A37430F0A37427F09001BA4C
:1021C600E0FF3395E0FEEF7802C333CE33CED8F985
:1021D6002495F58274113EF583E0FCA3E0FDA3E0AF
:1021E600FEA3E0FF9009B41244C4900035E0FF332B
:1021F60095E0FEEF7802C333CE33CED8F924A1F5AD
:102206008274113EF583E0FCA3E0FDA3E0FEA3E0AB
:10221600FF9009B81244C4D001D002D00312466C14
:102226007B017A10794112752490000FE05407FF64
:102236003395E0FEEF64074E60030224E790000D3D
:10224600F090000DE0FF3395E0FEC3EF9408EE64D6
:1022560080948040030224E7E03395E0FE74FD2F6E
:10226600F58274113EF583E0FF90000CE05F700389
:102276000224DEE490000EF0900039E0FF90000E9C
:10228600E0FEC3EF6480F8EE64809840030224BC4D
:10229600E0FF3395E0FEEF7802C333CE33CED8F9B4
:1022A600FF90000DE0FD3395E0FC9002FC75F0C058
:1022B600ED12451BEC75F0C0A42583F583E5822F4E
:1022C600F582E5833EF583C083C082E0FCA3E0FD92
:1022D600A3E0FEA3E0FFC004C005C006C00790004F
:1022E6000EE0FF75F00C12428FFF90000DE075F0C6
:1022F60004A42FF582E435F0F583E5822415F582F2
:10230600E5833400F583E0FF3395E0FEEF7802C302
:1023160033CE33CED8F924BCF58274013EF583E082
:10232600F8A3E0F9A3E0FAA3E0FBD007D006D005B6
:10233600D004123CF9D082D0831244C490000EE03F
:10234600FF3395E0FEEF7802C333CE33CED8F9FFE4
:1023560090000DE0FD3395E0FC9002FC75F0C0EDB9
:1023660012451BEC75F0C0A42583F583E5822FF595
:1023760082E5833EF583E0FCA3E0FDA3E0FEA3E057
:10238600FFC004C005C006C007900035E0FF3395C6
:10239600E0FEEF7802C333CE33CED8F9245EF58261
:1023A60074113EF583E0F8A3E0F9A3E0FAA3E0FB9D
:1023B600D007D006D005D004123F9450030224491A
:1023C60090000EE0FF3395E0FEEF7802C333CE3384
:1023D600CED8F9FF90000DE0FD3395E0FC9002FCAD
:1023E60075F0C0ED12451BEC75F0C0A42583F5838E
:1023F600E5822FF582E5833EF583E0FCA3E0FDA3AD
:10240600E0FEA3E0FFC004C005C006C0079000358B
:10241600E0FF3395E0FEEF7802C333CE33CED8F932
:102426002432F58274113EF583E0F8A3E0F9A3E0C7
:10243600FAA3E0FBD007D006D005D004123F946083
:102446006C406A90000EE0FF3395E0FE90000DE0D0
:10245600FD3395E0FC90003A75F030ED12451BEC2B
:1024660075F030A42583F583E5822FF582E5833E5A
:10247600F583E0FF3395E0FEEF4E703190000EE0FD
:10248600FF3395E0FE90000DE03395E0FC90003AB6
:1024960075F030ED12451BEC75F030A42583F583FD
:1024A600E5822FF582E5833EF5837401F090000EF8
:1024B600E004F002227E90000DE0FF3395E0FE7C02
:1024C600007DC012432B74FC2FF974023EFA7B0187
:1024D600900039E0FD12741990000DE004F002221C
:1024E600477BFF7A2F79EF127524E490000DF09068
:1024F600000DE0FF3395E0FEC3EF9408EE64809490
:1025060080400302266EE03395E0FE74FD2FF582CF
:1025160074113EF583E0FF90000CE05F7003022625
:1025260065E490000EF0900039E0FF90000EE0FEAA
:10253600C3EF6480F8EE6480984003022665E0FFEE
:102546003395E0FEEF7802C333CE33CED8F9FF9051
:10255600000DE0FD3395E0FC9002FC75F0C0ED1235
:10256600451BEC75F0C0A42583F583E5822FF58223
:10257600E5833EF583E0FCA3E0FDA3E0FEA3E0FFD8
:10258600C004C005C006C007900035E0FF3395E0E3
:10259600FEEF7802C333CE33CED8F9245EF58274CB
:1025A600113EF583E0F8A3E0F9A3E0FAA3E0FBD03F
:1025B60007D006D005D004123F9450030226489057
:1025C600000EE0FF3395E0FEEF7802C333CE33CE44
:1025D600D8F9FF90000DE0FD3395E0FC9002FC7504
:1025E600F0C0ED12451BEC75F0C0A42583F583E51C
:1025F600822FF582E5833EF583E0FCA3E0FDA3E0B0
:10260600FEA3E0FFC004C005C006C007900035E089
:10261600FF3395E0FEEF7802C333CE33CED8F924EC
:1026260032F58274113EF583E0F8A3E0F9A3E0FAEF
:10263600A3E0FBD007D006D005D004123F94600D6E
:10264600400B7BFF7A3079D712752480097BFF7A9D
:102656003079DD12752490000EE004F002252C90EE
:10266600000DE004F00224F57BFF7A2E79CC12757A
:10267600249001BAE004F0021CD37F007E007D00A6
:102686007C0012713F900035E004F0021C2C900093
:102696000CE0FF1270D97BFF7A3079E3127524E4DF
:1026A60090000DF090000DE0FF3395E0FEC3EF942F
:1026B60008EE64809480400302274EE03395E0FEE6
:1026C60074FD2FF58274113EF583E0FF90000CE057
:1026D6005F606CE490000EF0900039E0FF90000E11
:1026E600E0FEC3EF6480F8EE6480985052E0FF335A
:1026F60095E0FE90000DE0FD3395E0FC90003A7504
:10270600F030ED12451BEC75F030A42583F583E51A
:10271600822FF582E5833EF583E0FF3395E0FEEFF9
:102726004E600B7BFF7A3079D712752480097BFFC8
:102736007A3079DD12752490000EE004F0809990CD
:10274600000DE004F00226AA7BFF7A2E79CC1275E2
:10275600247BFF7A3079F5127524D2ACD2A880FE9C
:012766002250
:10747A00312C504F5745522C4F46460A00312C505A
:10748A004F5745522C4F4E0A00312C54454D502C23
:10749A0053252E31660A00312C54454D503F0A00BF
:10647100900978EFF0A3EDF0900978E0FF3395E013
:10648100FEEF64014E701ED2A17B047DC07F01121C
:1064910061807F017E0012744A7BFF7A74797A7F72
:1064A10001126FE822900978E0FF3395E0FEEF4E8C
:1064B1006003026562900F5404F0A37410F0E4A32A
:1064C100F0A3742FF0E4A3F0A304F0A304F0E4A379
:1064D100F0A3F07B017A0F79547D09FC126282905E
:1064E1000AA2EEF0A3EFF0900AA2E0A3E0900F5D04
:1064F100F0900AA2E0900F5EF0900979E0FF3395E9
:10650100E0FEEF4E7026D2A17B037D407F01126138
:10651100807F017E0012744A7B017A0F79549009C1
:1065210098E4F0A3740BF07F01127063900979E095
:10653100FF3395E0FEEF64014E7026D2A17B037D0F
:10654100C07F011261807F017E0012744A7B017A53
:106551000F7954900998E4F0A3740BF07F01127045
:026561006322B3
:10637E00900978EFF0A3EDF0900978E0FF3395E007
:10638E00FEEF64014E701ED2A17B047DC07F011210
:10639E0061807F017E0012744A7BFF7A7479877F59
:1063AE0001126FE822900978E0FF3395E0FEEF4E80
:1063BE006003026470900F5404F0A37410F0E4A311
:1063CE00F0A3742FF0E4A3F0A304F0A304F0E4A36D
:1063DE00F0A304F0FB7A0F79547D097C00126282DF
:1063EE00900AA2EEF0A3EFF0900AA2E0A3E0900FC5
:1063FE005DF0900AA2E0900F5EF0900979E0FF3315
:10640E0095E0FEEF4E7026D2A17B037D407F0112F8
:10641E0061807F017E0012744A7B017A0F7954905D
:10642E000998E4F0A3740BF07F0112706390097960
:10643E00E0FF3395E0FEEF64014E7026D2A17B03A0
:10644E007DC07F011261807F017E0012744A7B0144
:10645E007A0F7954900998E4F0A3740BF07F01122F
:03646E0070632236
:085D6900901206EFF0A3EDF02B
:105D7100901206E0FF3395E0FEEF64014E7056D2BB
:105D8100A1FE7F64FD7B017A0F795412456D7B0181
:105D91007A0F79549009B174FFF0A37474F0A3746D
:105DA10093F0901208E0FCA3E0FDA3E0FEA3E0FF66
:105DB1009009B41244C412466C7B047DC07F011269
:105DC10061807F017E0012744A7B017A0F79547FD2
:105DD10001126FE822901206E0FF3395E0FEEF4ECC
:105DE1006003025F04FFFEFDFC901208E0F8A3E0EF
:105DF100F9A3E0FAA3E0FB123F944025E4FFFE7D06
:105E0100207C41901208E0F8A3E0F9A3E0FAA3E0B6
:105E1100FB123DEE12405C90120CEEF0A3EFF0800D
:105E210023E4FFFE7D207C41901208E0F8A3E0F915
:105E3100A3E0FAA3E0FB123DEE12405C90120CEEDF
:105E4100F0A3EFF0900F547401F0A37410F0E4A3E9
:105E5100F0A3742BF0E4A3F0A304F0A304F09012D8
:105E61000CE0FF3395E0900F5BEFF090120CA3E094
:105E7100900F5CF07B017A0F79547D097C001262EE
:105E810082900AA2EEF0A3EFF0900AA2E0A3E090C4
:105E91000F5DF0900AA2E0900F5EF0901207E0FF14
:105EA1003395E0FEEF4E7026D2A17B037D407F014A
:105EB1001261807F017E0012744A7B017A0F79544E
:105EC100900998E4F0A3740BF07F011270639012B3
:105ED10007E0FF3395E0FEEF64014E7026D2A17B0F
:105EE100037DC07F011261807F017E0012744A7BB5
:105EF100017A0F7954900998E4F0A3740BF07F01B3
:035F0100127063B8
:015F0400227A
:10515100900978EFF0A3EDF0A3EBF0A3EAF0A3E957
:01516100F05D
:105162007E007F147D007B017A09798012456D7E75
:10517200007F647D007B017A0F795412456D90099E
:1051820078E0FF3395E0FEEF64014E600302525077
:10519200D2A17B047DC07F011261807F017E00125B
:1051A200744A7BFF7A7479A17F01126FE8E4900957
:1051B2007EF0C2A1539AFEE59A30E0FB539AFEE5D7
:1051C2009B640A601890097EE02454F582E4340F4F
:1051D200F583E59BF090097EE004F080DAE4900923
:1051E2007EF090097EE0C3943274809480505CE03B
:1051F2002454F582E4340FF583E0B42C287B017A41
:1052020009798012726190097AE0FBA3E0FAA3E0C7
:10521200F91244767E007F147D007B017A09798041
:1052220012456D802690097EE02454F582E4340F05
:10523200F583E0FF90097EE02480F582E43409F5ED
:1052420083EFF090097EE004F08097D2A1229009CA
:1052520078E0FF3395E0FEEF4E60030253A2900F19
:105262005404F0A37403F0E4A3F090097DE0FF334B
:1052720095E0FEEF4E7004900F57F090097DE0FF2D
:105282003395E0FEEF64014E7006900F57742BF0D9
:10529200E4900F58F0A304F0FB7A0F79547D067C5A
:1052A20000126282900AA2EEF0A3EFF0900AA2E04E
:1052B200A3E0900F5AF0900AA2E0900F5BF09009E1
:1052C20079E0FF3395E0FEEF4E7028D2A17B037D9B
:1052D200407F011261807F017E0012744A7B017A55
:1052E2000F7954900998E4F0A37408F07F011270CA
:1052F20063C2A1900979E0FF3395E0FEEF64014EAD
:105302007028D2A17B037DC07F011261807F017E64
:105312000012744A7B017A0F7954900998E4F0A341
:105322007408F07F01127063C2A1539AFEE59A30AD
:10533200E0FB539AFE90097EE02480F582E4340972
:10534200F583E59BF090097EE004F0E06403700AC7
:10535200900982E0240590097FF090097FE0FF9098
:10536200097EE0B507C7800280C3D2A1900983E01D
:10537200FF3395E0AD07FCED7D00FCA3E02DFDE4DD
:105382003CFCFEAF05124023E4FBFA79207841127F
:105392003EF790097AE0FBA3E0FAA3E0F912447623
:0153A20022E8
:0832CE009011D1EFF0A3EDF027
:1032D600D39011E0E0942C9011DFE064809481405B
:1032E600077401F0A3742CF0E49011E3F0A3F090BE
:1032F60011DFE0FEA3E0FFC39011E4E09FEE6480DF
:10330600F89011E3E064809840030234269011EFB0
:103316001244D0000000007B017A0F79B8124E6586
:10332600EF7003023412E49011E5F0A3F09011DE81
:10333600E0FF3395E0FEC39011E6E09FEE6480F86F
:103346009011E5E064809850749011EFE0FCA3E0E2
:10335600FDA3E0FEA3E0FFC004C005C006C00790C1
:1033660011DBE0FBA3E0FAA3E0F99011E5E0FEA390
:10337600E0F5828E831242CAFF3395E0FEEF7802B3
:10338600C333CE33CED8F924B8F582740F3EF58315
:10339600E0F8A3E0F9A3E0FAA3E0FBD007D006D05B
:1033A60005D004123CFD9011EF1244C49011E6E0E2
:1033B60004F070069011E5E004F00233339011DE5C
:1033C600E0FC124028A804A905AA06AB079011EF55
:1033D600E0FCA3E0FDA3E0FEA3E0FF123EF7C0047D
:1033E600C005C006C0079011E3E0FEA3E07802C363
:1033F60033CE33CED8F924A4F582740A3EF583D0B1
:1034060007D006D005D0041244C480037F00229062
:1034160011E4E004F070069011E3E004F00232F5E6
:10342600900AA4E0FCA3E0FDA3E0FEA3E0FF901158
:10343600E71244C4900AA4E0FCA3E0FDA3E0FEA3C7
:10344600E0FF9011EB1244C4E49011E3F0A3F09076
:1034560011DFE0FEA3E0FFC39011E4E09FEE64807D
:10346600F89011E3E06480984003023545E0FEA33E
:10347600E07802C333CE33CED8F924A4F582740A99
:103486003EF583E0FCA3E0FDA3E0FEA3E0FF901180
:10349600E7E0F8A3E0F9A3E0FAA3E0FB123F9460AB
:1034A6002C402A9011E3E0FEA3E07802C333CE332A
:1034B600CED8F924A4F582740A3EF583E0FCA3E095
:1034C600FDA3E0FEA3E0FF9011E71244C49011E3D0
:1034D600E0FEA3E07802C333CE33CED8F924A4F5B8
:1034E60082740A3EF583E0FCA3E0FDA3E0FEA3E0C0
:1034F600FF9011EBE0F8A3E0F9A3E0FAA3E0FB12DA
:103506003F94502A9011E3E0FEA3E07802C333CE45
:1035160033CED8F924A4F582740A3EF583E0FCA3E1
:10352600E0FDA3E0FEA3E0FF9011EB1244C490116E
:10353600E4E004F070069011E3E004F002345590E4
:1035460011E7E0F8A3E0F9A3E0FAA3E0FBA3E0FCAF
:10355600A3E0FDA3E0FEA3E0FF123CF97BCD7ACC0D
:10356600794C783E123F9440030236FAE49011E318
:10357600F0A3F09011E0E024FFFF9011DFE034FFAC
:10358600FEC39011E4E09FEE6480F89011E3E064DE
:103596008098505DE0FEA3E07802C333CE33CED8E8
:1035A600F924A8F582740A3EF583E0FCA3E0FDA3A6
:1035B600E0FEA3E0FFC004C005C006C0079011E30B
:1035C600E0FEA3E07802C333CE33CED8F924A4F5C7
:1035D60082740A3EF583D007D006D005D004124483
:1035E600C49011E4E004F070069011E3E004F0806A
:1035F600829011EF1244D0000000007B017A0F790F
:10360600B8124E65EF70030236F7E49011E5F0A3A9
:10361600F09011DEE0FF3395E0FEC39011E6E09FE7
:10362600EE6480F89011E5E064809850749011EF94
:10363600E0FCA3E0FDA3E0FEA3E0FFC004C005C0DC
:1036460006C0079011DBE0FBA3E0FAA3E0F99011B6
:10365600E5E0FEA3E0F5828E831242CAFF3395E0D1
:10366600FEEF7802C333CE33CED8F924B8F5827490
:103676000F3EF583E0F8A3E0F9A3E0FAA3E0FBD060
:1036860007D006D005D004123CFD9011EF1244C4B9
:103696009011E6E004F070069011E5E004F00236C1
:1036A600179011DEE0FC124028A804A905AA06AB73
:1036B600079011EFE0FCA3E0FDA3E0FEA3E0FF12FC
:1036C6003EF7C004C005C006C0079011DFE0FEA3A8
:1036D600E07802C333CE33CED8F924A0F582740A3B
:1036E6003EF583D007D006D005D0041244C4023478
:1036F600267F0022E49011E3F0A3F09011E1E0FEB2
:10370600A3E0FFC39011E4E09FEE6480F89011E31C
:10371600E064809840030237E39011EF1244D00032
:103726000000007B017A0F79B8124E65EF70030234
:1037360037CFE49011E5F0A3F09011DEE0FF33956A
:10374600E0FEC39011E6E09FEE6480F89011E5E09C
:1037560064809850779011EFE0FCA3E0FDA3E0FEB3
:10376600A3E0FFC004C005C006C0079011DBE0FB64
:10377600A3E0FAA3E0F99011E5E0FEA3E0F5828E5E
:10378600831242CAFF3395E0FEEF7802C333CE338D
:10379600CED8F924B8F582740F3EF583E0F8A3E09D
:1037A600F9A3E0FAA3E0FBD007D006D005D00412B7
:1037B6003CFD9011EF1244C49011E6E004F070064F
:1037C6009011E5E004F002373F7F00229011E4E01B
:1037D60004F070069011E3E004F00237019011EF57
:1037E600E0FCA3E0FDA3E0FEA3E0FFC004C005C02B
:1037F60006C0079011DEE0FC124028A804A905AA1D
:1038060006AB07D007D006D005D004123EF79011BC
:10381600EF1244C49011D3E0F8A3E0F9A3E0FAA3B1
:10382600E0FB9011EFE0FCA3E0FDA3E0FEA3E0FFC8
:10383600123CF91275E89011D7E0F8A3E0F9A3E07D
:10384600FAA3E0FB123F944003023CF3E4FFFEFDC3
:103856007C409011D3E0F8A3E0F9A3E0FAA3E0FBE3
:10386600123DEE9011EFE0F8A3E0F9A3E0FAA3E031
:10387600FB123CF99011EF1244C49011D1E0FFC045
:1038860007A3E0FDC0059011EFE0FCA3E0FDA3E077
:10389600FEA3E0FF9012081244C4D005D007125DC3
:1038A60069E49011E3F0A3F09011DFE0FEA3E0FFDE
:1038B600C39011E4E09FEE6480F89011E3E0648029
:1038C6009840030239DF9011EF1244D00000000047
:1038D6007B017A0F79B8124E65EF70030239CBE49B
:1038E6009011E5F0A3F09011DEE0FF3395E0FEC302
:1038F6009011E6E09FEE6480F89011E5E064809810
:1039060050749011EFE0FCA3E0FDA3E0FEA3E0FFFE
:10391600C004C005C006C0079011DBE0FBA3E0FAB7
:10392600A3E0F99011E5E0FEA3E0F5828E83124252
:10393600CAFF3395E0FEEF7802C333CE33CED8F913
:1039460024B8F582740F3EF583E0F8A3E0F9A3E00E
:10395600FAA3E0FBD007D006D005D004123CFD90B8
:1039660011EF1244C49011E6E004F070069011E5E0
:10397600E004F00238EC9011DEE0FC124028A804C6
:10398600A905AA06AB079011EFE0FCA3E0FDA3E0B2
:10399600FEA3E0FF123EF7C004C005C006C00790B4
:1039A60011E3E0FEA3E07802C333CE33CED8F92488
:1039B600A4F582740A3EF583D007D006D005D0045C
:1039C6001244C480037F00229011E4E004F07006E4
:1039D6009011E3E004F00238AE900AA4E0FCA3E004
:1039E600FDA3E0FEA3E0FF9011E71244C4900AA4F1
:1039F600E0FCA3E0FDA3E0FEA3E0FF9011EB124480
:103A0600C4E49011E3F0A3F09011DFE0FEA3E0FF21
:103A1600C39011E4E09FEE6480F89011E3E06480C7
:103A2600984003023AFEE0FEA3E07802C333CE33A9
:103A3600CED8F924A4F582740A3EF583E0FCA3E00F
:103A4600FDA3E0FEA3E0FF9011E7E0F8A3E0F9A3F1
:103A5600E0FAA3E0FB123F94602C402A9011E3E0C9
:103A6600FEA3E07802C333CE33CED8F924A4F58280
:103A7600740A3EF583E0FCA3E0FDA3E0FEA3E0FFAD
:103A86009011E71244C49011E3E0FEA3E07802C36C
:103A960033CE33CED8F924A4F582740A3EF583E0FA
:103AA600FCA3E0FDA3E0FEA3E0FF9011EBE0F8A38A
:103AB600E0F9A3E0FAA3E0FB123F94502A9011E349
:103AC600E0FEA3E07802C333CE33CED8F924A4F5C2
:103AD60082740A3EF583E0FCA3E0FDA3E0FEA3E0CA
:103AE600FF9011EB1244C49011E4E004F0700690CC
:103AF60011E3E004F0023A0E9011E7E0F8A3E0F9D2
:103B0600A3E0FAA3E0FBA3E0FCA3E0FDA3E0FEA391
:103B1600E0FF123CF97BCD7ACC794C783E123F948B
:103B26004003023CB3E49011E3F0A3F09011E0E00F
:103B360024FFFF9011DFE034FFFEC39011E4E09F05
:103B4600EE6480F89011E3E0648098505DE0FEA397
:103B5600E07802C333CE33CED8F924A8F582740AAE
:103B66003EF583E0FCA3E0FDA3E0FEA3E0FFC00476
:103B7600C005C006C0079011E3E0FEA3E07802C3CB
:103B860033CE33CED8F924A4F582740A3EF583D019
:103B960007D006D005D0041244C49011E4E004F026
:103BA60070069011E3E004F080829011EF1244D089
:103BB600000000007B017A0F79B8124E65EF7003A2
:103BC600023CB0E49011E5F0A3F09011DEE0FF3383
:103BD60095E0FEC39011E6E09FEE6480F89011E553
:103BE600E064809850749011EFE0FCA3E0FDA3E040
:103BF600FEA3E0FFC004C005C006C0079011DBE0CD
:103C0600FBA3E0FAA3E0F99011E5E0FEA3E0F5825C
:103C16008E831242CAFF3395E0FEEF7802C333CE9D
:103C260033CED8F924B8F582740F3EF583E0F8A3B5
:103C3600E0F9A3E0FAA3E0FBD007D006D005D00454
:103C4600123CFD9011EF1244C49011E6E004F070AE
:103C5600069011E5E004F0023BD09011DEE0FC1284
:103C66004028A804A905AA06AB079011EFE0FCA31B
:103C7600E0FDA3E0FEA3E0FF123EF7C004C005C0CE
:103C860006C0079011DFE0FEA3E07802C333CE330F
:103C9600CED8F924A0F582740A3EF583D007D00663
:103CA600D005D0041244C40239DF7F0022E490110B
:103CB600E3F0A3F09011E1E0FEA3E0FFC39011E46E
:103CC600E09FEE6480F89011E3E0648098501E7BDC
