:1073B6002566090025640900504B472C25644000CA
:1073C60050542C252E33662C252E33662C252E3331
:1073D600662C252E33664000422C25642C256440FD
:0A73E60000432C25642C25644000B0
:10720F0048110A608040C0A02000E04810380102F9
:06721F0003040700050650
:105F1200EFFB3395E04B6003025FB7759850438EF9
:105F220040538EFE53890FEDFB3395E0FAEB640785
:105F32004A7006758BD0758DFFEDFB3395E0FAEB59
:105F420064064A7006758BA0758DFFEDFB3395E0F4
:105F5200FAEB64054A7006758B70758DFFEDFB33A5
:105F620095E0FAEB64044A7006758BE0758DFEEDE0
:105F7200FB3395E0FAEB64034A7006758BC0758DAE
:105F8200FDEDFB3395E0FAEB64024A7006758B80F7
:105F9200758DFBEDFB3395E0FAEB64014A7005F574
:105FA2008B758DF7EDFB3395E04B7005F58B758D99
:105FB200EEC2ABD28EEF3395E0FEEF64014E60038A
:105FC200026056759A50EDFF3395E0FEEF64074E7E
:105FD200700675D7D075D6FFEDFF3395E0FEEF64FE
:105FE200064E700675D7A075D6FFEDFF3395E0FE1D
:105FF200EF64054E700675D77075D6FFEDFF3395C9
:10600200E0FEEF64044E700675D7E075D6FEEDFF34
:106012003395E0FEEF64034E700675D7C075D6FD6A
:10602200EDFF3395E0FEEF64024E700675D7807582
:10603200D6FBEDFF3395E0FEEF64014E7005F5D718
:1060420075D6F7AF05EF3395E04F7005F5D775D6E6
:05605200EE438E142254
:10737C00EFFB3395E04B7012EDFB3395E0FAEB64C9
:10738C00014A7004D2AC8002C2ACEF3395E0FEEF40
:10739C0064014E7014AF05EF3395E0FEEF64014EBF
:0A73AC00700443AF012253AFFE222C
:10618D00900A86EFF0A905AF03AD077F01125F12EC
:10619D00901040E5E8F0900A86E0FF3395E0FEEFC1
:1061AD0064014E706043BA01901040E0541FF0E45A
:1061BD00901109F0901109E0FF3395E0FEC3EF94C3
:1061CD0008EE64809480503DE03395E0FE740A2F14
:1061DD00F58274113EF583E0B50122901040E0FF89
:1061ED00901109E0FD3395E0FC740A2DF5827411D0
:1061FD003CF583E0FEEF4E901040F08008901109C1
:10620D00E004F080AF900A86E0FF3395E0FEEF6486
:10621D00034E706053BAFE901040E054F8F0E490D5
:10622D001109F0901109E0FF3395E0FEC3EF9408DA
:10623D00EE64809480503DE03395E0FE74382FF588
:10624D008274103EF583E0B50122901040E0FF907E
:10625D001109E0FD3395E0FC74382DF58274103C86
:10626D00F583E0FEEF4E901040F08008901109E0AC
:10627D0004F080AF901040E0F5E87F017E001274CD
:02628D00572296
:106FF5009009AEEBF0A3EAF0A3E9F0EFFD3395E0DD
:107005004D702B9009AEE0FBA3E0FAA3E0F9124224
:10701500BE601B9009AEE0A3E475F001124360A9C0
:10702500F0FA1242BEF5993099FDC29980D5EF3339
:1070350095E0FEEF64014E70319009AEE0FBA3E0F0
:10704500FAA3E0F91242BE60219009AEE0A3E4750F
:10705500F001124360A9F0FA1242BEF59BE59A547D
:0B70650002640270F8539AFD80CF22F5
:0E6B080090097CEFF0A3EBF0A3EAF0A3E9F014
:106B1600E4900982F0A3F0900982F0A3F090098036
:106B2600E0FEA3E0FFC3900983E09F900982E09E08
:106B36004003026BB97B017A117913C003C002C00E
:106B4600019009B174FFF0A37473F0A374B6F090CA
:106B56000982E0FEA3E07802C333CE33CED8F9FF34
:106B660090097DE0FBA3E0FAA3E0F98F828E831201
:106B760044539009B41244D1D001D002D003124636
:106B8600799009847401F0A37411F0A37413F09042
:106B9600097CE0FF900984E0FBA3E0FAA3E0F91288
:106BA6006FF5900983E004F07006900982E004F026
:036BB600026B234C
:016BB90022B9
:0E6BBA00900989EFF0A3EBF0A3EAF0A3E9F055
:106BC800E490098FF0A3F090098FF0A3F090098D5D
:106BD800E0FEA3E0FFC3900990E09F90098FE09E3C
:106BE8004003026C6B7B017A117913C003C002C0A9
:106BF800019009B174FFF0A37473F0A374BAF09014
:106C08000990E025E0FF90098FE033FE90098AE0C3
:106C1800FBA3E0FAA3E0F98F828E831243A1FF90D1
:106C280009B4E5F0F0A3EFF0D001D002D00312468A
:106C3800799009917401F0A37411F0A37413F09082
:106C48000989E0FF900991E0FBA3E0FAA3E0F912BB
:106C58006FF5900990E004F0700690098FE004F059
:036C6800026BD5E7
:016C6B002206
:0E699800900984EFF0A3EBF0A3EAF0A3E9F07E
:1069A600E490098CF0A3F0900988E0FFA3E0900939
:1069B6008CCFF0A3EFF090098AE0FEA3E0FFC3902E
:1069C600098DE09F90098CE09E4003026A527B018C
:1069D6007A117913C003C002C0019009B174FFF0A7
:1069E600A37473F0A374BAF090098DE025E0FF90CC
:1069F600098CE033FE900985E0FBA3E0FAA3E0F9F9
:106A06008F828E831243A1FF9009B4E5F0F0A3EFC5
:106A1600F0D001D002D00312467990098E7401F0AD
:106A2600A37411F0A37413F0900984E0FF90098E0B
:106A3600E0FBA3E0FAA3E0F9126FF590098DE004FC
:0C6A4600F0700690098CE004F00269BCBE
:016A52002221
:0E707000900980EFF0A3EBF0A3EAF0A3E9F0A3
:10707E00E4FFFED3900985E09F900984E09E40577F
:10708E00900980E0FD3395E0FCED4C7017A3E0FB1A
:10709E00A3E0FAA3E0F98F828E831242D7F59930DE
:1070AE0099FDC299900980E0FD3395E0FCED6401F5
:1070BE004C701DA3E0FBA3E0FAA3E0F98F828E8350
:1070CE001242D7F59BE59A5402640270F8539AFD6A
:0770DE000FEF70010E809C12
:0170E5002288
:086D1600900978EFF0A3EDF005
:106D1E007E007F147D007B017A09797A12457A7B99
:106D2E00017A09797A9009B174FFF0A37473F0A314
:106D3E0074BEF0900979E0FE3395E09009B4F0A3AB
:106D4E00CEF0124679E4901109F0901109E0FF336C
:106D5E0095E0FEC3EF9408EE648094805047E033D4
:106D6E0095E0FE74192FF58274123EF583E0FF90C4
:106D7E000978E05F6027901109E0FF3395E0FE741B
:106D8E00382FF58274103EF583E0FD7B077F0312EA
:106D9E00618D7B017A09797A7F01126FF590110965
:056DAE00E004F080A5E7
:016DB30022BD
:106F7800900978EFF0E4901109F0901109E0FF33DF
:106F880095E0FEC3EF9408EE64809480505EE03391
:106F980095E0FE74192FF58274123EF583E0FF9098
:106FA8000978E05F603E901109E0FF3395E0FE74D8
:106FB800382FF58274103EF583E0FD7B077F0312BE
:106FC800618D539AFE759B25E59A5402640270F808
:106FD800539AFDE59A30E0ED539AFEE59BB425E51A
:0D6FE800800280E1901109E004F0808E220B
:0E5BC700900978EFF0A3EBF0A3EAF0A3E9F069
:105BD500E4901112F0901112E0FF3395E0FEC3EF4F
:105BE5009430EE648094805029E03395E0FEEF25F3
:105BF500E0FFEE33FE900979E0FBA3E0FAA3E0F9BC
:105C05008F828E83E4F5F01243F8901112E004F0D0
:105C150080C3E4901109F0901109E0FF3395E0FE8F
:105C2500C3EF9408EE64809480503EE03395E0FE27
:105C350074192FF58274123EF583E0FF900978E020
:105C45005F601E901109E0FF3395E0FE74382FF573
:105C55008274103EF583E0FD7B077F0312618D8022
:105C650008901109E004F080AEE4901112F0539A07
:105C7500FE759B02E59A5402640270F8539AFDE59D
:105C85009A30E0ED539AFE901112E0FF3395E0FE55
:105C950074412FF58274103EF583E59BF090111247
:105CA500E004F0E59A30E0FB539AFE901112E0FF14
:105CB5003395E0FE74412FF58274103EF583E59B24
:105CC500F0901112E004F0E0FF3395E0FEEF646020
:105CD5004E70D0800280CCE4901112F0901112E049
:105CE500FF3395E0FEC3EF9460EE6480948040033B
:105CF500025D75E03395E0FE74412FF58274103E28
:105D0500F583E0FE3395E090097CF0A3CEF0E0F852
:105D1500E4F0E890097CF0901112E03395E0FE7410
:105D2500422FF58274103EF583E0FF90097DE02F48
:105D3500F090097CE03400F0E0FCA3E0FD90111246
:105D4500E0FFA2E713FF3395E0FEEF25E0FFEE331A
:105D5500FE900979E0FBA3E0FAA3E0F98F828E8338
:105D6500EC8DF01243F8901112E02402F0025CE190
:015D7500220B
:10657000900978EFF0A3EBF0A3EAF0A3E9F07B0138
:106580007A107941C003C002C0019009B174FFF0D4
:10659000A37473F0A374C6F0900979E0FBA3E0FA4A
:1065A000A3E0F91244339009B41244D1900979E080
:1065B000FBA3E0FAA3E0F99000041244539009B859
:1065C0001244D1900979E0FBA3E0FAA3E0F990002E
:1065D000081244539009BC1244D1900979E0FBA3FE
:1065E000E0FAA3E0F990000C1244539009C0124461
:1065F000D1D001D002D003124679E4901109F09075
:106600001109E0FF3395E0FEC3EF9408EE64809437
:1066100080503CE03395E0FE74192FF58274123EF1
:10662000F583E0FF900978E05F601C901109E0FFBE
:106630003395E0FE74382FF58274103EF583E0FD4B
:106640007B077F0312618D901109E004F080B07B1D
:0B665000017A1079417F01126FF522E2
:0E605700900978EFF0A3EBF0A3EAF0A3E9F0D4
:106065007E007F327D007B017A09797C12457A902A
:106075001226E0640170557B017A09797CC003C062
:1060850002C0019009B174FFF0A37473F0A374DE2C
:10609500F0900979E0FBA3E0FAA3E0F9124376FF5B
:1060A5009009B4E5F0F0A3EFF0900979E0A3E0A33F
:1060B500E09000021243A1FF9009B6E5F0F0A3EFCE
:1060C500F0D001D002D003124679805B901226E011
:1060D500640270537B017A09797CC003C002C00158
:1060E5009009B174FFF0A37473F0A374E7F09009FD
:1060F50079E0FBA3E0FAA3E0F9124376FF9009B437
:10610500E5F0F0A3EFF0900979E0A3E0A3E09000BB
:10611500021243A1FF9009B6E5F0F0A3EFF0D0011C
:10612500D002D003124679E4901109F0901109E0EC
:10613500FF3395E0FEC3EF9408EE648094805047EA
:10614500E03395E0FE74192FF58274123EF583E075
:10615500FF900978E05F6027901109E0FF3395E033
:10616500FE74382FF58274103EF583E0FD7B077FC2
:106175000312618D7B017A09797C7F01126FF5909D
:076185001109E004F080A500
:01618C0022F0
:106E5100544F393200746F393200534F5038007338
:106E61006F7038004344464E38006364666E3800E4
:106E7100332E335600352E30560035560042000D64
:106E81000A5472696D6D696E672050726F67726125
:106E91006D2056657273696F6E20697320420D0A09
:106EA1000043000D0A5472696D6D696E672050725E
:106EB1006F6772616D2056657273696F6E206973B9
:106EC10020430D0A000D0A202000526F746174697D
:106ED1006F6E3A0056424520616E6420526F7461B4
:0B6EE10074696F6E3A000D0A0D0A0084
:0472250041122601EB
:10753100900984EBF0A3EAF0A3E9F07D07E4FF12E0
:107541005F12900984E0FBA3E0FAA3E0F9E4FF12E3
:037551006FF522B1
:10742600900978EBF0A3EAF0A3E9F0A3EDF07D076D
:10743600E4FF125F12900978E0FBA3E0FAA3E0F9FB
:10744600A3E0FF900980E4F0A3EFF0E4FF126B08DD
:017456002213
:1073F000900984EBF0A3EAF0A3E9F0A3ECF0A3ED8D
:10740000F07D07E4FF125F12900984E0FBA3E0FA2D
:10741000A3E0F9A3E0FFA3E090098DCFF0A3EFF084
:06742000E4FF126BBA222A
:0B4A9700900978EBF0A3EAF0A3E9F02F
:104AA200E4900988F0A3F07D07FF125F12E49012F0
:104AB20025F0C2983098FDC298901225E02441F565
:104AC20082E43410F583E599F0901225E02441F553
:104AD20082E43410F583E064406008901225E0041B
:104AE200F080D1900978E0FBA3E0FAA3E0F9E412A8
:104AF2004304900988F0900988E0FF3395E0FEC3F3
:104B0200EF9420EE64809480502390097BE0FBA315
:104B1200E0FAA3E0F9900988E03395E08F82F5830B
:104B22007463124316900988E004F080C97B017A0D
:104B3200107941900A8974FFF0A3746EF0A3745146
:104B4200F012681CEB8A8389827B007A00790070FC
:104B520006E5827002E583702C7B017A1079419020
:104B62000A8974FFF0A3746EF0A37456F012681CE5
:104B7200EB8A8389827B007A0079007006E5827075
:104B820002E5836016900978E0FBA3E0FAA3E0F95E
:104B92001242BE4407124304024C8B7B017A107905
:104BA20041900A8974FFF0A3746EF0A3745BF01253
:104BB200681CEB8A8389827B007A0079007006E5A3
:104BC200827002E583702C7B017A107941900A8908
:104BD20074FFF0A3746EF0A37460F012681CEB8A89
:104BE2008389827B007A0079007006E5827002E593
:104BF200836016900978E0FBA3E0FAA3E0F9124281
:104C0200BE4406124304024C8B7B017A1079419018
:104C12000A8974FFF0A3746EF0A37465F012681C25
:104C2200EB8A8389827B007A0079007006E58270C4
:104C320002E583702C7B017A107941900A8974FF16
:104C4200F0A3746EF0A3746BF012681CEB8A838974
:104C5200827B007A0079007006E5827002E583604B
:104C620015900978E0FBA3E0FAA3E0F91242BE44F2
:104C7200051243048013900978E0FBA3E0FAA3E055
:104C8200F91242BE44F01243047B017A107941903A
:104C92000A8974FFF0A3746EF0A37471F012681C99
:104CA200EB8A8389827B007A0079007006E5827044
:104CB20002E5836016900978E0FBA3E0FAA3E0F92D
:104CC2001242BE4470124304024D4D7B017A1079A8
:104CD20041900A8974FFF0A3746EF0A37476F01207
:104CE200681CEB8A8389827B007A0079007006E572
:104CF200827002E583702C7B017A107941900A89D7
:104D020074FFF0A3746EF0A3747BF012681CEB8A3C
:104D12008389827B007A0079007006E5827002E561
:104D2200836015900978E0FBA3E0FAA3E0F9124250
:104D3200BE44601243048013900978E0FBA3E0FABA
:104D4200A3E0F91242BE440F1243047E007F0A7DA3
:104D5200007B017A09797E12457AE4901225F0905F
:104D62001225E02441F582E43410F583E0B42C08E6
:104D7200901225E004F08008901225E004F080DF14
:104D8200901225E02441F582E43410F583E0B42C3E
:104D920008901225E004F08008901225E004F080CB
:104DA200DFE4900988F0900988E0FF3395E0FEC3C4
:104DB200EF9420EE648094804003024E717E007F67
:104DC2000A7D007B017A09797E12457AE49009898D
:104DD200F0901225E02441F582E43410F583E0647A
:104DE2002C6044901225E02441F582E43410F583CE
:104DF200E064406032901225E02441F582E43410F0
:104E0200F583E0FF900989E0FD3395E0FC747E2D87
:104E1200F58274093CF583EFF0900989E004F09083
:104E22001225E004F080AA7B017A09797E1267419B
:104E3200EF14FF90097BE0FBA3E0FAA3E0F99009ED
:104E420088E0FD3395E08D82F583EF1243169012D0
:104E520025E02441F582E43410F583E06440600FDC
:0F4E6200901225E004F0900988E004F0024DA8BA
:014E7100221E
:1055EB00E4900982F0A3F07D07FF125F12E49012A2
:1055FB0025F0C2983098FDC298901225E02441F511
:10560B0082E43410F583E599F0901225E02441F5FE
:10561B0082E43410F583E064406008901225E004C6
:10562B00F080D17B017A107941900A8974FFF0A345
:10563B00746EF0A3747EF012681CEB8A8389827BF4
:10564B00007A0079007006E5827002E583601190A4
:10565B0012267401F07BFF7A6E7980127531803BD4
:10566B007B017A107941900A8974FFF0A3746EF074
:10567B00A374A2F012681CEB8A8389827B007A00E8
:10568B0079007006E5827002E583600F9012267434
:10569B0002F07BFF7A6E79A41275317E007F0A7D52
:1056AB00007B017A09797812457AE4901225F09003
:1056BB001225E02441F582E43410F583E0B423088D
:1056CB00901225E004F08008901225E004F080DFB2
:1056DB00E4900982F0900982E0FF3395E0FEC3EF7E
:1056EB009402EE64809480400302580A7E007F0A85
:1056FB007D007B017A09797812457AE4900983F071
:10570B00901225E02441F582E43410F583E0642CFB
:10571B006044901225E02441F582E43410F583E0D7
:10572B0064406032901225E02441F582E43410F598
:10573B0083E0FF900983E0FD3395E0FC74782DF551
:10574B008274093CF583EFF0900983E004F090122A
:10575B0025E004F080AA7B017A097978126741ACC5
:10576B0006AD07900982E0FF3395E0FEEF25E0FFE1
:10577B00EE33FE74CD2FF58274113EF583ECF0A35E
:10578B00EDF0901225E02441F582E43410F583E02E
:10579B006440705C7BFF7A6E79C61275319012266D
:1057AB00E06401702B7D07FF125F127BFF7A6E792D
:1057BB00CB1275317B017A1179CD900988E4F0A376
:1057CB0004F0A3E4F0A37402F0E4FF1269988016CE
:1057DB007BFF7A6E79D51275317B017A1179CD7D8C
:1057EB00027C001273F07BFF7A6E79E7127531221F
:0F57FB00901225E004F0900982E004F00256E0DD
:01580A00227B
:0A76020049533F4000454E4440004C
:1072290048120F0180022004400810481219010277
:0672390004081020408053
:04761B0075F8FF22DD
:1071AE00AB07E4901217F0901221F0901221E0FD3F
:1071BE003395E0FCC3ED9408EC64809480503AE083
:1071CE003395E0FC74192DF58274123CF583E05B67
:1071DE00601F901217E0FE901221E03395E0FC74D0
:1071EE000F2DF58274123CF583E0FDEE4D901217D3
:1071FE00F0901221E004F080B2901217E0F4F5F84E
:01720E00225D
:1068DB00900978EBF0A3EAF0A3E9F0900978E0FBDC
:1068EB00A3E0FAA3E0F9E4124304901218F090121B
:1068FB0018E0FF3395E0FEC3EF9408EE64809480BC
:10690B004003026997E4901127F0A3F0901218E06E
:10691B003395E0FE74382FF58274103EF583E0FD5D
:10692B007B077F0312618D7BFF7A7679027F0112E1
:10693B006FF5539AFEE59A30E031539AFEE59BB41E
:10694B005929900978E0FBA3E0FAA3E0F91242BEC3
:10695B00FF901218E0FD3395E0FC74192DF582744D
:10696B00123CF583E04F1243048018901127E47515
:10697B00F00112434AFEE5F0B420BAEEB44EB680F5
:0D698B000280B2901218E004F00268F922B8
:1070E600900978EFF0E4901218F0901218E0FF3350
:1070F60095E0FEC3EF9408EE648094805047E03339
:1071060095E0FE74192FF58274123EF583E0FF9028
:107116000978E05F6027901218E0FF3395E0FE746F
:10712600382FF58274103EF583E0FD7B077F03124E
:10713600618D7BFF7A7679077F01126FF5901218C1
:06714600E004F080A52228
:08723F00411228004112270052
:10745700E4FDFC438E805389F0758ACD758CD4C2C8
:107467008DD2A9D28C901227E064027006F00DED40
:0F74770070010CEDB507EEECB506EAC28CC2A9A8
:0174860022E3
:10750C00E4901227F0438E805389F0758A91758C24
:10751C00FFC28DD2A9D28C901227E0640170F8C200
:05752C008CC2A9F02251
:03000B000275B6C5
:1075B600C0E0C083C082901227E004F0D082D0835E
:0375C600D0E032E0
:1072B700494E495400696E697400496E69740053F8
:1072C7005441525400537461727400737461727440
:1072D7000052756E4D6F64650053544F50005374E0
:1072E7006F700073746F70004E65787453746172B9
:0272F700740021
:10733B0043BA8090FE0374C0F090FE03E030E0F996
:10734B0090FE01E4F090FE0004F0E4F5BA75F8FF4E
:10735B00C214C215C213D288D28AC2A8C2AAD2AF93
:10736B0075CCFFF5CB75E2FFF5E14392025391FD2E
:01737B0022EF
:1074B700E4FFFEFDFCC3EF9498EE64809483501DB7
:1074C700E4FCFDC3ED94C8EC648094805008000D83
:0D74D700ED70010C80ED0FEF70010E80D8FC
:0174E4002285
:0300030002758CF7
:10758C00C0E0C0D075D018C2A81274B730B2FAD20D
:06759C0014D0D0D0E03253
:030023000253B0D5
:0D53B000C0E0C0F0C083C082C0D075D0182E
:1053BD00E4FFC2AC3098FDC298EFFD3395E0FC746C
:1053CD00412DF58274103CF583E599F0EF3395E0AE
:1053DD00FC74412DF58274103CF583E0644060034C
:1053ED000F80D17B017A107941900A8974FFF0A367
:1053FD007472F0A374B7F012681CEB8A8389827BF8
:10540D00007A0079007006E5827002E58370587BA2
:10541D00017A107941900A8974FFF0A37472F0A398
:10542D0074BCF012681CEB8A8389827B007A007948
:10543D00007006E5827002E583702C7B017A10798D
:10544D0041900A8974FFF0A37472F0A374C1F01235
:10545D00681CEB8A8389827B007A0079007006E5EF
:10546D00827002E5836002D2157B017A107941903A
:10547D000A8974FFF0A37472F0A374C6F012681C4D
:10548D00EB8A8389827B007A0079007006E5827051
:10549D0002E58370587B017A107941900A8974FF77
:1054AD00F0A37472F0A374CCF012681CEB8A83899C
:1054BD00827B007A0079007006E5827002E58370C8
:1054CD002C7B017A107941900A8974FFF0A37472D4
:1054DD00F0A374D2F012681CEB8A8389827B007A68
:1054ED000079007006E5827002E5836002D2147BBC
:1054FD00017A107941900A8974FFF0A37472F0A3B8
:10550D0074D8F012681CEB8A8389827B007A00794B
:10551D00007006E5827002E5836002D2137B017A8A
:10552D00107941900A8974FFF0A37472F0A374E0AE
:10553D00F012681CEB8A8389827B007A00790070F7
:10554D0006E5827002E58370587B017A10794190EF
:10555D000A8974FFF0A37472F0A374E5F012681C4D
:10556D00EB8A8389827B007A0079007006E5827070
:10557D0002E583702C7B017A107941900A8974FFC2
:10558D00F0A37472F0A374EAF012681CEB8A83899D
:10559D00827B007A0079007006E5827002E58360F7
:1055AD000343C7207B017A107941900A8974FFF07B
:1055BD00A37472F0A374EFF012681CEB8A838982D6
:1055CD007B007A0079007006E5827002E583600346
:0355DD0043C720A1
:0B55E000D0D0D082D083D0F0D0E032D9
:10755400D2A67F027E00127457C2A67F057E001257
:0C7564007457D2A67F027E0012745722DA
:10757000D2A77F027E00127457C2A77F057E001239
:0C7580007457D2A77F027E0012745722BD
:10278D0053797374656D20496E69742E2E2E0D0A62
:10279D00000D0A0950726F6772616D205665727374
:1027AD00696F6E2056312E362E312E2E2E0D0A00CB
:1027BD000D0A506C656173652053656E6420436F1F
:1027CD006D6D6164203A20537461727420446562AA
:1027DD0075672F4E6F726D616C20526561642F5459
:1027ED0072696D2054656D70657261747572655096
:1027FD006F696E7473400D0A000D0A54656D706536
:10280D00726174757265506F696E7473203A204FE2
:10281D006E652C54687265652C5369782C54656E01
:10282D002C456C6576656E0D0A000D0A41646420B9
:10283D002744656661756C74272063616E20736B28
:10284D00697020696E7075742050743130300D0AC6
:10285D00000D0A44656661756C74203A20544F3939
:10286D00322D332E33562C50543130302C312C32F6
:10287D002C332C342C352C362C372C38400D0A0D9E
:10288D000A0044454255470064656275670044651A
:10289D0062756700202044656275675F0044656658
:1028AD0061756C740044454641554C540064656631
:1028BD0061756C740020204E6F726D616C204465E3
:1028CD006661756C745F0020204E6F726D616C5F78
:1028DD0000726561640052656164005245414400B7
:1028ED00526561642020007472696D005472696DC7
:1028FD00005452494D005472696D2020004F6E6591
:10290D0000312054656D7065726174757265506F1C
:10291D00696E740D0A0D0A005468726565003320E6
:10292D0054656D7065726174757265506F696E7402
:10293D000D0A0D0A0053697800362054656D7065D7
:10294D00726174757265506F696E740D0A0D0A00AF
:10295D0054656E0031302054656D7065726174750B
:10296D007265506F696E740D0A0D0A00456C6576BF
:10297D00656E0031312054656D70657261747572CC
:10298D0065506F696E740D0A0D0A000D0A506C6565
:10299D0061736520696E707574205472696D6D690F
:1029AD006E6720446174612045473A205665727305
:1029BD00696F6E20235642452C526F746174696F96
:1029CD006E20202F2F56657273696F6E3A2042204C
:1029DD006F722043400D0A0056657273696F6E2049
:1029ED0042207C20526F746174696F6E2056616C49
:1029FD007565733A203020746F2031350D0A0056FD
:102A0D00657273696F6E2043207C20526F74617400
:102A1D00696F6E2056616C7565733A203020746F46
:102A2D0020372020205642452056616C7565733A3B
:102A3D00203020746F203235340D0A000D0A546891
:102A4D00657265206973206E6F20746573742062E2
:102A5D006F61726420696E2074686520637572728F
:102A6D00656E742073797374656D2E20506C65617D
:102A7D00736520636865636B207468617420746886
:102A8D0065207465737420626F61726420697320B0
:102A9D00706C756767656420696E2C20616E6420AB
:102AAD007468656E207475726E206F6E2074686523
:102ABD0020706F77657220616761696E2121210039
:102ACD004F4B2E0D0A43757272656E7420537973D8
:102ADD0074656D20426F617264203A200D0A0D0AF3
:102AED0000092B3D3D3D3D3D3D3D3D3D2B3D3D3D9E
:102AFD003D3D3D3D3D3D2B3D3D3D3D3D3D3D3D3D0B
:102B0D002B3D3D3D3D3D3D3D3D3D2B3D3D3D3D3D0C
:102B1D003D3D3D3D2B3D3D3D3D3D3D3D3D3D2B3DFC
:102B2D003D3D3D3D3D3D3D3D2B3D3D3D3D3D3D3DDA
:102B3D003D3D2B0D0A00097C20426F6172642D31E1
:102B4D00207C20426F6172642D32207C20426F61A7
:102B5D0072642D33207C20426F6172642D34207C91
:102B6D0020426F6172642D35207C20426F6172644A
:102B7D002D36207C20426F6172642D37207C2042DF
:102B8D006F6172642D38207C0D0A00097C002020B5
:102B9D00205965732020207C002020204E2F4120BD
:102BAD0020207C000D0A000D0A53797374656D2089
:102BBD00496E697420656E642E0D0A00506C656156
:102BCD00736520656E74657220746865205061634D
:102BDD006B6167652054797065206F662074686538
:102BED0020313842323020616E6420746865207661
:102BFD006F6C74616765206F66207468652056631D
:102C0D00632050696E0D0A416E6420656E746572A5
:102C1D0020746865205B25645D205054313030731D
:102C2D0028313C3D204E756D626572203C3D203350
:102C3D003229207573656420696E20746865207370
:102C4D00797374656D20696E206F72646572284E9C
:102C5D006F726D616C45673A20544F39322D332EAA
:102C6D0033562C50543130302C312C342C372C38E9
:102C7D0040206F7220446562756745673A20544F56
:102C8D0039322D332E33562C40293A0D0A000D0AB8
:102C9D005061636B6167652054797065204F7220B8
:102CAD00566F6C746167652056616C75652069732C
:102CBD002057726F6E6721212120506C65617365FD
:102CCD002072652D656E7465722021212100456E7F
:102CDD0074657220746865206E756D626572206F03
:102CED006620505431303020617265206E6F742033
:102CFD00636F72726563742E546865207379737493
:102D0D00656D2061637475616C6C79206E656564A9
:102D1D00732025642050543130307320616E64204F
:102D2D007468652061637475616C20696E7075746B
:102D3D002050543130302873292069732025642E9A
:102D4D0020506C656173652072652D656E746572BA
:102D5D002021212100546865206E756D62657220F9
:102D6D006F662074686520696E70757420505431DB
:102D7D003030206973206475706C69636174652CE3
:102D8D0020706C656173652072652D656E7465725A
:102D9D0020212121200D0A004973756D203D20252C
:102DAD00662041000D0A205468652044555420705A
:102DBD006F77657220737570706C792063757272A0
:102DCD00656E74206973206F766572207468652056
:102DDD006C696D69742C20706C6561736520636816
:102DED0065636B20746F20736565206966205B4495
:102DFD0055545D2069732073686F72742D63697209
:102E0D0063756974656420212121616E6420746885
:102E1D00656E20706F776572206974206261636BD7
:102E2D00206F6E0D0A000D0A56636328562909544A
:102E3D00612843656C73697573290900252E336408
:102E4D00090050543130302D252E3264090049636C
:102E5D00635F73756D2841290D0A0D0A000D0A5423
:102E6D0072696D6D696E67205374617274202E2EB8
:102E7D002E2E2E2E0D0A000D0A0D0A0953657420F3
:102E8D006368616D62657227732074656D7065721C
:102E9D00617475726520746F20252E32662043652E
:102EAD006C736975732E0D0A000D0A09095663635B
:102EBD00203D20252E326620560D0A000909577235
:102ECD006974652064617461203A20000D0A0D0A51
:102EDD0000090900546865206E756D626572206F7A
:102EED006620636F6E7365637574697665206572B0
:102EFD00726F72732072656365697665642062799D
:102F0D002074686520584A59206861732072656184
:102F1D00636865642031302074696D65732E2050AF
:102F2D006C6561736520636865636B20746861749B
:102F3D002074686520584A5920686173206661695C
:102F4D006C65642121210D0A09616E642074686528
:102F5D006E20706F776572206974206261636B20DB
:102F6D006F6E2E0D0A0025660D0A000D0A09313807
:102F7D004232302054656D706572617475726520D2
:102F8D00417665726167652056616C7565203A0DF5
:102F9D000A0909000D0A43616C204F66667365745A
:102FAD002064617461203A200909000D0A5265619F
:102FBD0064205642452064617461203A200909005D
:102FCD000D0A52656164204F6666736574206461F5
:102FDD007461203A200909000D0A526F74617469F9
:102FED006F6E2056616C756573203A200909000DCE
:102FFD000A09090009090909002566000D0A095485
:10300D004331384232302054656D7065726174758C
:10301D00726520417665726167652056616C7565D4
:10302D00203A0D0A0909000D0A0D0A252E326609EE
:10303D00252E326609000D0A5472696D696E67207E
:10304D0050726F636573732066696E69736865642A
:10305D000D0A000D0A2054656D70657261747572EC
:10306D0065206D6561737572656D656E7420617433
:10307D002066756C6C20766F6C7461676520696E67
:10308D002066756C6C2074656D70657261747572F7
:10309D00652061726561207374617274202E2E2E0D
:1030AD002E2E2E0D0A000D0A0954433138423230AE
:1030BD00202620584A592054656D706572617475CB
:1030CD00726520417665726167652056616C756524
:1030DD00203A0D0A0909004661696C0900506173B7
:1030ED007309000D0A46696E616C20526573756C2B
:1030FD00743A0909000D0A313842323020526561A7
:10310D0064696E672054656D706572617475726562
:10311D002050726F636573732066696E697368659D
:10312D00642C53656E64205B4E65787453746172C4
:10313D0074405D20616761696E20666F72206E65F7
:10314D007874207374617274696E67202E2E2E0D43
:10315D000A0041A0000042AA0000C25C0000C2208B
:10316D000000C1C80000C12000000000000041C8DF
:10317D0000004248000042AA000042C8000042FA86
:10318D0000004009999A4009999A4009999A3F2659
:10319D0066663F2666663F2666663F2666663F265E
:1031AD0066664009999A4009999ABFECCCCDBFEC5F
:1031BD00CCCDBFECCCCDBEB33333BEB33333BEB306
:1031CD003333BEB33333BEB33333BFECCCCDBFECEF
:1031DD00CCCDC25C0000C120000041C8000042708F
:1031ED00000042AA000042FA0000400000003F002B
:1031FD0000003F0000003F0000003F0000004000C5
:10320D000000C0000000BF000000BF000000BF00B4
:10321D000000BF000000C0000000C120000041C838
:10322D00000042AA00003F0000003F0000003F00E8
:10323D000000BF000000BF000000BF00000041C83B
:10324D0000003F000000BF000000C25C0000C22073
:10325D000000C1F00000C12000004120000041C865
:10326D000000423400004270000042AA000042C833
:10327D00000042FA00004000000040000000400045
:10328D0000003F0000003F0000003F0000003F0035
:10329D0000003F0000003F00000040000000400023
:1032AD000000C0000000C0000000C0000000BF0012
:1032BD000000BF000000BF000000BF000000BF0005
:0E32CD000000BF000000C0000000C0000000B4
:1072470048112900010203040506074C1195404027
:107257000000405333334066666641119200411186
:067267003100C197C19641
:100026009000397430F0C2049009741244DD000067
:10003600000012733B7FA07E0F1274577BFF7A2756
:10004600798D1275317BFF7A27799E1275317BFF88
:100056007A2779BD1275317BFF7A287906127531B8
:100066007BFF7A2879371275317BFF7A28795E1201
:100076007531D2A8D2AC3014FD7B017A107941904B
:100086000A8974FFF0A37428F0A3748FF012681C19
:10009600EB8A8389827B007A0079007006E582709C
:1000A60002E58370587B017A107941900A8974FFC2
:1000B600F0A37428F0A37495F012681CEB8A838968
:1000C600827B007A0079007006E5827002E5837013
:1000D6002C7B017A107941900A8974FFF0A3742869
:1000E600F0A3749BF012681CEB8A8389827B007AEA
:1000F6000079007006E5827002E583600EC2037B1C
:10010600FF7A2879A11275310201E8D2037B017AC0
:10011600107941900A8974FFF0A37428F0A374AA99
:10012600F012681CEB8A8389827B007A0079007062
:1001360006E5827002E58370587B017A107941905A
:100146000A8974FFF0A37428F0A374B2F012681C35
:10015600EB8A8389827B007A0079007006E58270DB
:1001660002E583702C7B017A107941900A8974FF2D
:10017600F0A37428F0A374BAF012681CEB8A838982
:10018600827B007A0079007006E5827002E5836062
:1001960048D204E4901190F0901190E0C394087452
:1001A6008094805023E02429F582E43411F583E01D
:1001B600FF901190E02415F582E43400F583EFF00A
:1001C600901190E004F080D09000117408F07BFF4D
:1001D6007A2879C212753180097BFF7A2879D41280
:1001E60075317B017A107941900A8974FFF0A37406
:1001F60028F0A374DEF012681CEB8A8389827B00E8
:100206007A0079007006E5827002E58370587B01FA
:100216007A107941900A8974FFF0A37428F0A374C8
:10022600E3F012681CEB8A8389827B007A007900EE
:100236007006E5827002E583702C7B017A107941A5
:10024600900A8974FFF0A37428F0A374E8F012688A
:100256001CEB8A8389827B007A0079007006E5822E
:100266007002E5836013E49001BBF090000FE0F0AC
:100276007BFF7A2879ED12753120030302031F7B79
:10028600017A107941900A8974FFF0A37428F0A3CB
:1002960074F4F012681CEB8A8389827B007A0079F9
:1002A600007006E5827002E58370587B017A10794A
:1002B60041900A8974FFF0A37428F0A374F9F01230
:1002C600681CEB8A8389827B007A0079007006E5D8
:1002D600827002E583702C7B017A107941900A893D
:1002E60074FFF0A37428F0A374FEF012681CEB8A66
:1002F6008389827B007A0079007006E5827002E5C8
:100306008360169001BB7408F090000FE04408F07B
:100316007BFF7A2979031275317B017A1079419036
:100326000A8974FFF0A37429F0A3740AF012681CFA
:10033600EB8A8389827B007A0079007006E58270F9
:1003460002E583601290118F7401F07BFF7A2979A0
:100356000E1275310204507B017A107941900A8998
:1003660074FFF0A37429F0A37425F012681CEB8ABD
:100376008389827B007A0079007006E5827002E547
:1003860083601290118F7403F07BFF7A29792B1208
:1003960075310204507B017A107941900A8974FF05
:1003A600F0A37429F0A37442F012681CEB8A8389C7
:1003B600827B007A0079007006E5827002E5836030
:1003C6001190118F7406F07BFF7A297946127531E8
:1003D60080787B017A107941900A8974FFF0A374C2
:1003E60029F0A3745DF012681CEB8A8389827B0076
:1003F6007A0079007006E5827002E583601190113B
:100406008F740AF07BFF7A297961127531803B7B04
:10041600017A107941900A8974FFF0A37429F0A338
:100426007479F012681CEB8A8389827B007A0079E2
:10043600007006E5827002E583600F90118F740BE1
:10044600F07BFF7A297980127531E4901193F09050
:10045600118FE0FF901193E0C39F40030206FA90CC
:10046600118FE06401707B901193E025E025E02474
:100476004BF582E43432F5831244C1901193E025A2
:10048600E025E024A1F582E43411F5831244D190ED
:100496001193E025E025E0244FF582E43432F5831C
:1004A6001244C1901193E025E025E0245EF582E434
:1004B6003411F5831244D1901193E025E025E02410
:1004C60053F582E43432F5831244C1901193E0254A
:1004D600E025E02432F582E43411F5831244D1029A
:1004E60006F190118FE06403707B901193E025E094
:1004F60025E02427F582E43432F5831244C19011B5
:1005060093E025E025E024A1F582E43411F5831279
:1005160044D1901193E025E025E02433F582E434BC
:1005260032F5831244C1901193E025E025E0245E64
:10053600F582E43411F5831244D1901193E025E05D
:1005460025E0243FF582E43432F5831244C190114C
:1005560093E025E025E02432F582E43411F5831298
:1005660044D10206F190118FE06406707B901193DE
:10057600E025E025E024DFF582E43431F5831244FA
:10058600C1901193E025E025E024A1F582E4341121
:10059600F5831244D1901193E025E025E024F7F588
:1005A60082E43431F5831244C1901193E025E025AD
:1005B600E0245EF582E43411F5831244D190119360
:1005C600E025E025E0240FF582E43432F583124479
:1005D600C1901193E025E025E02432F582E4341140
:1005E600F5831244D10206F190118FE0640A707B04
:1005F600901193E025E025E02467F582E43431F597
:10060600831244C1901193E025E025E024A1F582F0
:10061600E43411F5831244D1901193E025E025E0EE
:10062600248FF582E43431F5831244C1901193E0AE
:1006360025E025E0245EF582E43411F5831244D1E9
:10064600901193E025E025E024B7F582E43431F5F6
:10065600831244C1901193E025E025E02432F5820F
:10066600E43411F5831244D10206F190118FE0644F
:100676000B7078901193E025E025E02457F582E48D
:100686003432F5831244C1901193E025E025E0242D
:10069600A1F582E43411F5831244D1901193E0253B
:1006A600E025E02483F582E43432F5831244C190D8
:1006B6001193E025E025E0245EF582E43411F5830C
:1006C6001244D1901193E025E025E024AFF582E4B1
:1006D6003432F5831244C1901193E025E025E024DD
:1006E60032F582E43411F5831244D1901193E0047B
:1006F600F00204559001BBE0FF3395E0FEEF64087D
:100706004E701E7BFF7A2979981275317BFF7A2904
:1007160079E51275317BFF7A2A790C1275311255FB
:10072600EB7F007E007D007C0012714C12761BD29E
:10073600153015FDC2157F647E001274577FFF12B7
:1007460071AE7FD07E071274577B017A00790C1246
:1007560068DB90000CE0FF3395E0FEEF4E700F1261
:10076600761B7BFF7A2A79491275310200787BFF66
:100776007A2A79CD1275317BFF7A2A79EE12753194
:100786007BFF7A2B79431275317BFF7A2A79EE1239
:1007960075317BFF7A2B7998127531E4900010F051
:1007A60090000DF090000DE0FF3395E0FEC3EF944E
:1007B60008EE64809480503BE03395E0FE74192F78
:1007C600F58274123EF583E0FF90000CE05F601244
:1007D6007BFF7A2B799B127531900010E02404F090
:1007E60080097BFF7A2B79A612753190000DE00403
:1007F600F080B17BFF7A2B79B11275317BFF7A2AB3
:1008060079EE12753190000CE0FF1271AE7BFF7A23
:100816002B79B4127531200303020AA230040302B5
:100826000A697BFF7A2B79C91275317B017A0079C7
:100836000FC00390097BEBF0A37400F0A37415F0CE
:10084600D003124A977B017A1079411275317BFFEA
:100856007A2B79B11275317E007FC87D007B017AD3
:1008660010794112457AC200C20190000FE0540788
:10087600FF3395E0FEEF64074E700ED20090096CD0
:100886001244DD3ECCCCCD803C90000FE05407FFF7
:100896003395E0FEEF64054E700ED20090096C129F
:1008A60044DD3ECCCCCD801D90000FE05407FF33D5
:1008B60095E0FEEF64064E700CD20090096C12446F
:1008C600DD3ECCCCCD90000FE054F0FF3395E0FE3A
:1008D600EF64704E702CD2019009701244DD4053C3
:1008E60033339011951244DD402CCCCD90119912E2
:1008F60044DD4053333390119D1244DD40B0000077
:10090600803B90000FE054F0FF3395E0FEEF64600B
:100916004E702AD2019009701244DD40A00000906A
:1009260011951244DD409800009011991244DD4063
:10093600A0000090119D1244DD40A8000030000385
:1009460020010C7BFF7A2C799B127531020831D27B
:1009560002200303020AA2E4900011F0A3F0900023
:1009660012E0FF3395E0FEC3EF9420EE648094809E
:10097600502EE03395E0FE74152FF58274003EF597
:1009860083E0FF3395E0FEC3EF9421EE648094800C
:100996005006900011E004F0900012E004F080BED2
:1009A600900010E0FFA3E06F60407B017A10794170
:1009B6009009B174FFF0A3742CF0A374DBF09000DF
:1009C60010E03395E09009B4F0A3EFF0900011E049
:1009D600FE3395E09009B6F0A3CEF01246797B017E
:1009E6007A107941127531020831E4900013F090C3
:1009F6000010E014FF900013E0FEC3EF6480F8EEF1
:100A0600648098504CE004FF900010E0C36480F8C6
:100A1600EF6480985030EFFD3395E0FC74152DF5AA
:100A26008274003CF583E0FE900013E0FD3395E010
:100A3600FC74152DF58274003CF583E0B50604C2FE
:100A46000280030F80C2300208900013E004F08099
:100A56009E2002487BFF7A2D796212753102083199
:100A660002083190096C1244DD3ECCCCCD90097061
:100A76001244DD4053333390000FE04477F0901179
:100A8600951244DD402CCCCD9011991244DD405393
:100A9600333390119D1244DD40B000007E007FC8C4
:100AA6007D007B017A10794112457AD2A8D2AC300A
:100AB60014FDC21490000CE0FF90000FE0540FFDEF
:100AC600126D167F887E131274579001BBE0FF33B8
:100AD60095E0FEEF64084E700E90000CE0FF7B017F
:100AE6007A1179CD126057900970E0FCA3E0FDA35E
:100AF600E0FEA3E0FF12714C7F647E001274577B08
:100B0600017A0979747D037F0112580B7F007E00FC
:100B16007D007C0012714C7B017A1079419009B1FD
:100B260074FFF0A3742DF0A374A5F0900974E0FC93
:100B3600A3E0FDA3E0FEA3E0FF9009B41244D112A6
:100B460046797B017A107941127531E4FFFEFD7C0E
:100B560040900974E0F8A3E0F9A3E0FAA3E0FB12E1
:100B66003FA1600D400B7BFF7A2D79B11275318064
:100B7600FE7BFF7A2E7933127531E490000DF090EA
:100B8600000DE0FF3395E0FEC3EF9408EE64809419
:100B9600804003020C22E03395E0FE74192FF582A3
:100BA60074123EF583E0FF90000CE05F60659000F4
:100BB6000E7401F090000EE0FF3395E0FEC3EF9453
:100BC60031EE64809480504B7B017A107941900914
:100BD600B174FFF0A3742EF0A37449F090000DE0F9
:100BE600FF3395E0FE7C007D30124338A3E0FD33F1
:100BF60095E0FCEF2DFFEE3C9009B4F0A3EFF01268
:100C060046797B017A10794112753190000EE00425
:100C1600F080A190000DE004F0020B85300368E43B
:100C2600900012F0900010E0FF900012E0FEC3EF7B
:100C36006480F8EE648098504E7B017A107941907A
:100C460009B174FFF0A3742EF0A3744FF090001254
:100C5600E0FF3395E0FE74152FF58274003EF583B0
:100C6600E0FF3395E0FEEF2401FFE43E9009B4F087
:100C7600A3EFF01246797B017A1079411275319013
:100C86000012E004F0809D7BFF7A2E795B127531AD
:100C96007FE87E031274577FE87E03127457900133
:100CA600BBE0FF3395E0FEEF64084E6003021B9243
:100CB6007BFF7A2E796A1275312016607B017A10D5
:100CC60079419009B174FFF0A3742EF0A37484F0F7
:100CD600A31244DD41C800001246797B017A1079DF
:100CE6004112753190097A1244DD41C80000E4FDD5
:100CF600FF125D76E4900013F0900013E0FF339549
:100D0600E0FEC3EF943CEE64809480500F7F307E0B
:100D160075127457900013E004F080DD7FB87E0BE7
:100D2600127457900970E0FCA3E0FDA3E0FEA3E077
:100D3600FF12714C7B017A1079419009B174FFF072
:100D4600A3742EF0A374B6F0900970E0FCA3E0FD46
:100D5600A3E0FEA3E0FF9009B41244D11246797BCA
:100D6600017A107941127531E4900012F090001268
:100D7600E0FF3395E0FEC3EF9420EE64809480504C
:100D860027E03395E0FEEF7802C333CE33CED8F9B1
:100D960024BCF58274013EF5831244DD0000000098
:100DA600900012E004F080C5E490000DF090000D74
:100DB600E0FF3395E0FEC3EF9408EE648094805024
:100DC60064E4A3F090000EE0FF3395E0FEC3EF94D9
:100DD60030EE648094805045E03395E0FEEF780273
:100DE600C333CE33CED8F9FF90000DE0FD3395E046
:100DF600FC9002FC75F0C0ED124528EC75F0C0A41D
:100E06002583F583E5822FF582E5833EF58312443B
:100E1600DD0000000090000EE004F080A790000DB9
:100E2600E004F080887FB87E0B1274577BFF7A2E21
:100E360079C91275317B017A1179CD7D027C001258
:100E460073F07BFF7A2E79D91275311275549000A2
:100E56000CE0FF126F78E4900036F0900036E0FF69
:100E66003395E0FEC3EF940AEE648094804003025B
:100E760011797BFF7A2E79DE1275317B017A0F7933
:100E8600B8124E72EF7003020F27E4900012F09032
:100E96000012E0FF3395E0FEC3EF9420EE648094E9
:100EA600804003020F43E03395E0FEEF7802C33340
:100EB600CE33CED8F924BCF58274013EF583C083C7
:100EC600C082E0F8A3E0F9A3E0FAA3E0FBC000C00B
:100ED60001C002C003900012E0FF3395E0FEEF78F8
:100EE60002C333CE33CED8F924B8F582740F3EF55B
:100EF60083E0FCA3E0FDA3E0FEA3E0FFE4FBFA79B8
:100F0600207841123F04D003D002D001D000123D18
:100F16000AD082D0831244D1900012E004F0020E6F
:100F260095E4FDFF12647E7F007E007D007C00124A
:100F3600714C7BFF7A2E79E112753180FE12757045
:100F46007F647E001274577B017A0979747D037F72
:100F56000112580BE490000DF090000DE0FF339560
:100F6600E0FEC3EF9408EE6480948040030210EE26
:100F7600E03395E0FE74192FF58274123EF583E096
:100F8600FF90000CE05F70030210E57E007FC87DD5
:100F9600007B017A10794112457A90000DE0FF330B
:100FA60095E0FE74192FF58274123EF583E0FF90EA
:100FB600000CE05FFF7B017A09790C125BC7E490B5
:100FC600000EF0900039E0FF90000EE0FEC3EF64E3
:100FD60080F8EE64809840030210D7E0FF3395E076
:100FE600FEEF25E0FFEE33FE740C2FF58274093E0A
:100FF600F583E0FCA3E0FDEC124030E4FBFA7980D7
:101006007841123F04C004C005C006C00790000E18
:10101600E0FF3395E0FEEF7802C333CE33CED8F946
:10102600243CF58274023EF583D007D006D005D065
:10103600041244D190000EE0FF3395E0FEEF7802F3
:10104600C333CE33CED8F9FF90000DE0FD3395E0E3
:10105600FC9002FC75F0C0ED124528EC75F0C0A4BA
:101066002583F583E5822FF582E5833EF583C083EC
:10107600C082E0F8A3E0F9A3E0FAA3E0FBC000C059
:1010860001C002C00390000EE0FF3395E0FEEF784A
:1010960002C333CE33CED8F9243CF58274023EF532
:1010A60083E0FCA3E0FDA3E0FEA3E0FFE4FBFA7906
:1010B600207841123F04D003D002D001D000123D67
:1010C6000AD082D0831244D190000EE004F0020FC1
:1010D600C97B017A02793C900039E0FD12742690B2
:1010E600000DE004F0020F5FE4900012F090001192
:1010F600E0FFA3E0FEC3EF6480F8EE64809850360C
:10110600E0FF3395E0FE74152FF58274003EF583FB
:10111600E0FF3395E0FEEF7802C333CE33CED8F945
:1011260024B8F9740F3EFA7B017D011274269000F3
:1011360012E004F080B77B017A1079419009B1740E
:10114600FFF0A3742FF0A37473F0900974E0FCA36E
:10115600E0FDA3E0FEA3E0FF9009B41244D11246DD
:10116600797B017A107941127531900036E004F0EE
:10117600020E617BFF7A2F7978127531E490000DAB
:10118600F090000DE0FF3395E0FEC3EF9408EE64A7
:101196008094805040E03395E0FE74192FF58274F8
:1011A600123EF583E0FF90000CE05F6020A3E0FFB5
:1011B6003395E0FE7C007DC012433874FC2FF97431
:1011C600023EFA7B01900039E0FD12742690000D74
:1011D600E004F080ACE4900012F0900011E0FFA370
:1011E600E0FEC3EF6480F8EE6480985036E0FF338B
:1011F60095E0FE74152FF58274003EF583E0FF330B
:1012060095E0FEEF7802C333CE33CED8F924BCF98D
:1012160074013EFA7B017D01127426900012E004EF
:10122600F080B77BFF7A2E79D91275317F0A7E005E
:10123600127457E4900038F090000DF090000DE025
:10124600FF3395E0FEC3EF9408EE6480948040037C
:1012560002134A7E007FC87D007B017A1079411215
:10126600457A90000DE0FF3395E0FE74192FF58264
:1012760074123EF583E0FF90000CE05F70030213EA
:1012860041900038E004F0E4900037F0900037E039
:10129600FF3395E0FEC3EF9404EE648094805077AC
:1012A600E0A3E075F004A42FF582E435F0F583E5BC
:1012B600822411F582E5833400F583E0FF3395E05F
:1012C600FEEF7802C333CE33CED8F924BCF5827450
:1012D600013EF583E0FCA3E0FDA3E0FEA3E0FFC032
:1012E60004C005C006C007900037E0FF3395E0FE56
:1012F600EF7802C333CE33CED8F924FCF5827408D6
:101306003EF583D007D006D005D0041244D1900014
:1013160037E004F002129290000DE0FF3395E0FEF4
:1013260074192FF58274123EF583E0FF90000CE0ED
:101336005FFF7B017A0879FC12657090000DE0046E
:10134600F00212427FB87E0B1274577BFF7A2F7918
:10135600A1127531E490000DF090000DE0FF339579
:10136600E0FEC3EF9408EE648094805065E0339508
:10137600E0FE74192FF58274123EF583E0FF9000AB
:101386000CE05F60457E007FC87D007B017A1079A6
:101396004112457A90000DE0FF3395E0FE74192F57
:1013A600F58274123EF583E0FF90000CE05FFF7B50
:1013B600017A09790C125BC77B017A09790C9000D6
:1013C60039E0FD3395E0FC1273F090000DE004F077
:1013D600808790000FE054F0FF3395E0FEEF6460E5
:1013E6004E600B7F007E007DA07C4012714C7FB862
:1013F6007E0B1274571275547F647E001274571256
:10140600757090000CE0FF126F787BFF7A2F79B829
:10141600127531E490000DF090000DE0FF3395E079
:10142600FEC3EF9408EE648094805065E03395E047
:10143600FE74192FF58274123EF583E0FF90000CBE
:10144600E05F60457E007FC87D007B017A107941B0
:1014560012457A90000DE0FF3395E0FE74192FF5E2
:101466008274123EF583E0FF90000CE05FFF7B0183
:101476007A09790C125BC77B017A09790C900039DD
:10148600E0FD3395E0FC1273F090000DE004F0806F
:10149600877BFF7A2F79CD127531E490000DF0909D
:1014A600000DE0FF3395E0FEC3EF9408EE648094F0
:1014B600805065E03395E0FE74192FF58274123E74
:1014C600F583E0FF90000CE05F60457E007FC87DFD
:1014D600007B017A10794112457A90000DE0FF33C6
:1014E60095E0FE74192FF58274123EF583E0FF90A5
:1014F600000CE05FFF7B017A09790C125BC77B0168
:101506007A09790C900039E0FD3395E0FC1273F00E
:1015160090000DE004F080877BFF7A2F79E5127545
:1015260031E490000DF090000DE0FF3395E0FEC32E
:10153600EF9408EE648094805065E03395E0FE7485
:10154600192FF58274123EF583E0FF90000CE05FE0
:1015560060457E007FC87D007B017A107941124587
:101566007A90000DE0FF3395E0FE74192FF5827432
:10157600123EF583E0FF90000CE05FFF7B017A09E5
:10158600790C125BC77B017A09790C900039E0FD72
:101596003395E0FC1273F090000DE004F080877F35
:1015A600E87E03127457E4900012F0900012E0FFF8
:1015B6003395E0FEC3EF9420EE648094805027E0DC
:1015C6003395E0FEEF7802C333CE33CED8F924BC90
:1015D600F58274013EF5831244DD000000009000A0
:1015E60012E004F080C5E490000DF090000DE0FFDD
:1015F6003395E0FEC3EF9408EE648094805064E473
:10160600A3F090000EE0FF3395E0FEC3EF9430EEBA
:10161600648094805045E03395E0FEEF7802C33352
:10162600CE33CED8F9FF90000DE0FD3395E0FC9067
:1016360002FC75F0C0ED124528EC75F0C0A42583B8
:10164600F583E5822FF582E5833EF5831244DD00BE
:1016560000000090000EE004F080A790000DE0046A
:10166600F08088E4900036F0900036E0FF3395E095
:10167600FEC3EF940AEE6480948040030219477B10
:10168600FF7A2F79FC1275312003030217567B016E
:101696007A0F79B8124E72EF700302173AE490008F
:1016A60012F0900012E0FF3395E0FEC3EF9420EEB7
:1016B600648094804003021756E03395E0FEEF788D
:1016C60002C333CE33CED8F924BCF58274013EF57D
:1016D60083C083C082E0F8A3E0F9A3E0FAA3E0FBAD
:1016E600C000C001C002C003900012E0FF3395E0C5
:1016F600FEEF7802C333CE33CED8F924B8F5827420
:101706000F3EF583E0FCA3E0FDA3E0FEA3E0FFE4CB
:10171600FBFA79207841123F04D003D002D001D0E1
:1017260000123D0AD082D0831244D1900012E00408
:10173600F00216A8E4FDFF12647E7F007E007D00A5
:101746007C0012714C7BFF7A2E79E112753180FE96
:101756001275707F647E001274577B017A09797462
:101766007D037F0112580BE490000DF090000DE010
:10177600FF3395E0FEC3EF9408EE64809480400347
:10178600021901E03395E0FE74192FF58274123EBA
:10179600F583E0FF90000CE05F70030218F87E000E
:1017A6007FC87D007B017A10794112457A90000D41
:1017B600E0FF3395E0FE74192FF58274123EF5832F
:1017C600E0FF90000CE05FFF7B017A09790C125B69
:1017D600C7E490000EF0900039E0FF90000EE0FEA6
:1017E600C3EF6480F8EE64809840030218EAE0FFD5
:1017F6003395E0FEEF25E0FFEE33FE740C2FF58205
:1018060074093EF583E0FCA3E0FDEC124030E4FBF6
:10181600FA79807841123F04C004C005C006C007AB
:1018260090000EE0FF3395E0FEEF7802C333CE332F
:10183600CED8F9243CF58274023EF583D007D00653
:10184600D005D0041244D190000EE0FF3395E0FE9F
:10185600EF7802C333CE33CED8F9FF90000DE0FD0A
:101866003395E0FC9002FC75F0C0ED124528EC754E
:10187600F0C0A42583F583E5822FF582E5833EF546
:1018860083C083C082E0F8A3E0F9A3E0FAA3E0FBFB
:10189600C000C001C002C00390000EE0FF3395E017
:1018A600FEEF7802C333CE33CED8F9243CF58274EA
:1018B600023EF583E0FCA3E0FDA3E0FEA3E0FFE427
:1018C600FBFA79207841123F04D003D002D001D030
:1018D60000123D0AD082D0831244D190000EE0045B
:1018E600F00217DC7B017A02793C900039E0FD12A8
:1018F600742690000DE004F00217727BFF7A3079AF
:10190600011275317B017A1079419009B174FFF0AB
:10191600A37430F0A37406F0900974E0FCA3E0FD14
:10192600A3E0FEA3E0FF9009B41244D11246797BEE
:10193600017A107941127531900036E004F00216F2
:101946006E7BFF7A307909127531E490000DF090C4
:10195600000DE0FF3395E0FEC3EF9408EE6480943B
:10196600805040E03395E0FE74192FF58274123EE4
:10197600F583E0FF90000CE05F6020A3E0FF339565
:10198600E0FE7C007DC012433874FC2FF974023EE1
:10199600FA7B01900039E0FD12742690000DE004F8
:1019A600F080ACE4900012F0900011E0FFA3E0FE9E
:1019B600C3EF6480F8EE6480985036E0FF3395E01C
:1019C600FE74152FF58274003EF583E0FF3395E033
:1019D600FEEF7802C333CE33CED8F924BCF97401B6
:1019E6003EFA7B017D01127426900012E004F0801D
:1019F600B77B017A1079419009B174FFF0A3743076
:101A0600F0A37434F0900970E0FCA3E0FDA3E0FEBF
:101A1600A3E0FF9009B41244D190315F1244C19003
:101A260009B81244D11246797B017A1079411275B0
:101A36003190000FE05407FF3395E0FEEF64074E48
:101A46006003021B7E90000DF090000DE0FF3395C1
:101A5600E0FEC3EF9408EE648094804003021B7E90
:101A6600E03395E0FE74192FF58274123EF583E09B
:101A7600FF90000CE05F7003021B75E490000EF00F
:101A8600900039E0FF90000EE0FEC3EF6480F8EEB0
:101A96006480984003021B53E0FF3395E0FEEF7825
:101AA60002C333CE33CED8F9FF90000DE0FD339557
:101AB600E0FC9002FC75F0C0ED124528EC75F0C014
:101AC600A42583F583E5822FF582E5833EF583C061
:101AD60083C082E0FCA3E0FDA3E0FEA3E0FFC00418
:101AE600C005C006C00790000EE0FF75F00C12425C
:101AF6009CFF90000DE075F004A42FF582E435F00C
:101B0600F583E5822415F582E5833400F583E0FF4D
:101B16003395E0FEEF7802C333CE33CED8F924BC3A
:101B2600F58274013EF583E0F8A3E0F9A3E0FAA399
:101B3600E0FBD007D006D005D004123D06D082D0F7
:101B4600831244D190000EE004F0021A8690000D34
:101B5600E0FF3395E0FE7C007DC012433874FC2F15
:101B6600F974023EFA7B01900039E0FD127426906A
:101B7600000DE004F0021A4F7F007E007D007C001D
:101B860012714C7BFF7A307943127531D2ACD2A8F0
:101B96007BFF7A307960127531E490000DF0900089
:101BA6000DE0FF3395E0FEC3EF9408EE6480948069
:101BB6005056E4A3F0900039E0FF90000EE0FEC31B
:101BC600EF6480F8EE6480985036E0FF3395E0FECF
:101BD60090000DE0FD3395E0FC90003A75F030ED95
:101BE600124528EC75F030A42583F583E5822FF5A0
:101BF60082E5833EF583E4F090000EE004F080B5C4
:101C060090000DE004F08096E4900035F090118F7E
:101C1600E0FF900035E0FD3395E0FCC3ED9F748056
:101C2600F86C9840030226B47B017A107941C00310
:101C3600C002C0019009B174FFF0A3742EF0A37422
:101C460084F0900035E0FF3395E0FEEF7802C33371
:101C5600CE33CED8F924A1F58274113EF583E0FC8B
:101C6600A3E0FDA3E0FEA3E0FF9009B41244D1D0A7
:101C760001D002D0031246797B017A1079411275A0
:101C860031900035E0FF3395E0FEEF7802C333CEA6
:101C960033CED8F924A1F58274113EF583E0FCA376
:101CA600E0FDA3E0FEA3E0FF90097A1244D1E4FD33
:101CB600FF125D7620162B300328E4900014F09076
:101CC6000014E0FF3395E0FEC3EF9478EE64809451
:101CD60080500F7F307E75127457900014E004F028
:101CE60080DDE49001BAF09001BAE0FF3395E0FEA2
:101CF600C3EF9403EE6480948040030226A0E49030
:101D06000012F0900012E0FF3395E0FEC3EF94203E
:101D1600EE648094805027E03395E0FEEF7802C3AE
:101D260033CE33CED8F924BCF58274013EF5831246
:101D360044DD00000000900012E004F080C5E4904D
:101D4600000DF090000DE0FF3395E0FEC3EF940820
:101D5600EE648094805064E4A3F090000EE0FF33BC
:101D660095E0FEC3EF9430EE648094805045E033F6
:101D760095E0FEEF7802C333CE33CED8F9FF90005C
:101D86000DE0FD3395E0FC9002FC75F0C0ED1245C8
:101D960028EC75F0C0A42583F583E5822FF582E54E
:101DA600833EF5831244DD0000000090000EE0043F
:101DB600F080A790000DE004F080889001BAE0FF63
:101DC6003395E0FEEF7802C333CE33CED8F92495AF
:101DD600F58274113EF583E0FCA3E0FDA3E0FEA3CB
:101DE600E0FF12714C7F887E131274571275547F70
:101DF600147E00127457E4900036F0900036E0FF2F
:101E06003395E0FEC3EF940AEE64809480400302AB
:101E160021197BFF7A2E79DE1275317B017A0F79D3
:101E2600B8124E72EF7003021EC7E4900012F090D3
:101E36000012E0FF3395E0FEC3EF9420EE64809439
:101E4600804003021EE3E03395E0FEEF7802C333E1
:101E5600CE33CED8F924BCF58274013EF583C08317
:101E6600C082E0F8A3E0F9A3E0FAA3E0FBC000C05B
:101E760001C002C003900012E0FF3395E0FEEF7848
:101E860002C333CE33CED8F924B8F582740F3EF5AB
:101E960083E0FCA3E0FDA3E0FEA3E0FFE4FBFA7908
:101EA600207841123F04D003D002D001D000123D69
:101EB6000AD082D0831244D1900012E004F0021EB0
:101EC60035E4FDFF12647E7F007E007D007C0012FB
:101ED600714C7BFF7A2E79E112753180FE12757096
:101EE6007F647E001274577B017A0979747D037FC3
:101EF6000112580BE490000DF090000DE0FF3395B1
:101F0600E0FEC3EF9408EE64809480400302208EC6
:101F1600E03395E0FE74192FF58274123EF583E0E6
:101F2600FF90000CE05F70030220857E007FC87D75
:101F3600007B017A10794112457A90000DE0FF335B
:101F460095E0FE74192FF58274123EF583E0FF903A
:101F5600000CE05FFF7B017A09790C125BC7E49005
:101F6600000EF0900039E0FF90000EE0FEC3EF6433
:101F760080F8EE6480984003022077E0FF3395E016
:101F8600FEEF25E0FFEE33FE740C2FF58274093E5A
:101F9600F583E0FCA3E0FDEC124030E4FBFA798027
:101FA6007841123F04C004C005C006C00790000E69
:101FB600E0FF3395E0FEEF7802C333CE33CED8F997
:101FC600243CF58274023EF583D007D006D005D0B6
:101FD600041244D190000EE0FF3395E0FEEF780244
:101FE600C333CE33CED8F9FF90000DE0FD3395E034
:101FF600FC9002FC75F0C0ED124528EC75F0C0A40B
:102006002583F583E5822FF582E5833EF583C0833C
:10201600C082E0F8A3E0F9A3E0FAA3E0FBC000C0A9
:1020260001C002C00390000EE0FF3395E0FEEF789A
:1020360002C333CE33CED8F9243CF58274023EF582
:1020460083E0FCA3E0FDA3E0FEA3E0FFE4FBFA7956
:10205600207841123F04D003D002D001D000123DB7
:102066000AD082D0831244D190000EE004F0021F01
:10207600697B017A02793C900039E0FD1274269062
:10208600000DE004F0021EFFE4900012F090001133
:10209600E0FFA3E0FEC3EF6480F8EE64809850365C
:1020A600E0FF3395E0FE74152FF58274003EF5834C
:1020B600E0FF3395E0FEEF7802C333CE33CED8F996
:1020C60024B8F9740F3EFA7B017D01127426900044
:1020D60012E004F080B77B017A1079419009B1745F
:1020E600FFF0A3742FF0A37473F0900974E0FCA3BF
:1020F600E0FDA3E0FEA3E0FF9009B41244D112462E
:10210600797B017A107941127531900036E004F03E
:10211600021E017BFF7A3079B3127531E490000D0F
:10212600F090000DE0FF3395E0FEC3EF9408EE64F7
:102136008094805040E03395E0FE74192FF5827448
:10214600123EF583E0FF90000CE05F6020A3E0FF05
:102156003395E0FE7C007DC012433874FC2FF97481
:10216600023EFA7B01900039E0FD12742690000DC4
:10217600E004F080ACE4900012F0900011E0FFA3C0
:10218600E0FEC3EF6480F8EE6480985036E0FF33DB
:1021960095E0FE74152FF58274003EF583E0FF335B
:1021A60095E0FEEF7802C333CE33CED8F924BCF9DE
:1021B60074013EFA7B017D01127426900012E00440
:1021C600F080B77B017A107941C003C002C001904C
:1021D60009B174FFF0A37430F0A37434F09001BA1F
:1021E600E0FF3395E0FEEF7802C333CE33CED8F965
:1021F6002495F58274113EF583E0FCA3E0FDA3E08F
:10220600FEA3E0FF9009B41244D1900035E0FF33FD
:1022160095E0FEEF7802C333CE33CED8F924A1F58C
:102226008274113EF583E0FCA3E0FDA3E0FEA3E08B
:10223600FF9009B81244D1D001D002D003124679DA
:102246007B017A10794112753190000FE05407FF37
:102256003395E0FEEF64074E600302250790000DFC
:10226600F090000DE0FF3395E0FEC3EF9408EE64B6
:102276008094804003022507E03395E0FE74192F11
:10228600F58274123EF583E0FF90000CE05F700368
:102296000224FEE490000EF0900039E0FF90000E5C
:1022A600E0FEC3EF6480F8EE64809840030224DC0D
:1022B600E0FF3395E0FEEF7802C333CE33CED8F994
:1022C600FF90000DE0FD3395E0FC9002FC75F0C038
:1022D600ED124528EC75F0C0A42583F583E5822F21
:1022E600F582E5833EF583C083C082E0FCA3E0FD72
:1022F600A3E0FEA3E0FFC004C005C006C00790002F
:102306000EE0FF75F00C12429CFF90000DE075F098
:1023160004A42FF582E435F0F583E5822415F582D1
:10232600E5833400F583E0FF3395E0FEEF7802C3E2
:1023360033CE33CED8F924BCF58274013EF583E062
:10234600F8A3E0F9A3E0FAA3E0FBD007D006D00596
:10235600D004123D06D082D0831244D190000EE004
:10236600FF3395E0FEEF7802C333CE33CED8F9FFC4
:1023760090000DE0FD3395E0FC9002FC75F0C0ED99
:10238600124528EC75F0C0A42583F583E5822FF568
:1023960082E5833EF583E0FCA3E0FDA3E0FEA3E037
:1023A600FFC004C005C006C007900035E0FF3395A6
:1023B600E0FEEF7802C333CE33CED8F9245EF58241
:1023C60074113EF583E0F8A3E0F9A3E0FAA3E0FB7D
:1023D600D007D006D005D004123FA15003022469CD
:1023E60090000EE0FF3395E0FEEF7802C333CE3364
:1023F600CED8F9FF90000DE0FD3395E0FC9002FC8D
:1024060075F0C0ED124528EC75F0C0A42583F58360
:10241600E5822FF582E5833EF583E0FCA3E0FDA38C
:10242600E0FEA3E0FFC004C005C006C0079000356B
:10243600E0FF3395E0FEEF7802C333CE33CED8F912
:102446002432F58274113EF583E0F8A3E0F9A3E0A7
:10245600FAA3E0FBD007D006D005D004123FA16056
:102466006C406A90000EE0FF3395E0FE90000DE0B0
:10247600FD3395E0FC90003A75F030ED124528ECFE
:1024860075F030A42583F583E5822FF582E5833E3A
:10249600F583E0FF3395E0FEEF4E703190000EE0DD
:1024A600FF3395E0FE90000DE03395E0FC90003A96
:1024B60075F030ED124528EC75F030A42583F583D0
:1024C600E5822FF582E5833EF5837401F090000ED8
:1024D600E004F002229E90000DE0FF3395E0FE7CC2
:1024E600007DC012433874FC2FF974023EFA7B015A
:1024F600900039E0FD12742690000DE004F00222EF
:10250600677BFF7A2F79FC127531E490000DF0900D
:10251600000DE0FF3395E0FEC3EF9408EE6480946F
:1025260080400302268EE03395E0FE74192FF58273
:1025360074123EF583E0FF90000CE05F7003022604
:1025460085E490000EF0900039E0FF90000EE0FE6A
:10255600C3EF6480F8EE6480984003022685E0FFAE
:102566003395E0FEEF7802C333CE33CED8F9FF9031
:10257600000DE0FD3395E0FC9002FC75F0C0ED1215
:102586004528EC75F0C0A42583F583E5822FF582F6
:10259600E5833EF583E0FCA3E0FDA3E0FEA3E0FFB8
:1025A600C004C005C006C007900035E0FF3395E0C3
:1025B600FEEF7802C333CE33CED8F9245EF58274AB
:1025C600113EF583E0F8A3E0F9A3E0FAA3E0FBD01F
:1025D60007D006D005D004123FA15003022668900A
:1025E600000EE0FF3395E0FEEF7802C333CE33CE24
:1025F600D8F9FF90000DE0FD3395E0FC9002FC75E4
:10260600F0C0ED124528EC75F0C0A42583F583E5EE
:10261600822FF582E5833EF583E0FCA3E0FDA3E08F
:10262600FEA3E0FFC004C005C006C007900035E069
:10263600FF3395E0FEEF7802C333CE33CED8F924CC
:1026460032F58274113EF583E0F8A3E0F9A3E0FACF
:10265600A3E0FBD007D006D005D004123FA1600D41
:10266600400B7BFF7A3079E412753180097BFF7A63
:102676003079EA12753190000EE004F002254C9094
:10268600000DE004F00225157BFF7A2E79D912752C
:10269600319001BAE004F0021CED7F007E007D005F
:1026A6007C0012714C900035E004F0021C1390007F
:1026B6000CE0FF1270E67BFF7A3079F0127531E498
:1026C60090000DF090000DE0FF3395E0FEC3EF940F
:1026D60008EE64809480400302276EE03395E0FEA6
:1026E60074192FF58274123EF583E0FF90000CE01A
:1026F6005F606CE490000EF0900039E0FF90000EF1
:10270600E0FEC3EF6480F8EE6480985052E0FF3339
:1027160095E0FE90000DE0FD3395E0FC90003A75E3
:10272600F030ED124528EC75F030A42583F583E5ED
:10273600822FF582E5833EF583E0FF3395E0FEEFD9
:102746004E600B7BFF7A3079E412753180097BFF8E
:102756007A3079EA12753190000EE004F080999093
:10276600000DE004F00226CA7BFF7A2E79D9127595
:1027760031E4FDFF12647E7BFF7A317902127531F6
:06278600D2ACD2A880FED7
:01278C00222A
:10748700312C504F5745522C4F46460A00312C504D
:107497004F5745522C4F4E0A00312C54454D502C16
:1074A70053252E31660A00312C54454D503F0A00B2
:10647E00900978EFF0A3EDF0900978E0FF3395E006
:10648E00FEEF64014E701ED2A17B047DC07F01120F
:10649E00618D7F017E001274577BFF7A7479877F3E
:1064AE0001126FF522900978E0FF3395E0FEEF4E72
:1064BE00600302656F900F5404F0A37410F0E4A310
:1064CE00F0A3742FF0E4A3F0A304F0A304F0E4A36C
:1064DE00F0A3F07B017A0F79547D09FC12628F9044
:1064EE000AA2EEF0A3EFF0900AA2E0A3E0900F5DF7
:1064FE00F0900AA2E0900F5EF0900979E0FF3395DC
:10650E00E0FEEF4E7026D2A17B037D407F0112612B
:10651E008D7F017E001274577B017A0F795490099A
:10652E0084E4F0A3740BF07F01127070900979E08F
:10653E00FF3395E0FEEF64014E7026D2A17B037D02
:10654E00C07F0112618D7F017E001274577B017A2C
:10655E000F7954900984E4F0A3740BF07F0112704C
:02656E00702299
:10638B00901229EFF0A3EDF0901229E0FF3395E086
:10639B00FEEF64014E701ED2A17B047DC07F011203
:1063AB00618D7F017E001274577BFF7A7479947F25
:1063BB0001126FF522901229E0FF3395E0FEEF4EAC
:1063CB00600302647D900F5404F0A37410F0E4A3F7
:1063DB00F0A3742FF0E4A3F0A304F0A304F0E4A360
:1063EB00F0A304F0FB7A0F79547D097C0012628FC5
:1063FB00900AA2EEF0A3EFF0900AA2E0A3E0900FB8
:10640B005DF0900AA2E0900F5EF090122AE0FF334D
:10641B0095E0FEEF4E7026D2A17B037D407F0112EB
:10642B00618D7F017E001274577B017A0F79549036
:10643B000984E4F0A3740BF07F0112707090122AA0
:10644B00E0FF3395E0FEEF64014E7026D2A17B0393
:10645B007DC07F0112618D7F017E001274577B011D
:10646B007A0F7954900984E4F0A3740BF07F011236
:03647B007070221C
:085D7600900978EFF0A3EDF0B5
:105D7E00900978E0FF3395E0FEEF64014E7056D245
:105D8E00A1FE7F64FD7B017A0F795412457A7B0167
:105D9E007A0F79549009B174FFF0A37474F0A37460
:105DAE00A0F090097AE0FCA3E0FDA3E0FEA3E0FFE3
:105DBE009009B41244D11246797B047DC07F011242
:105DCE00618D7F017E001274577B017A0F79547FAB
:105DDE0001126FF522900978E0FF3395E0FEEF4E49
:105DEE006003025F11FFFEFDFC90097AE0F8A3E06C
:105DFE00F9A3E0FAA3E0FB123FA14025E4FFFE7DEC
:105E0E00207C4190097AE0F8A3E0F9A3E0FAA3E040
:105E1E00FB123DFB12406990097EEEF0A3EFF0807D
:105E2E0023E4FFFE7D207C4190097AE0F8A3E0F99F
:105E3E00A3E0FAA3E0FB123DFB12406990097EEE4F
:105E4E00F0A3EFF0900F547401F0A37410F0E4A3DC
:105E5E00F0A3742BF0E4A3F0A304F0A304F09009D4
:105E6E007EE0FF3395E0900F5BEFF090097EA3E0AC
:105E7E00900F5CF07B017A0F79547D097C001262E1
:105E8E008F900AA2EEF0A3EFF0900AA2E0A3E090AA
:105E9E000F5DF0900AA2E0900F5EF0900979E0FF9E
:105EAE003395E0FEEF4E7026D2A17B037D407F013D
:105EBE0012618D7F017E001274577B017A0F795427
:105ECE00900984E4F0A3740BF07F011270709009B6
:105EDE0079E0FF3395E0FEEF64014E7026D2A17B90
:105EEE00037DC07F0112618D7F017E001274577B8E
:105EFE00017A0F7954900984E4F0A3740BF07F01BA
:035F0E001270709E
:015F1100226D
:10515E009011F3EFF0A3EDF0A3EBF0A3EAF0A3E9C7
:01516E00F050
:10516F007E007F147D007B017A1179FB12457A7ED8
:10517F00007F647D007B017A0F795412457A90117C
:10518F00F3E0FF3395E0FEEF64014E600302525DE2
:10519F00D2A17B047DC07F0112618D7F017E001241
:1051AF0074577BFF7A7479AE7F01126FF5E490111B
:1051BF00F9F0C2A1539AFEE59A30E0FB539AFEE54F
:1051CF009B640A60189011F9E02454F582E4340FBF
:1051DF00F583E59BF09011F9E004F080DAE490118B
:1051EF00F9F09011F9E0C3943274809480505CE030
:1051FF002454F582E4340FF583E0B42C287B017A34
:10520F001179FB12726E9011F5E0FBA3E0FAA3E0A7
:10521F00F91244837E007F147D007B017A1179FBA4
:10522F0012457A80269011F9E02454F582E4340F68
:10523F00F583E0FF9011F9E024FBF582E43411F5DA
:10524F0083EFF09011F9E004F08097D2A122901132
:10525F00F3E0FF3395E0FEEF4E60030253AF900F84
:10526F005404F0A37403F0E4A3F09011F8E0FF33BB
:10527F0095E0FEEF4E7004900F57F09011F8E0FF9D
:10528F003395E0FEEF64014E7006900F57742BF0CC
:10529F00E4900F58F0A304F0FB7A0F79547D067C4D
:1052AF000012628F900AA2EEF0A3EFF0900AA2E034
:1052BF00A3E0900F5AF0900AA2E0900F5BF09011CC
:1052CF00F4E0FF3395E0FEEF4E7028D2A17B037D13
:1052DF00407F0112618D7F017E001274577B017A2E
:1052EF000F7954900984E4F0A37408F07F011270D1
:1052FF0070C2A19011F4E0FF3395E0FEEF64014E10
:10530F007028D2A17B037DC07F0112618D7F017E4A
:10531F00001274577B017A0F7954900984E4F0A33B
:10532F007408F07F01127070C2A1539AFEE59A3093
:10533F00E0FB539AFE9011F9E024FBF582E434115F
:10534F00F583E59BF09011F9E004F0E06403700A37
:10535F009011FDE024059011FAF09011FAE0FF9002
:10536F0011F9E0B507C7800280C3D2A19011FEE00A
:10537F00FF3395E0AD07FCED7D00FCA3E02DFDE4D0
:10538F003CFCFEAF05124030E4FBFA792078411265
:10539F003F049011F5E0FBA3E0FAA3E0F912448378
:0153AF0022DB
:0832DB009011D1EFF0A3EDF01A
:1032E300D39011E0E0942C9011DFE064809481404E
:1032F300077401F0A3742CF0E49011E3F0A3F090B1
:1033030011DFE0FEA3E0FFC39011E4E09FEE6480D1
:10331300F89011E3E064809840030234339011EF96
:103323001244DD000000007B017A0F79B8124E725F
:10333300EF700302341FE49011E5F0A3F09011DE67
:10334300E0FF3395E0FEC39011E6E09FEE6480F862
:103353009011E5E064809850749011EFE0FCA3E0D5
:10336300FDA3E0FEA3E0FFC004C005C006C00790B4
:1033730011DBE0FBA3E0FAA3E0F99011E5E0FEA383
:10338300E0F5828E831242D7FF3395E0FEEF780299
:10339300C333CE33CED8F924B8F582740F3EF58308
:1033A300E0F8A3E0F9A3E0FAA3E0FBD007D006D04E
:1033B30005D004123D0A9011EF1244D19011E6E0BA
:1033C30004F070069011E5E004F00233409011DE42
:1033D300E0FC124035A804A905AA06AB079011EF3B
:1033E300E0FCA3E0FDA3E0FEA3E0FF123F04C00462
:1033F300C005C006C0079011E3E0FEA3E07802C356
:1034030033CE33CED8F924A4F582740A3EF583D0A3
:1034130007D006D005D0041244D180037F00229048
:1034230011E4E004F070069011E3E004F0023302CB
:10343300900AA4E0FCA3E0FDA3E0FEA3E0FF90114B
:10344300E71244D1900AA4E0FCA3E0FDA3E0FEA3AD
:10345300E0FF9011EB1244D1E49011E3F0A3F0905C
:1034630011DFE0FEA3E0FFC39011E4E09FEE648070
:10347300F89011E3E06480984003023552E0FEA324
:10348300E07802C333CE33CED8F924A4F582740A8C
:103493003EF583E0FCA3E0FDA3E0FEA3E0FF901173
:1034A300E7E0F8A3E0F9A3E0FAA3E0FB123FA16091
:1034B3002C402A9011E3E0FEA3E07802C333CE331D
:1034C300CED8F924A4F582740A3EF583E0FCA3E088
:1034D300FDA3E0FEA3E0FF9011E71244D19011E3B6
:1034E300E0FEA3E07802C333CE33CED8F924A4F5AB
:1034F30082740A3EF583E0FCA3E0FDA3E0FEA3E0B3
:10350300FF9011EBE0F8A3E0F9A3E0FAA3E0FB12CC
:103513003FA1502A9011E3E0FEA3E07802C333CE2B
:1035230033CED8F924A4F582740A3EF583E0FCA3D4
:10353300E0FDA3E0FEA3E0FF9011EB1244D1901154
:10354300E4E004F070069011E3E004F002346290CA
:1035530011E7E0F8A3E0F9A3E0FAA3E0FBA3E0FCA2
:10356300A3E0FDA3E0FEA3E0FF123D067BCD7ACCF2
:10357300794C783E123FA14003023707E49011E3F0
:10358300F0A3F09011E0E024FFFF9011DFE034FF9F
:10359300FEC39011E4E09FEE6480F89011E3E064D1
:1035A3008098505DE0FEA3E07802C333CE33CED8DB
:1035B300F924A8F582740A3EF583E0FCA3E0FDA399
:1035C300E0FEA3E0FFC004C005C006C0079011E3FE
:1035D300E0FEA3E07802C333CE33CED8F924A4F5BA
:1035E30082740A3EF583D007D006D005D004124476
:1035F300D19011E4E004F070069011E3E004F08050
:10360300829011EF1244DD000000007B017A0F79F4
:10361300B8124E72EF7003023704E49011E5F0A381
:10362300F09011DEE0FF3395E0FEC39011E6E09FDA
:10363300EE6480F89011E5E064809850749011EF87
:10364300E0FCA3E0FDA3E0FEA3E0FFC004C005C0CF
:1036530006C0079011DBE0FBA3E0FAA3E0F99011A9
:10366300E5E0FEA3E0F5828E831242D7FF3395E0B7
:10367300FEEF7802C333CE33CED8F924B8F5827483
:103683000F3EF583E0F8A3E0F9A3E0FAA3E0FBD053
:1036930007D006D005D004123D0A9011EF1244D191
:1036A3009011E6E004F070069011E5E004F00236B4
:1036B300249011DEE0FC124035A804A905AA06AB4C
:1036C300079011EFE0FCA3E0FDA3E0FEA3E0FF12EF
:1036D3003F04C004C005C006C0079011DFE0FEA38D
:1036E300E07802C333CE33CED8F924A0F582740A2E
:1036F3003EF583D007D006D005D0041244D102345E
:10370300337F0022E49011E3F0A3F09011E1E0FE97
:10371300A3E0FFC39011E4E09FEE6480F89011E30F
:10372300E064809840030237F09011EF1244DD000B
:103733000000007B017A0F79B8124E72EF7003021A
:1037430037DCE49011E5F0A3F09011DEE0FF339550
:10375300E0FEC39011E6E09FEE6480F89011E5E08F
:1037630064809850779011EFE0FCA3E0FDA3E0FEA6
:10377300A3E0FFC004C005C006C0079011DBE0FB57
:10378300A3E0FAA3E0F99011E5E0FEA3E0F5828E51
:10379300831242D7FF3395E0FEEF7802C333CE3373
:1037A300CED8F924B8F582740F3EF583E0F8A3E090
:1037B300F9A3E0FAA3E0FBD007D006D005D00412AA
:1037C3003D0A9011EF1244D19011E6E004F0700627
:1037D3009011E5E004F002374C7F00229011E4E001
:1037E30004F070069011E3E004F002370E9011EF3D
:1037F300E0FCA3E0FDA3E0FEA3E0FFC004C005C01E
:1038030006C0079011DEE0FC124035A804A905AA02
:1038130006AB07D007D006D005D004123F049011A1
:10382300EF1244D19011D3E0F8A3E0F9A3E0FAA397
:10383300E0FB9011EFE0FCA3E0FDA3E0FEA3E0FFBB
:10384300123D061275F59011D7E0F8A3E0F9A3E055
:10385300FAA3E0FB123FA14003023D00E4FFFEFD9B
:103863007C409011D3E0F8A3E0F9A3E0FAA3E0FBD6
:10387300123DFB9011EFE0F8A3E0F9A3E0FAA3E017
:10388300FB123D069011EF1244D19011D1E0FFC01D
:1038930007A3E0FDC0059011EFE0FCA3E0FDA3E06A
:1038A300FEA3E0FF90097A1244D1D005D007125D40
:1038B30076E49011E3F0A3F09011DFE0FEA3E0FFC4
:1038C300C39011E4E09FEE6480F89011E3E064801C
:1038D3009840030239EC9011EF1244DD0000000020
:1038E3007B017A0F79B8124E72EF70030239D8E474
:1038F3009011E5F0A3F09011DEE0FF3395E0FEC3F5
:103903009011E6E09FEE6480F89011E5E064809802
:1039130050749011EFE0FCA3E0FDA3E0FEA3E0FFF1
:10392300C004C005C006C0079011DBE0FBA3E0FAAA
:10393300A3E0F99011E5E0FEA3E0F5828E83124245
:10394300D7FF3395E0FEEF7802C333CE33CED8F9F9
:1039530024B8F582740F3EF583E0F8A3E0F9A3E001
:10396300FAA3E0FBD007D006D005D004123D0A909D
:1039730011EF1244D19011E6E004F070069011E5C6
:10398300E004F00238F99011DEE0FC124035A8049F
:10399300A905AA06AB079011EFE0FCA3E0FDA3E0A5
:1039A300FEA3E0FF123F04C004C005C006C0079099
:1039B30011E3E0FEA3E07802C333CE33CED8F9247B
:1039C300A4F582740A3EF583D007D006D005D0044F
:1039D3001244D180037F00229011E4E004F07006CA
:1039E3009011E3E004F00238BB900AA4E0FCA3E0EA
:1039F300FDA3E0FEA3E0FF9011E71244D1900AA4D7
:103A0300E0FCA3E0FDA3E0FEA3E0FF9011EB124472
:103A1300D1E49011E3F0A3F09011DFE0FEA3E0FF07
:103A2300C39011E4E09FEE6480F89011E3E06480BA
:103A3300984003023B0BE0FEA3E07802C333CE338E
:103A4300CED8F924A4F582740A3EF583E0FCA3E002
:103A5300FDA3E0FEA3E0FF9011E7E0F8A3E0F9A3E4
:103A6300E0FAA3E0FB123FA1602C402A9011E3E0AF
:103A7300FEA3E07802C333CE33CED8F924A4F58273
:103A8300740A3EF583E0FCA3E0FDA3E0FEA3E0FFA0
:103A93009011E71244D19011E3E0FEA3E07802C352
:103AA30033CE33CED8F924A4F582740A3EF583E0ED
:103AB300FCA3E0FDA3E0FEA3E0FF9011EBE0F8A37D
:103AC300E0F9A3E0FAA3E0FB123FA1502A9011E32F
:103AD300E0FEA3E07802C333CE33CED8F924A4F5B5
:103AE30082740A3EF583E0FCA3E0FDA3E0FEA3E0BD
:103AF300FF9011EB1244D19011E4E004F0700690B2
:103B030011E3E004F0023A1B9011E7E0F8A3E0F9B7
:103B1300A3E0FAA3E0FBA3E0FCA3E0FDA3E0FEA384
:103B2300E0FF123D067BCD7ACC794C783E123FA163
:103B33004003023CC0E49011E3F0A3F09011E0E0F5
:103B430024FFFF9011DFE034FFFEC39011E4E09FF8
:103B5300EE6480F89011E3E0648098505DE0FEA38A
:103B6300E07802C333CE33CED8F924A8F582740AA1
:103B73003EF583E0FCA3E0FDA3E0FEA3E0FFC00469
:103B8300C005C006C0079011E3E0FEA3E07802C3BE
:103B930033CE33CED8F924A4F582740A3EF583D00C
:103BA30007D006D005D0041244D19011E4E004F00C
:103BB30070069011E3E004F080829011EF1244DD6F
:103BC300000000007B017A0F79B8124E72EF700388
:103BD300023CBDE49011E5F0A3F09011DEE0FF3369
:103BE30095E0FEC39011E6E09FEE6480F89011E546
:103BF300E064809850749011EFE0FCA3E0FDA3E033
:103C0300FEA3E0FFC004C005C006C0079011DBE0BF
:103C1300FBA3E0FAA3E0F99011E5E0FEA3E0F5824F
:103C23008E831242D7FF3395E0FEEF7802C333CE83
:103C330033CED8F924B8F582740F3EF583E0F8A3A8
:103C4300E0F9A3E0FAA3E0FBD007D006D005D00447
:103C5300123D0A9011EF1244D19011E6E004F07086
:103C6300069011E5E004F0023BDD9011DEE0FC126A
:103C73004035A804A905AA06AB079011EFE0FCA301
:103C8300E0FDA3E0FEA3E0FF123F04C004C005C0B3
:103C930006C0079011DFE0FEA3E07802C333CE3302
:103CA300CED8F924A0F582740A3EF583D007D00656
:103CB300D005D0041244D10239EC7F0022E49011E4
:103CC300E3F0A3F09011E1E0FEA3E0FFC39011E461
