:1073B4002566090025640900504B472C25644000CC
:1073C40050542C252E33662C252E33662C252E3333
:1073D400662C252E33664000422C25642C256440FF
:0A73E40000432C25642C25644000B2
:10720D0048110A608040C0A02000E04810380102FB
:06721D0003040700050652
:105F1000EFFB3395E04B6003025FB5759850438EFD
:105F200040538EFE53890FEDFB3395E0FAEB640787
:105F30004A7006758BD0758DFFEDFB3395E0FAEB5B
:105F400064064A7006758BA0758DFFEDFB3395E0F6
:105F5000FAEB64054A7006758B70758DFFEDFB33A7
:105F600095E0FAEB64044A7006758BE0758DFEEDE2
:105F7000FB3395E0FAEB64034A7006758BC0758DB0
:105F8000FDEDFB3395E0FAEB64024A7006758B80F9
:105F9000758DFBEDFB3395E0FAEB64014A7005F576
:105FA0008B758DF7EDFB3395E04B7005F58B758D9B
:105FB000EEC2ABD28EEF3395E0FEEF64014E60038C
:105FC000026054759A50EDFF3395E0FEEF64074E82
:105FD000700675D7D075D6FFEDFF3395E0FEEF6400
:105FE000064E700675D7A075D6FFEDFF3395E0FE1F
:105FF000EF64054E700675D77075D6FFEDFF3395CB
:10600000E0FEEF64044E700675D7E075D6FEEDFF36
:106010003395E0FEEF64034E700675D7C075D6FD6C
:10602000EDFF3395E0FEEF64024E700675D7807584
:10603000D6FBEDFF3395E0FEEF64014E7005F5D71A
:1060400075D6F7AF05EF3395E04F7005F5D775D6E8
:05605000EE438E142256
:10737A00EFFB3395E04B7012EDFB3395E0FAEB64CB
:10738A00014A7004D2AC8002C2ACEF3395E0FEEF42
:10739A0064014E7014AF05EF3395E0FEEF64014EC1
:0A73AA00700443AF012253AFFE222E
:10618B00900A86EFF0A905AF03AD077F01125F10F0
:10619B00901040E5E8F0900A86E0FF3395E0FEEFC3
:1061AB0064014E706043BA01901040E0541FF0E45C
:1061BB00901109F0901109E0FF3395E0FEC3EF94C5
:1061CB0008EE64809480503DE03395E0FE740A2F16
:1061DB00F58274113EF583E0B50122901040E0FF8B
:1061EB00901109E0FD3395E0FC740A2DF5827411D2
:1061FB003CF583E0FEEF4E901040F08008901109C3
:10620B00E004F080AF900A86E0FF3395E0FEEF6488
:10621B00034E706053BAFE901040E054F8F0E490D7
:10622B001109F0901109E0FF3395E0FEC3EF9408DC
:10623B00EE64809480503DE03395E0FE74382FF58A
:10624B008274103EF583E0B50122901040E0FF9080
:10625B001109E0FD3395E0FC74382DF58274103C88
:10626B00F583E0FEEF4E901040F08008901109E0AE
:10627B0004F080AF901040E0F5E87F017E001274CF
:02628B0055229A
:106FF3009009AEEBF0A3EAF0A3E9F0EFFD3395E0DF
:107003004D702B9009AEE0FBA3E0FAA3E0F9124226
:10701300BC601B9009AEE0A3E475F00112435EA9C6
:10702300F0FA1242BCF5993099FDC29980D5EF333D
:1070330095E0FEEF64014E70319009AEE0FBA3E0F2
:10704300FAA3E0F91242BC60219009AEE0A3E47513
:10705300F00112435EA9F0FA1242BCF59BE59A5483
:0B70630002640270F8539AFD80CF22F7
:0E6B060090097CEFF0A3EBF0A3EAF0A3E9F016
:106B1400E4900982F0A3F0900982F0A3F090098038
:106B2400E0FEA3E0FFC3900983E09F900982E09E0A
:106B34004003026BB77B017A117913C003C002C012
:106B4400019009B174FFF0A37473F0A374B4F090CE
:106B54000982E0FEA3E07802C333CE33CED8F9FF36
:106B640090097DE0FBA3E0FAA3E0F98F828E831203
:106B740044519009B41244CFD001D002D00312463C
:106B8400779009847401F0A37411F0A37413F09046
:106B9400097CE0FF900984E0FBA3E0FAA3E0F9128A
:106BA4006FF3900983E004F07006900982E004F02A
:036BB400026B2150
:016BB70022BB
:0E6BB800900989EFF0A3EBF0A3EAF0A3E9F057
:106BC600E490098FF0A3F090098FF0A3F090098D5F
:106BD600E0FEA3E0FFC3900990E09F90098FE09E3E
:106BE6004003026C697B017A117913C003C002C0AD
:106BF600019009B174FFF0A37473F0A374B8F09018
:106C06000990E025E0FF90098FE033FE90098AE0C5
:106C1600FBA3E0FAA3E0F98F828E8312439FFF90D5
:106C260009B4E5F0F0A3EFF0D001D002D00312468C
:106C3600779009917401F0A37411F0A37413F09086
:106C46000989E0FF900991E0FBA3E0FAA3E0F912BD
:106C56006FF3900990E004F0700690098FE004F05D
:036C6600026BD3EB
:016C69002208
:0E699600900984EFF0A3EBF0A3EAF0A3E9F080
:1069A400E490098CF0A3F0900988E0FFA3E090093B
:1069B4008CCFF0A3EFF090098AE0FEA3E0FFC39030
:1069C400098DE09F90098CE09E4003026A507B0190
:1069D4007A117913C003C002C0019009B174FFF0A9
:1069E400A37473F0A374B8F090098DE025E0FF90D0
:1069F400098CE033FE900985E0FBA3E0FAA3E0F9FB
:106A04008F828E8312439FFF9009B4E5F0F0A3EFC9
:106A1400F0D001D002D00312467790098E7401F0B1
:106A2400A37411F0A37413F0900984E0FF90098E0D
:106A3400E0FBA3E0FAA3E0F9126FF390098DE00400
:0C6A4400F0700690098CE004F00269BAC2
:016A50002223
:0E706E00900980EFF0A3EBF0A3EAF0A3E9F0A5
:10707C00E4FFFED3900985E09F900984E09E405781
:10708C00900980E0FD3395E0FCED4C7017A3E0FB1C
:10709C00A3E0FAA3E0F98F828E831242D5F59930E2
:1070AC0099FDC299900980E0FD3395E0FCED6401F7
:1070BC004C701DA3E0FBA3E0FAA3E0F98F828E8352
:1070CC001242D5F59BE59A5402640270F8539AFD6E
:0770DC000FEF70010E809C14
:0170E300228A
:086D1400900978EFF0A3EDF007
:106D1C007E007F147D007B017A09797A1245787B9D
:106D2C00017A09797A9009B174FFF0A37473F0A316
:106D3C0074BCF0900979E0FE3395E09009B4F0A3AF
:106D4C00CEF0124677E4901109F0901109E0FF3370
:106D5C0095E0FEC3EF9408EE648094805047E033D6
:106D6C0095E0FE74192FF58274123EF583E0FF90C6
:106D7C000978E05F6027901109E0FF3395E0FE741D
:106D8C00382FF58274103EF583E0FD7B077F0312EC
:106D9C00618B7B017A09797A7F01126FF39011096B
:056DAC00E004F080A5E9
:016DB10022BF
:106F7600900978EFF0E4901109F0901109E0FF33E1
:106F860095E0FEC3EF9408EE64809480505EE03393
:106F960095E0FE74192FF58274123EF583E0FF909A
:106FA6000978E05F603E901109E0FF3395E0FE74DA
:106FB600382FF58274103EF583E0FD7B077F0312C0
:106FC600618B539AFE759B25E59A5402640270F80C
:106FD600539AFDE59A30E0ED539AFEE59BB425E51C
:0D6FE600800280E1901109E004F0808E220D
:0E5BC500900978EFF0A3EBF0A3EAF0A3E9F06B
:105BD300E4901112F0901112E0FF3395E0FEC3EF51
:105BE3009430EE648094805029E03395E0FEEF25F5
:105BF300E0FFEE33FE900979E0FBA3E0FAA3E0F9BE
:105C03008F828E83E4F5F01243F6901112E004F0D4
:105C130080C3E4901109F0901109E0FF3395E0FE91
:105C2300C3EF9408EE64809480503EE03395E0FE29
:105C330074192FF58274123EF583E0FF900978E022
:105C43005F601E901109E0FF3395E0FE74382FF575
:105C53008274103EF583E0FD7B077F0312618B8026
:105C630008901109E004F080AEE4901112F0539A09
:105C7300FE759B02E59A5402640270F8539AFDE59F
:105C83009A30E0ED539AFE901112E0FF3395E0FE57
:105C930074412FF58274103EF583E59BF090111249
:105CA300E004F0E59A30E0FB539AFE901112E0FF16
:105CB3003395E0FE74412FF58274103EF583E59B26
:105CC300F0901112E004F0E0FF3395E0FEEF646022
:105CD3004E70D0800280CCE4901112F0901112E04B
:105CE300FF3395E0FEC3EF9460EE6480948040033D
:105CF300025D73E03395E0FE74412FF58274103E2C
:105D0300F583E0FE3395E090097CF0A3CEF0E0F854
:105D1300E4F0E890097CF0901112E03395E0FE7412
:105D2300422FF58274103EF583E0FF90097DE02F4A
:105D3300F090097CE03400F0E0FCA3E0FD90111248
:105D4300E0FFA2E713FF3395E0FEEF25E0FFEE331C
:105D5300FE900979E0FBA3E0FAA3E0F98F828E833A
:105D6300EC8DF01243F6901112E02402F0025CDF96
:015D7300220D
:10656E00900978EFF0A3EBF0A3EAF0A3E9F07B013A
:10657E007A107941C003C002C0019009B174FFF0D6
:10658E00A37473F0A374C4F0900979E0FBA3E0FA4E
:10659E00A3E0F91244319009B41244CF900979E086
:1065AE00FBA3E0FAA3E0F99000041244519009B85D
:1065BE001244CF900979E0FBA3E0FAA3E0F9900032
:1065CE00081244519009BC1244CF900979E0FBA304
:1065DE00E0FAA3E0F990000C1244519009C0124465
:1065EE00CFD001D002D003124677E4901109F0907B
:1065FE001109E0FF3395E0FEC3EF9408EE6480943A
:10660E0080503CE03395E0FE74192FF58274123EF3
:10661E00F583E0FF900978E05F601C901109E0FFC0
:10662E003395E0FE74382FF58274103EF583E0FD4D
:10663E007B077F0312618B901109E004F080B07B21
:0B664E00017A1079417F01126FF322E6
:0E605500900978EFF0A3EBF0A3EAF0A3E9F0D6
:106063007E007F327D007B017A09797C124578902E
:106073001226E0640170557B017A09797CC003C064
:1060830002C0019009B174FFF0A37473F0A374DC30
:10609300F0900979E0FBA3E0FAA3E0F9124374FF5F
:1060A3009009B4E5F0F0A3EFF0900979E0A3E0A341
:1060B300E090000212439FFF9009B6E5F0F0A3EFD2
:1060C300F0D001D002D003124677805B901226E015
:1060D300640270537B017A09797CC003C002C0015A
:1060E3009009B174FFF0A37473F0A374E5F0900901
:1060F30079E0FBA3E0FAA3E0F9124374FF9009B43B
:10610300E5F0F0A3EFF0900979E0A3E0A3E09000BD
:106113000212439FFF9009B6E5F0F0A3EFF0D00120
:10612300D002D003124677E4901109F0901109E0F0
:10613300FF3395E0FEC3EF9408EE648094805047EC
:10614300E03395E0FE74192FF58274123EF583E077
:10615300FF900978E05F6027901109E0FF3395E035
:10616300FE74382FF58274103EF583E0FD7B077FC4
:106173000312618B7B017A09797C7F01126FF390A3
:076183001109E004F080A502
:01618A0022F2
:106E4F00544F393200746F393200534F503800733A
:106E5F006F7038004344464E38006364666E3800E6
:106E6F00332E335600352E30560035560042000D66
:106E7F000A5472696D6D696E672050726F67726127
:106E8F006D2056657273696F6E20697320420D0A0B
:106E9F000043000D0A5472696D6D696E6720507260
:106EAF006F6772616D2056657273696F6E206973BB
:106EBF0020430D0A000D0A202000526F746174697F
:106ECF006F6E3A0056424520616E6420526F7461B6
:0B6EDF0074696F6E3A000D0A0D0A0086
:0472230041122601ED
:10752F00900984EBF0A3EAF0A3E9F07D07E4FF12E2
:10753F005F10900984E0FBA3E0FAA3E0F9E4FF12E7
:03754F006FF322B5
:10742400900978EBF0A3EAF0A3E9F0A3EDF07D076F
:10743400E4FF125F10900978E0FBA3E0FAA3E0F9FF
:10744400A3E0FF900980E4F0A3EFF0E4FF126B06E1
:017454002215
:1073EE00900984EBF0A3EAF0A3E9F0A3ECF0A3ED8F
:1073FE00F07D07E4FF125F10900984E0FBA3E0FA32
:10740E00A3E0F9A3E0FFA3E090098DCFF0A3EFF086
:06741E00E4FF126BB8222E
:0B4A9500900978EBF0A3EAF0A3E9F031
:104AA000E4900988F0A3F07D07FF125F10E49012F4
:104AB00025F0C2983098FDC298901225E02441F567
:104AC00082E43410F583E599F0901225E02441F555
:104AD00082E43410F583E064406008901225E0041D
:104AE000F080D1900978E0FBA3E0FAA3E0F9E412AA
:104AF0004302900988F0900988E0FF3395E0FEC3F7
:104B0000EF9420EE64809480502390097BE0FBA317
:104B1000E0FAA3E0F9900988E03395E08F82F5830D
:104B20007463124314900988E004F080C97B017A11
:104B3000107941900A8974FFF0A3746EF0A3744F4A
:104B4000F012681AEB8A8389827B007A0079007000
:104B500006E5827002E583702C7B017A1079419022
:104B60000A8974FFF0A3746EF0A37454F012681AEB
:104B7000EB8A8389827B007A0079007006E5827077
:104B800002E5836016900978E0FBA3E0FAA3E0F960
:104B90001242BC4407124302024C897B017A10790D
:104BA00041900A8974FFF0A3746EF0A37459F01257
:104BB000681AEB8A8389827B007A0079007006E5A7
:104BC000827002E583702C7B017A107941900A890A
:104BD00074FFF0A3746EF0A3745EF012681AEB8A8F
:104BE0008389827B007A0079007006E5827002E595
:104BF000836016900978E0FBA3E0FAA3E0F9124283
:104C0000BC4406124302024C897B017A1079419020
:104C10000A8974FFF0A3746EF0A37463F012681A2B
:104C2000EB8A8389827B007A0079007006E58270C6
:104C300002E583702C7B017A107941900A8974FF18
:104C4000F0A3746EF0A37469F012681AEB8A83897A
:104C5000827B007A0079007006E5827002E583604D
:104C600015900978E0FBA3E0FAA3E0F91242BC44F6
:104C7000051243028013900978E0FBA3E0FAA3E059
:104C8000F91242BC44F01243027B017A1079419040
:104C90000A8974FFF0A3746EF0A3746FF012681A9F
:104CA000EB8A8389827B007A0079007006E5827046
:104CB00002E5836016900978E0FBA3E0FAA3E0F92F
:104CC0001242BC4470124302024D4B7B017A1079B0
:104CD00041900A8974FFF0A3746EF0A37474F0120B
:104CE000681AEB8A8389827B007A0079007006E576
:104CF000827002E583702C7B017A107941900A89D9
:104D000074FFF0A3746EF0A37479F012681AEB8A42
:104D10008389827B007A0079007006E5827002E563
:104D2000836015900978E0FBA3E0FAA3E0F9124252
:104D3000BC44601243028013900978E0FBA3E0FAC0
:104D4000A3E0F91242BC440F1243027E007F0A7DA9
:104D5000007B017A09797E124578E4901225F09063
:104D60001225E02441F582E43410F583E0B42C08E8
:104D7000901225E004F08008901225E004F080DF16
:104D8000901225E02441F582E43410F583E0B42C40
:104D900008901225E004F08008901225E004F080CD
:104DA000DFE4900988F0900988E0FF3395E0FEC3C6
:104DB000EF9420EE648094804003024E6F7E007F6B
:104DC0000A7D007B017A09797E124578E490098991
:104DD000F0901225E02441F582E43410F583E0647C
:104DE0002C6044901225E02441F582E43410F583D0
:104DF000E064406032901225E02441F582E43410F2
:104E0000F583E0FF900989E0FD3395E0FC747E2D89
:104E1000F58274093CF583EFF0900989E004F09085
:104E20001225E004F080AA7B017A09797E12673F9F
:104E3000EF14FF90097BE0FBA3E0FAA3E0F99009EF
:104E400088E0FD3395E08D82F583EF1243149012D4
:104E500025E02441F582E43410F583E06440600FDE
:0F4E6000901225E004F0900988E004F0024DA6BE
:014E6F002220
:1055E900E4900982F0A3F07D07FF125F10E49012A6
:1055F90025F0C2983098FDC298901225E02441F513
:1056090082E43410F583E599F0901225E02441F500
:1056190082E43410F583E064406008901225E004C8
:10562900F080D17B017A107941900A8974FFF0A347
:10563900746EF0A3747CF012681AEB8A8389827BFA
:10564900007A0079007006E5827002E583601190A6
:1056590012267401F07BFF7A6E797E12752F803BDA
:105669007B017A107941900A8974FFF0A3746EF076
:10567900A374A0F012681AEB8A8389827B007A00EE
:1056890079007006E5827002E583600F9012267436
:1056990002F07BFF7A6E79A212752F7E007F0A7D58
:1056A900007B017A097978124578E4901225F09007
:1056B9001225E02441F582E43410F583E0B423088F
:1056C900901225E004F08008901225E004F080DFB4
:1056D900E4900982F0900982E0FF3395E0FEC3EF80
:1056E9009402EE6480948040030258087E007F0A89
:1056F9007D007B017A097978124578E4900983F075
:10570900901225E02441F582E43410F583E0642CFD
:105719006044901225E02441F582E43410F583E0D9
:1057290064406032901225E02441F582E43410F59A
:1057390083E0FF900983E0FD3395E0FC74782DF553
:105749008274093CF583EFF0900983E004F090122C
:1057590025E004F080AA7B017A09797812673FACC9
:1057690006AD07900982E0FF3395E0FEEF25E0FFE3
:10577900EE33FE74CD2FF58274113EF583ECF0A360
:10578900EDF0901225E02441F582E43410F583E030
:105799006440705C7BFF7A6E79C412752F90122673
:1057A900E06401702B7D07FF125F107BFF7A6E7931
:1057B900C912752F7B017A1179CD900988E4F0A37C
:1057C90004F0A3E4F0A37402F0E4FF1269968016D2
:1057D9007BFF7A6E79D312752F7B017A1179CD7D92
:1057E900027C001273EE7BFF7A6E79E512752F2227
:0F57F900901225E004F0900982E004F00256DEE1
:01580800227D
:0A76000049533F4000454E4440004E
:1072270048120F0180022004400810481219010279
:0672370004081020408055
:0476190075F8FF22DF
:1071AC00AB07E4901217F0901221F0901221E0FD41
:1071BC003395E0FCC3ED9408EC64809480503AE085
:1071CC003395E0FC74192DF58274123CF583E05B69
:1071DC00601F901217E0FE901221E03395E0FC74D2
:1071EC000F2DF58274123CF583E0FDEE4D901217D5
:1071FC00F0901221E004F080B2901217E0F4F5F850
:01720C00225F
:1068D900900978EBF0A3EAF0A3E9F0900978E0FBDE
:1068E900A3E0FAA3E0F9E4124302901218F090121F
:1068F90018E0FF3395E0FEC3EF9408EE64809480BE
:106909004003026995E4901127F0A3F0901218E072
:106919003395E0FE74382FF58274103EF583E0FD5F
:106929007B077F0312618B7BFF7A7679007F0112E7
:106939006FF3539AFEE59A30E031539AFEE59BB422
:106949005929900978E0FBA3E0FAA3E0F91242BCC7
:10695900FF901218E0FD3395E0FC74192DF582744F
:10696900123CF583E04F1243028018901127E47519
:10697900F001124348FEE5F0B420BAEEB44EB680F9
:0D6989000280B2901218E004F00268F722BC
:1070E400900978EFF0E4901218F0901218E0FF3352
:1070F40095E0FEC3EF9408EE648094805047E0333B
:1071040095E0FE74192FF58274123EF583E0FF902A
:107114000978E05F6027901218E0FF3395E0FE7471
:10712400382FF58274103EF583E0FD7B077F031250
:10713400618B7BFF7A7679057F01126FF3901218C9
:06714400E004F080A5222A
:08723D00411228004112270054
:10745500E4FDFC438E805389F0758ACD758CD4C2CA
:107465008DD2A9D28C901227E064027006F00DED42
:0F74750070010CEDB507EEECB506EAC28CC2A9AA
:0174840022E5
:10750A00E4901227F0438E805389F0758A91758C26
:10751A00FFC28DD2A9D28C901227E0640170F8C202
:05752A008CC2A9F02253
:03000B000275B4C7
:1075B400C0E0C083C082901227E004F0D082D08360
:0375C400D0E032E2
:1072B500494E495400696E697400496E69740053FA
:1072C5005441525400537461727400737461727442
:1072D5000052756E4D6F64650053544F50005374E2
:1072E5006F700073746F70004E65787453746172BB
:0272F500740023
:1073390043BA8090FE0374C0F090FE03E030E0F998
:1073490090FE01E4F090FE0004F0E4F5BA75F8FF50
:10735900C214C215C213D288D28AC2A8C2AAD2AF95
:1073690075CCFFF5CB75E2FFF5E14392025391FD30
:0173790022F1
:1074B500E4FFFEFDFCC3EF9498EE64809483501DB9
:1074C500E4FCFDC3ED94C8EC648094805008000D85
:0D74D500ED70010C80ED0FEF70010E80D8FE
:0174E2002287
:0300030002758AF9
:10758A00C0E0C0D075D018C2A81274B530B2FAD211
:06759A0014D0D0D0E03255
:030023000253AED7
:0D53AE00C0E0C0F0C083C082C0D075D01830
:1053BB00E4FFC2AC3098FDC298EFFD3395E0FC746E
:1053CB00412DF58274103CF583E599F0EF3395E0B0
:1053DB00FC74412DF58274103CF583E0644060034E
:1053EB000F80D17B017A107941900A8974FFF0A369
:1053FB007472F0A374B5F012681AEB8A8389827BFE
:10540B00007A0079007006E5827002E58370587BA4
:10541B00017A107941900A8974FFF0A37472F0A39A
:10542B0074BAF012681AEB8A8389827B007A00794E
:10543B00007006E5827002E583702C7B017A10798F
:10544B0041900A8974FFF0A37472F0A374BFF01239
:10545B00681AEB8A8389827B007A0079007006E5F3
:10546B00827002E5836002D2157B017A107941903C
:10547B000A8974FFF0A37472F0A374C4F012681A53
:10548B00EB8A8389827B007A0079007006E5827053
:10549B0002E58370587B017A107941900A8974FF79
:1054AB00F0A37472F0A374CAF012681AEB8A8389A2
:1054BB00827B007A0079007006E5827002E58370CA
:1054CB002C7B017A107941900A8974FFF0A37472D6
:1054DB00F0A374D0F012681AEB8A8389827B007A6E
:1054EB000079007006E5827002E5836002D2147BBE
:1054FB00017A107941900A8974FFF0A37472F0A3BA
:10550B0074D6F012681AEB8A8389827B007A007951
:10551B00007006E5827002E5836002D2137B017A8C
:10552B00107941900A8974FFF0A37472F0A374DEB2
:10553B00F012681AEB8A8389827B007A00790070FB
:10554B0006E5827002E58370587B017A10794190F1
:10555B000A8974FFF0A37472F0A374E3F012681A53
:10556B00EB8A8389827B007A0079007006E5827072
:10557B0002E583702C7B017A107941900A8974FFC4
:10558B00F0A37472F0A374E8F012681AEB8A8389A3
:10559B00827B007A0079007006E5827002E58360F9
:1055AB000343C7207B017A107941900A8974FFF07D
:1055BB00A37472F0A374EDF012681AEB8A838982DC
:1055CB007B007A0079007006E5827002E583600348
:0355DB0043C720A3
:0B55DE00D0D0D082D083D0F0D0E032DB
:10755200D2A67F027E00127455C2A67F057E00125B
:0C7562007455D2A67F027E0012745522E0
:10756E00D2A77F027E00127455C2A77F057E00123D
:0C757E007455D2A77F027E0012745522C3
:10278D0053797374656D20496E69742E2E2E0D0A62
:10279D00000D0A0950726F6772616D205665727374
:1027AD00696F6E2056312E372E2E2E0D0A000D0A12
:1027BD00506C656173652053656E6420436F6D6D5C
:1027CD006164203A205374617274204465627567A8
:1027DD002F4E6F726D616C20526561642F5472695A
:1027ED006D2054656D7065726174757265506F6999
:1027FD006E7473400D0A000D0A54656D706572613B
:10280D0074757265506F696E7473203A204F6E65E2
:10281D002C54687265652C5369782C54656E2C4563
:10282D006C6576656E0D0A000D0A416464202744BF
:10283D00656661756C74272063616E20736B6970BA
:10284D0020696E7075742050743130300D0A000D92
:10285D000A44656661756C74203A20544F39322DE7
:10286D00332E33562C50543130302C312C322C33F6
:10287D002C342C352C362C372C38400D0A0D0A00F3
:10288D00444542554700646562756700446562754D
:10289D006700202044656275675F00446566617559
:1028AD006C740044454641554C5400646566617531
:1028BD006C740020204E6F726D616C2044656661F2
:1028CD00756C745F0020204E6F726D616C5F0072CD
:1028DD006561640052656164005245414400526572
:1028ED0061642020007472696D005472696D00542A
:1028FD0052494D005472696D2020004F6E650031B4
:10290D002054656D7065726174757265506F696E76
:10291D00740D0A0D0A005468726565003320546504
:10292D006D7065726174757265506F696E740D0AA4
:10293D000D0A0053697800362054656D706572611B
:10294D0074757265506F696E740D0A0D0A005465C9
:10295D006E0031302054656D7065726174757265ED
:10296D00506F696E740D0A0D0A00456C6576656EC3
:10297D000031312054656D706572617475726550EA
:10298D006F696E740D0A0D0A000D0A506C65617346
:10299D006520696E707574205472696D6D696E670E
:1029AD0020446174612045473A2056657273696F02
:1029BD006E20235642452C526F746174696F6E20E0
:1029CD00202F2F56657273696F6E3A2042206F72F9
:1029DD002043400D0A0056657273696F6E204220C8
:1029ED007C20526F746174696F6E2056616C7565D1
:1029FD00733A203020746F2031350D0A0056657200
:102A0D0073696F6E2043207C20526F746174696FFF
:102A1D006E2056616C7565733A203020746F2037C7
:102A2D002020205642452056616C7565733A203042
:102A3D0020746F203235340D0A000D0A546865720A
:102A4D0065206973206E6F207465737420626F61E9
:102A5D00726420696E207468652063757272656E8C
:102A6D00742073797374656D2E20506C6561736578
:102A7D0020636865636B20746861742074686520D9
:102A8D007465737420626F61726420697320706C59
:102A9D00756767656420696E2C20616E64207468AB
:102AAD00656E207475726E206F6E2074686520706F
:102ABD006F77657220616761696E212121004F4B2F
:102ACD002E0D0A43757272656E7420537973746599
:102ADD006D20426F617264203A200D0A0D0A0009C3
:102AED002B3D3D3D3D3D3D3D3D3D2B3D3D3D3D3D2D
:102AFD003D3D3D3D2B3D3D3D3D3D3D3D3D3D2B3D1D
:102B0D003D3D3D3D3D3D3D3D2B3D3D3D3D3D3D3DFA
:102B1D003D3D2B3D3D3D3D3D3D3D3D3D2B3D3D3DFC
:102B2D003D3D3D3D3D3D2B3D3D3D3D3D3D3D3D3DDA
:102B3D002B0D0A00097C20426F6172642D31207CBF
:102B4D0020426F6172642D32207C20426F6172646D
:102B5D002D33207C20426F6172642D34207C204205
:102B6D006F6172642D35207C20426F6172642D3649
:102B7D00207C20426F6172642D37207C20426F6172
:102B8D0072642D38207C0D0A00097C00202020590C
:102B9D0065732020207C002020204E2F41202020F6
:102BAD007C000D0A000D0A53797374656D20496E12
:102BBD00697420656E642E0D0A00506C6561736535
:102BCD0020656E74657220746865205061636B6159
:102BDD0067652054797065206F66207468652031B3
:102BED003842323020616E642074686520766F6CD7
:102BFD0074616765206F6620746865205663632075
:102C0D0050696E0D0A416E6420656E746572207494
:102C1D006865205B25645D20505431303073283158
:102C2D003C3D204E756D626572203C3D203332294E
:102C3D00207573656420696E2074686520737973DF
:102C4D0074656D20696E206F72646572284E6F72A7
:102C5D006D616C45673A20544F39322D332E335602
:102C6D002C50543130302C312C342C372C38402012
:102C7D006F7220446562756745673A20544F39324B
:102C8D002D332E33562C40293A0D0A000D0A506172
:102C9D00636B6167652054797065204F7220566FA4
:102CAD006C746167652056616C756520697320577A
:102CBD00726F6E6721212120506C656173652072E2
:102CCD00652D656E7465722021212100456E746538
:102CDD007220746865206E756D626572206F662056
:102CED00505431303020617265206E6F7420636FE7
:102CFD0072726563742E5468652073797374656D93
:102D0D002061637475616C6C79206E6565647320E8
:102D1D0025642050543130307320616E6420746806
:102D2D00652061637475616C20696E7075742050D7
:102D3D00543130302873292069732025642E20509A
:102D4D006C656173652072652D656E7465722021E9
:102D5D00212100546865206E756D626572206F6665
:102D6D002074686520696E70757420505431303050
:102D7D00206973206475706C69636174652C2070B3
:102D8D006C656173652072652D656E7465722021A9
:102D9D002121200D0A004973756D203D20256620E7
:102DAD0041000D0A205468652044555420706F77FA
:102DBD00657220737570706C792063757272656EB3
:102DCD0074206973206F76657220746865206C6954
:102DDD006D69742C20706C65617365206368656323
:102DED006B20746F20736565206966205B445554B4
:102DFD005D2069732073686F72742D6369726375DA
:102E0D006974656420212121616E64207468656E8A
:102E1D0020706F776572206974206261636B206F1B
:102E2D006E0D0A000D0A5663632856290954612850
:102E3D0043656C73697573290900252E3364090088
:102E4D0050543130302D252E326409004963635FB3
:102E5D0073756D2841290D0A0D0A000D0A5472690A
:102E6D006D6D696E67205374617274202E2E2E2E37
:102E7D002E2E0D0A000D0A0D0A0953657420636884
:102E8D00616D62657227732074656D706572617412
:102E9D0075726520746F20252E32662043656C7324
:102EAD006975732E0D0A000D0A0909566363203DDD
:102EBD0020252E326620560D0A00090957726974B5
:102ECD00652064617461203A20000D0A0D0A000925
:102EDD000900546865206E756D626572206F6620FD
:102EED00636F6E7365637574697665206572726F55
:102EFD0072732072656365697665642062792074EA
:102F0D00686520584A59206861732072656163684D
:102F1D0065642031302074696D65732E20506C65A9
:102F2D0061736520636865636B20746861742074D8
:102F3D00686520584A5920686173206661696C651F
:102F4D00642121210D0A09616E64207468656E206B
:102F5D00706F776572206974206261636B206F6E8C
:102F6D002E0D0A0025660D0A000D0A093138423270
:102F7D00302054656D70657261747572652041768F
:102F8D0065726167652056616C7565203A0D0A0999
:102F9D0009000D0A43616C204F66667365742064E9
:102FAD00617461203A200909000D0A52656164209F
:102FBD005642452064617461203A200909000D0ACA
:102FCD0052656164204F6666736574206461746137
:102FDD00203A200909000D0A526F746174696F6EF1
:102FED002056616C756573203A200909000D0A0998
:102FFD00090009090909002566000D0A0954433124
:10300D00384232302054656D706572617475726529
:10301D0020417665726167652056616C7565203A51
:10302D000D0A0909000D0A0D0A252E326609252EF5
:10303D00326609000D0A5472696D696E672050720F
:10304D006F636573732066696E69736865640D0AD5
:10305D00000D0A2054656D7065726174757265207E
:10306D006D6561737572656D656E74206174206632
:10307D00756C6C20766F6C7461676520696E206667
:10308D00756C6C2074656D706572617475726520F8
:10309D0061726561207374617274202E2E2E2E2E36
:1030AD002E0D0A000D0A09544331384232302026C4
:1030BD0020584A592054656D70657261747572653A
:1030CD0020417665726167652056616C7565203AA1
:1030DD000D0A0909004661696C0900506173730995
:1030ED00000D0A46696E616C20526573756C743AF9
:1030FD000909000D0A313842323020526561646988
:10310D006E672054656D70657261747572652050BF
:10311D00726F636573732066696E69736865642C7D
:10312D0053656E64205B4E657874537461727440A0
:10313D005D20616761696E20666F72206E657874BF
:10314D00207374617274696E67202E2E2E0D0A0025
:10315D0041A0000042AA0000C25C0000C220000095
:10316D00C1C80000C12000000000000041C80000DF
:10317D004248000042AA000042C8000042FA000086
:10318D004009999A4009999A4009999A3F2666668D
:10319D003F2666663F2666663F2666663F2666665E
:1031AD004009999A4009999ABFECCCCDBFECCCCD92
:1031BD00BFECCCCDBEB33333BEB33333BEB3333339
:1031CD00BEB33333BEB33333BFECCCCDBFECCCCDBC
:1031DD00C25C0000C120000041C800004270000028
:1031ED0042AA000042FA0000400000003F0000002B
:1031FD003F0000003F0000003F00000040000000C5
:10320D00C0000000BF000000BF000000BF000000B4
:10321D00BF000000C0000000C120000041C8000038
:10322D0042AA00003F0000003F0000003F000000E8
:10323D00BF000000BF000000BF00000041C800003B
:10324D003F000000BF000000C25C0000C220000073
:10325D00C1F00000C12000004120000041C8000065
:10326D00423400004270000042AA000042C8000033
:10327D0042FA000040000000400000004000000045
:10328D003F0000003F0000003F0000003F00000035
:10329D003F0000003F000000400000004000000023
:1032AD00C0000000C0000000C0000000BF00000012
:1032BD00BF000000BF000000BF000000BF00000005
:0C32CD00BF000000C0000000C0000000B6
:1072450048112900010203040506074C1195404029
:107255000000405333334066666641119200411188
:067265003100C197C19643
:100026009000397430F0C2049009741244DB000069
:1000360000001273397FA07E0F1274557BFF7A275A
:10004600798D12752F7BFF7A27799E12752F7BFF8C
:100056007A2779BB12752F7BFF7A28790412752FC0
:100066007BFF7A28793512752F7BFF7A28795C1207
:10007600752FD2A8D2AC3014FD7B017A107941904D
:100086000A8974FFF0A37428F0A3748DF012681A1D
:10009600EB8A8389827B007A0079007006E582709C
:1000A60002E58370587B017A107941900A8974FFC2
:1000B600F0A37428F0A37493F012681AEB8A83896C
:1000C600827B007A0079007006E5827002E5837013
:1000D6002C7B017A107941900A8974FFF0A3742869
:1000E600F0A37499F012681AEB8A8389827B007AEE
:1000F6000079007006E5827002E583600EC2037B1C
:10010600FF7A28799F12752F0201E8D2037B017AC4
:10011600107941900A8974FFF0A37428F0A374A89B
:10012600F012681AEB8A8389827B007A0079007064
:1001360006E5827002E58370587B017A107941905A
:100146000A8974FFF0A37428F0A374B0F012681A39
:10015600EB8A8389827B007A0079007006E58270DB
:1001660002E583702C7B017A107941900A8974FF2D
:10017600F0A37428F0A374B8F012681AEB8A838986
:10018600827B007A0079007006E5827002E5836062
:1001960048D204E4901190F0901190E0C394087452
:1001A6008094805023E02429F582E43411F583E01D
:1001B600FF901190E02415F582E43400F583EFF00A
:1001C600901190E004F080D09000117408F07BFF4D
:1001D6007A2879C012752F80097BFF7A2879D21286
:1001E600752F7B017A107941900A8974FFF0A37408
:1001F60028F0A374DCF012681AEB8A8389827B00EC
:100206007A0079007006E5827002E58370587B01FA
:100216007A107941900A8974FFF0A37428F0A374C8
:10022600E1F012681AEB8A8389827B007A007900F2
:100236007006E5827002E583702C7B017A107941A5
:10024600900A8974FFF0A37428F0A374E6F012688C
:100256001AEB8A8389827B007A0079007006E58230
:100266007002E5836013E49001BBF090000FE0F0AC
:100276007BFF7A2879EB12752F20030302031F7B7D
:10028600017A107941900A8974FFF0A37428F0A3CB
:1002960074F2F012681AEB8A8389827B007A0079FD
:1002A600007006E5827002E58370587B017A10794A
:1002B60041900A8974FFF0A37428F0A374F7F01232
:1002C600681AEB8A8389827B007A0079007006E5DA
:1002D600827002E583702C7B017A107941900A893D
:1002E60074FFF0A37428F0A374FCF012681AEB8A6A
:1002F6008389827B007A0079007006E5827002E5C8
:100306008360169001BB7408F090000FE04408F07B
:100316007BFF7A29790112752F7B017A107941903A
:100326000A8974FFF0A37429F0A37408F012681AFE
:10033600EB8A8389827B007A0079007006E58270F9
:1003460002E583601290118F7401F07BFF7A2979A0
:100356000C12752F0204507B017A107941900A899C
:1003660074FFF0A37429F0A37423F012681AEB8AC1
:100376008389827B007A0079007006E5827002E547
:1003860083601290118F7403F07BFF7A297929120A
:10039600752F0204507B017A107941900A8974FF07
:1003A600F0A37429F0A37440F012681AEB8A8389CB
:1003B600827B007A0079007006E5827002E5836030
:1003C6001190118F7406F07BFF7A29794412752FEC
:1003D60080787B017A107941900A8974FFF0A374C2
:1003E60029F0A3745BF012681AEB8A8389827B007A
:1003F6007A0079007006E5827002E583601190113B
:100406008F740AF07BFF7A29795F12752F803B7B08
:10041600017A107941900A8974FFF0A37429F0A338
:100426007477F012681AEB8A8389827B007A0079E6
:10043600007006E5827002E583600F90118F740BE1
:10044600F07BFF7A29797E12752FE4901193F09054
:10045600118FE0FF901193E0C39F40030206FA90CC
:10046600118FE06401707B901193E025E025E02474
:1004760049F582E43432F5831244BF901193E025A6
:10048600E025E024A1F582E43411F5831244CF90EF
:100496001193E025E025E0244DF582E43432F5831E
:1004A6001244BF901193E025E025E0245EF582E436
:1004B6003411F5831244CF901193E025E025E02412
:1004C60051F582E43432F5831244BF901193E0254E
:1004D600E025E02432F582E43411F5831244CF029C
:1004E60006F190118FE06403707B901193E025E094
:1004F60025E02425F582E43432F5831244BF9011B9
:1005060093E025E025E024A1F582E43411F5831279
:1005160044CF901193E025E025E02431F582E434C0
:1005260032F5831244BF901193E025E025E0245E66
:10053600F582E43411F5831244CF901193E025E05F
:1005460025E0243DF582E43432F5831244BF901150
:1005560093E025E025E02432F582E43411F5831298
:1005660044CF0206F190118FE06406707B901193E0
:10057600E025E025E024DDF582E43431F5831244FC
:10058600BF901193E025E025E024A1F582E4341123
:10059600F5831244CF901193E025E025E024F5F58C
:1005A60082E43431F5831244BF901193E025E025AF
:1005B600E0245EF582E43411F5831244CF90119362
:1005C600E025E025E0240DF582E43432F58312447B
:1005D600BF901193E025E025E02432F582E4341142
:1005E600F5831244CF0206F190118FE0640A707B06
:1005F600901193E025E025E02465F582E43431F599
:10060600831244BF901193E025E025E024A1F582F2
:10061600E43411F5831244CF901193E025E025E0F0
:10062600248DF582E43431F5831244BF901193E0B2
:1006360025E025E0245EF582E43411F5831244CFEB
:10064600901193E025E025E024B5F582E43431F5F8
:10065600831244BF901193E025E025E02432F58211
:10066600E43411F5831244CF0206F190118FE06451
:100676000B7078901193E025E025E02455F582E48F
:100686003432F5831244BF901193E025E025E0242F
:10069600A1F582E43411F5831244CF901193E0253D
:1006A600E025E02481F582E43432F5831244BF90DC
:1006B6001193E025E025E0245EF582E43411F5830C
:1006C6001244CF901193E025E025E024ADF582E4B5
:1006D6003432F5831244BF901193E025E025E024DF
:1006E60032F582E43411F5831244CF901193E0047D
:1006F600F00204559001BBE0FF3395E0FEEF64087D
:100706004E701E7BFF7A29799612752F7BFF7A2908
:1007160079E312752F7BFF7A2A790A12752F125503
:10072600E97F007E007D007C0012714A127619D2A4
:10073600153015FDC2157F647E001274557FFF12B9
:1007460071AC7FD07E071274557B017A00790C124A
:1007560068D990000CE0FF3395E0FEEF4E700F1263
:1007660076197BFF7A2A794712752F0200787BFF6C
:100776007A2A79CB12752F7BFF7A2A79EC12752F9C
:100786007BFF7A2B794112752F7BFF7A2A79EC123F
:10079600752F7BFF7A2B799612752FE4900010F057
:1007A60090000DF090000DE0FF3395E0FEC3EF944E
:1007B60008EE64809480503BE03395E0FE74192F78
:1007C600F58274123EF583E0FF90000CE05F601244
:1007D6007BFF7A2B799912752F900010E02404F094
:1007E60080097BFF7A2B79A412752F90000DE00407
:1007F600F080B17BFF7A2B79AF12752F7BFF7A2AB7
:1008060079EC12752F90000CE0FF1271AC7BFF7A29
:100816002B79B212752F200303020AA230040302B9
:100826000A697BFF7A2B79C712752F7B017A0079CB
:100836000FC00390097BEBF0A37400F0A37415F0CE
:10084600D003124A957B017A10794112752F7BFFEE
:100856007A2B79AF12752F7E007FC87D007B017AD7
:10086600107941124578C200C20190000FE054078A
:10087600FF3395E0FEEF64074E700ED20090096CD0
:100886001244DB3ECCCCCD803C90000FE05407FFF9
:100896003395E0FEEF64054E700ED20090096C129F
:1008A60044DB3ECCCCCD801D90000FE05407FF33D7
:1008B60095E0FEEF64064E700CD20090096C12446F
:1008C600DB3ECCCCCD90000FE054F0FF3395E0FE3C
:1008D600EF64704E702CD2019009701244DB4053C5
:1008E60033339011951244DB402CCCCD90119912E4
:1008F60044DB4053333390119D1244DB40B000007B
:10090600803B90000FE054F0FF3395E0FEEF64600B
:100916004E702AD2019009701244DB40A00000906C
:1009260011951244DB409800009011991244DB4067
:10093600A0000090119D1244DB40A8000030000387
:1009460020010C7BFF7A2C799912752F020831D27F
:1009560002200303020AA2E4900011F0A3F0900023
:1009660012E0FF3395E0FEC3EF9420EE648094809E
:10097600502EE03395E0FE74152FF58274003EF597
:1009860083E0FF3395E0FEC3EF9421EE648094800C
:100996005006900011E004F0900012E004F080BED2
:1009A600900010E0FFA3E06F60407B017A10794170
:1009B6009009B174FFF0A3742CF0A374D9F09000E1
:1009C60010E03395E09009B4F0A3EFF0900011E049
:1009D600FE3395E09009B6F0A3CEF01246777B0180
:1009E6007A10794112752F020831E4900013F090C5
:1009F6000010E014FF900013E0FEC3EF6480F8EEF1
:100A0600648098504CE004FF900010E0C36480F8C6
:100A1600EF6480985030EFFD3395E0FC74152DF5AA
:100A26008274003CF583E0FE900013E0FD3395E010
:100A3600FC74152DF58274003CF583E0B50604C2FE
:100A46000280030F80C2300208900013E004F08099
:100A56009E2002487BFF7A2D796012752F0208319D
:100A660002083190096C1244DB3ECCCCCD90097063
:100A76001244DB4053333390000FE04477F090117B
:100A8600951244DB402CCCCD9011991244DB405397
:100A9600333390119D1244DB40B000007E007FC8C6
:100AA6007D007B017A107941124578D2A8D2AC300C
:100AB60014FDC21490000CE0FF90000FE0540FFDEF
:100AC600126D147F887E131274559001BBE0FF33BC
:100AD60095E0FEEF64084E700E90000CE0FF7B017F
:100AE6007A1179CD126055900970E0FCA3E0FDA360
:100AF600E0FEA3E0FF12714A7F647E001274557B0C
:100B0600017A0979747D037F011258097F007E00FE
:100B16007D007C0012714A7B017A1079419009B1FF
:100B260074FFF0A3742DF0A374A3F0900974E0FC95
:100B3600A3E0FDA3E0FEA3E0FF9009B41244CF12A8
:100B460046777B017A10794112752FE4FFFEFD7C12
:100B560040900974E0F8A3E0F9A3E0FAA3E0FB12E1
:100B66003F9F600D400B7BFF7A2D79AF12752F806A
:100B7600FE7BFF7A2E793112752FE490000DF090EE
:100B8600000DE0FF3395E0FEC3EF9408EE64809419
:100B9600804003020C22E03395E0FE74192FF582A3
:100BA60074123EF583E0FF90000CE05F60659000F4
:100BB6000E7401F090000EE0FF3395E0FEC3EF9453
:100BC60031EE64809480504B7B017A107941900914
:100BD600B174FFF0A3742EF0A37447F090000DE0FB
:100BE600FF3395E0FE7C007D30124336A3E0FD33F3
:100BF60095E0FCEF2DFFEE3C9009B4F0A3EFF01268
:100C060046777B017A10794112752F90000EE00429
:100C1600F080A190000DE004F0020B85300368E43B
:100C2600900012F0900010E0FF900012E0FEC3EF7B
:100C36006480F8EE648098504E7B017A107941907A
:100C460009B174FFF0A3742EF0A3744DF090001256
:100C5600E0FF3395E0FE74152FF58274003EF583B0
:100C6600E0FF3395E0FEEF2401FFE43E9009B4F087
:100C7600A3EFF01246777B017A10794112752F9017
:100C86000012E004F0809D7BFF7A2E795912752FB1
:100C96007FE87E031274557FE87E03127455900137
:100CA600BBE0FF3395E0FEEF64084E6003021B9243
:100CB6007BFF7A2E796812752F2016607B017A10D9
:100CC60079419009B174FFF0A3742EF0A37482F0F9
:100CD600A31244DB41C800001246777B017A1079E3
:100CE6004112752F90097A1244DB41C80000E4FDD9
:100CF600FF125D74E4900013F0900013E0FF33954B
:100D0600E0FEC3EF943CEE64809480500F7F307E0B
:100D160075127455900013E004F080DD7FB87E0BE9
:100D2600127455900970E0FCA3E0FDA3E0FEA3E079
:100D3600FF12714A7B017A1079419009B174FFF074
:100D4600A3742EF0A374B4F0900970E0FCA3E0FD48
:100D5600A3E0FEA3E0FF9009B41244CF1246777BCE
:100D6600017A10794112752FE4900012F09000126A
:100D7600E0FF3395E0FEC3EF9420EE64809480504C
:100D860027E03395E0FEEF7802C333CE33CED8F9B1
:100D960024BCF58274013EF5831244DB000000009A
:100DA600900012E004F080C5E490000DF090000D74
:100DB600E0FF3395E0FEC3EF9408EE648094805024
:100DC60064E4A3F090000EE0FF3395E0FEC3EF94D9
:100DD60030EE648094805045E03395E0FEEF780273
:100DE600C333CE33CED8F9FF90000DE0FD3395E046
:100DF600FC9002FC75F0C0ED124526EC75F0C0A41F
:100E06002583F583E5822FF582E5833EF58312443B
:100E1600DB0000000090000EE004F080A790000DBB
:100E2600E004F080887FB87E0B1274557BFF7A2E23
:100E360079C712752F7B017A1179CD7D027C00125C
:100E460073EE7BFF7A2E79D712752F1275529000AA
:100E56000CE0FF126F76E4900036F0900036E0FF6B
:100E66003395E0FEC3EF940AEE648094804003025B
:100E760011797BFF7A2E79DC12752F7B017A0F7937
:100E8600B8124E70EF7003020F27E4900012F09034
:100E96000012E0FF3395E0FEC3EF9420EE648094E9
:100EA600804003020F43E03395E0FEEF7802C33340
:100EB600CE33CED8F924BCF58274013EF583C083C7
:100EC600C082E0F8A3E0F9A3E0FAA3E0FBC000C00B
:100ED60001C002C003900012E0FF3395E0FEEF78F8
:100EE60002C333CE33CED8F924B8F582740F3EF55B
:100EF60083E0FCA3E0FDA3E0FEA3E0FFE4FBFA79B8
:100F0600207841123F02D003D002D001D000123D1A
:100F160008D082D0831244CF900012E004F0020E73
:100F260095E4FDFF12647C7F007E007D007C00124C
:100F3600714A7BFF7A2E79DF12752F80FE12756E4D
:100F46007F647E001274557B017A0979747D037F74
:100F560001125809E490000DF090000DE0FF339562
:100F6600E0FEC3EF9408EE6480948040030210EE26
:100F7600E03395E0FE74192FF58274123EF583E096
:100F8600FF90000CE05F70030210E57E007FC87DD5
:100F9600007B017A10794112457890000DE0FF330D
:100FA60095E0FE74192FF58274123EF583E0FF90EA
:100FB600000CE05FFF7B017A09790C125BC5E490B7
:100FC600000EF0900039E0FF90000EE0FEC3EF64E3
:100FD60080F8EE64809840030210D7E0FF3395E076
:100FE600FEEF25E0FFEE33FE740C2FF58274093E0A
:100FF600F583E0FCA3E0FDEC12402EE4FBFA7980D9
:101006007841123F02C004C005C006C00790000E1A
:10101600E0FF3395E0FEEF7802C333CE33CED8F946
:10102600243CF58274023EF583D007D006D005D065
:10103600041244CF90000EE0FF3395E0FEEF7802F5
:10104600C333CE33CED8F9FF90000DE0FD3395E0E3
:10105600FC9002FC75F0C0ED124526EC75F0C0A4BC
:101066002583F583E5822FF582E5833EF583C083EC
:10107600C082E0F8A3E0F9A3E0FAA3E0FBC000C059
:1010860001C002C00390000EE0FF3395E0FEEF784A
:1010960002C333CE33CED8F9243CF58274023EF532
:1010A60083E0FCA3E0FDA3E0FEA3E0FFE4FBFA7906
:1010B600207841123F02D003D002D001D000123D69
:1010C60008D082D0831244CF90000EE004F0020FC5
:1010D600C97B017A02793C900039E0FD12742490B4
:1010E600000DE004F0020F5FE4900012F090001192
:1010F600E0FFA3E0FEC3EF6480F8EE64809850360C
:10110600E0FF3395E0FE74152FF58274003EF583FB
:10111600E0FF3395E0FEEF7802C333CE33CED8F945
:1011260024B8F9740F3EFA7B017D011274249000F5
:1011360012E004F080B77B017A1079419009B1740E
:10114600FFF0A3742FF0A37471F0900974E0FCA370
:10115600E0FDA3E0FEA3E0FF9009B41244CF1246DF
:10116600777B017A10794112752F900036E004F0F2
:10117600020E617BFF7A2F797612752FE490000DAF
:10118600F090000DE0FF3395E0FEC3EF9408EE64A7
:101196008094805040E03395E0FE74192FF58274F8
:1011A600123EF583E0FF90000CE05F6020A3E0FFB5
:1011B6003395E0FE7C007DC012433674FC2FF97433
:1011C600023EFA7B01900039E0FD12742490000D76
:1011D600E004F080ACE4900012F0900011E0FFA370
:1011E600E0FEC3EF6480F8EE6480985036E0FF338B
:1011F60095E0FE74152FF58274003EF583E0FF330B
:1012060095E0FEEF7802C333CE33CED8F924BCF98D
:1012160074013EFA7B017D01127424900012E004F1
:10122600F080B77BFF7A2E79D712752F7F0A7E0062
:10123600127455E4900038F090000DF090000DE027
:10124600FF3395E0FEC3EF9408EE6480948040037C
:1012560002134A7E007FC87D007B017A1079411215
:10126600457890000DE0FF3395E0FE74192FF58266
:1012760074123EF583E0FF90000CE05F70030213EA
:1012860041900038E004F0E4900037F0900037E039
:10129600FF3395E0FEC3EF9404EE648094805077AC
:1012A600E0A3E075F004A42FF582E435F0F583E5BC
:1012B600822411F582E5833400F583E0FF3395E05F
:1012C600FEEF7802C333CE33CED8F924BCF5827450
:1012D600013EF583E0FCA3E0FDA3E0FEA3E0FFC032
:1012E60004C005C006C007900037E0FF3395E0FE56
:1012F600EF7802C333CE33CED8F924FCF5827408D6
:101306003EF583D007D006D005D0041244CF900016
:1013160037E004F002129290000DE0FF3395E0FEF4
:1013260074192FF58274123EF583E0FF90000CE0ED
:101336005FFF7B017A0879FC12656E90000DE00470
:10134600F00212427FB87E0B1274557BFF7A2F791A
:101356009F12752FE490000DF090000DE0FF33957D
:10136600E0FEC3EF9408EE648094805065E0339508
:10137600E0FE74192FF58274123EF583E0FF9000AB
:101386000CE05F60457E007FC87D007B017A1079A6
:101396004112457890000DE0FF3395E0FE74192F59
:1013A600F58274123EF583E0FF90000CE05FFF7B50
:1013B600017A09790C125BC57B017A09790C9000D8
:1013C60039E0FD3395E0FC1273EE90000DE004F079
:1013D600808790000FE054F0FF3395E0FEEF6460E5
:1013E6004E600B7F007E007DA07C4012714A7FB864
:1013F6007E0B1274551275527F647E00127455125C
:10140600756E90000CE0FF126F767BFF7A2F79B62F
:1014160012752FE490000DF090000DE0FF3395E07B
:10142600FEC3EF9408EE648094805065E03395E047
:10143600FE74192FF58274123EF583E0FF90000CBE
:10144600E05F60457E007FC87D007B017A107941B0
:1014560012457890000DE0FF3395E0FE74192FF5E4
:101466008274123EF583E0FF90000CE05FFF7B0183
:101476007A09790C125BC57B017A09790C900039DF
:10148600E0FD3395E0FC1273EE90000DE004F08071
:10149600877BFF7A2F79CB12752FE490000DF090A1
:1014A600000DE0FF3395E0FEC3EF9408EE648094F0
:1014B600805065E03395E0FE74192FF58274123E74
:1014C600F583E0FF90000CE05F60457E007FC87DFD
:1014D600007B017A10794112457890000DE0FF33C8
:1014E60095E0FE74192FF58274123EF583E0FF90A5
:1014F600000CE05FFF7B017A09790C125BC57B016A
:101506007A09790C900039E0FD3395E0FC1273EE10
:1015160090000DE004F080877BFF7A2F79E3127547
:101526002FE490000DF090000DE0FF3395E0FEC330
:10153600EF9408EE648094805065E03395E0FE7485
:10154600192FF58274123EF583E0FF90000CE05FE0
:1015560060457E007FC87D007B017A107941124587
:101566007890000DE0FF3395E0FE74192FF5827434
:10157600123EF583E0FF90000CE05FFF7B017A09E5
:10158600790C125BC57B017A09790C900039E0FD74
:101596003395E0FC1273EE90000DE004F080877F37
:1015A600E87E03127455E4900012F0900012E0FFFA
:1015B6003395E0FEC3EF9420EE648094805027E0DC
:1015C6003395E0FEEF7802C333CE33CED8F924BC90
:1015D600F58274013EF5831244DB000000009000A2
:1015E60012E004F080C5E490000DF090000DE0FFDD
:1015F6003395E0FEC3EF9408EE648094805064E473
:10160600A3F090000EE0FF3395E0FEC3EF9430EEBA
:10161600648094805045E03395E0FEEF7802C33352
:10162600CE33CED8F9FF90000DE0FD3395E0FC9067
:1016360002FC75F0C0ED124526EC75F0C0A42583BA
:10164600F583E5822FF582E5833EF5831244DB00C0
:1016560000000090000EE004F080A790000DE0046A
:10166600F08088E4900036F0900036E0FF3395E095
:10167600FEC3EF940AEE6480948040030219477B10
:10168600FF7A2F79FA12752F2003030217567B0172
:101696007A0F79B8124E70EF700302173AE4900091
:1016A60012F0900012E0FF3395E0FEC3EF9420EEB7
:1016B600648094804003021756E03395E0FEEF788D
:1016C60002C333CE33CED8F924BCF58274013EF57D
:1016D60083C083C082E0F8A3E0F9A3E0FAA3E0FBAD
:1016E600C000C001C002C003900012E0FF3395E0C5
:1016F600FEEF7802C333CE33CED8F924B8F5827420
:101706000F3EF583E0FCA3E0FDA3E0FEA3E0FFE4CB
:10171600FBFA79207841123F02D003D002D001D0E3
:1017260000123D08D082D0831244CF900012E0040C
:10173600F00216A8E4FDFF12647C7F007E007D00A7
:101746007C0012714A7BFF7A2E79DF12752F80FE9C
:1017560012756E7F647E001274557B017A09797466
:101766007D037F01125809E490000DF090000DE012
:10177600FF3395E0FEC3EF9408EE64809480400347
:10178600021901E03395E0FE74192FF58274123EBA
:10179600F583E0FF90000CE05F70030218F87E000E
:1017A6007FC87D007B017A10794112457890000D43
:1017B600E0FF3395E0FE74192FF58274123EF5832F
:1017C600E0FF90000CE05FFF7B017A09790C125B69
:1017D600C5E490000EF0900039E0FF90000EE0FEA8
:1017E600C3EF6480F8EE64809840030218EAE0FFD5
:1017F6003395E0FEEF25E0FFEE33FE740C2FF58205
:1018060074093EF583E0FCA3E0FDEC12402EE4FBF8
:10181600FA79807841123F02C004C005C006C007AD
:1018260090000EE0FF3395E0FEEF7802C333CE332F
:10183600CED8F9243CF58274023EF583D007D00653
:10184600D005D0041244CF90000EE0FF3395E0FEA1
:10185600EF7802C333CE33CED8F9FF90000DE0FD0A
:101866003395E0FC9002FC75F0C0ED124526EC7550
:10187600F0C0A42583F583E5822FF582E5833EF546
:1018860083C083C082E0F8A3E0F9A3E0FAA3E0FBFB
:10189600C000C001C002C00390000EE0FF3395E017
:1018A600FEEF7802C333CE33CED8F9243CF58274EA
:1018B600023EF583E0FCA3E0FDA3E0FEA3E0FFE427
:1018C600FBFA79207841123F02D003D002D001D032
:1018D60000123D08D082D0831244CF90000EE0045F
:1018E600F00217DC7B017A02793C900039E0FD12A8
:1018F600742490000DE004F00217727BFF7A2F79B2
:10190600FF12752F7B017A1079419009B174FFF0AF
:10191600A37430F0A37404F0900974E0FCA3E0FD16
:10192600A3E0FEA3E0FF9009B41244CF1246777BF2
:10193600017A10794112752F900036E004F00216F4
:101946006E7BFF7A30790712752FE490000DF090C8
:10195600000DE0FF3395E0FEC3EF9408EE6480943B
:10196600805040E03395E0FE74192FF58274123EE4
:10197600F583E0FF90000CE05F6020A3E0FF339565
:10198600E0FE7C007DC012433674FC2FF974023EE3
:10199600FA7B01900039E0FD12742490000DE004FA
:1019A600F080ACE4900012F0900011E0FFA3E0FE9E
:1019B600C3EF6480F8EE6480985036E0FF3395E01C
:1019C600FE74152FF58274003EF583E0FF3395E033
:1019D600FEEF7802C333CE33CED8F924BCF97401B6
:1019E6003EFA7B017D01127424900012E004F0801F
:1019F600B77B017A1079419009B174FFF0A3743076
:101A0600F0A37432F0900970E0FCA3E0FDA3E0FEC1
:101A1600A3E0FF9009B41244CF90315D1244BF9009
:101A260009B81244CF1246777B017A1079411275B4
:101A36002F90000FE05407FF3395E0FEEF64074E4A
:101A46006003021B7E90000DF090000DE0FF3395C1
:101A5600E0FEC3EF9408EE648094804003021B7E90
:101A6600E03395E0FE74192FF58274123EF583E09B
:101A7600FF90000CE05F7003021B75E490000EF00F
:101A8600900039E0FF90000EE0FEC3EF6480F8EEB0
:101A96006480984003021B53E0FF3395E0FEEF7825
:101AA60002C333CE33CED8F9FF90000DE0FD339557
:101AB600E0FC9002FC75F0C0ED124526EC75F0C016
:101AC600A42583F583E5822FF582E5833EF583C061
:101AD60083C082E0FCA3E0FDA3E0FEA3E0FFC00418
:101AE600C005C006C00790000EE0FF75F00C12425C
:101AF6009AFF90000DE075F004A42FF582E435F00E
:101B0600F583E5822415F582E5833400F583E0FF4D
:101B16003395E0FEEF7802C333CE33CED8F924BC3A
:101B2600F58274013EF583E0F8A3E0F9A3E0FAA399
:101B3600E0FBD007D006D005D004123D04D082D0F9
:101B4600831244CF90000EE004F0021A8690000D36
:101B5600E0FF3395E0FE7C007DC012433674FC2F17
:101B6600F974023EFA7B01900039E0FD127424906C
:101B7600000DE004F0021A4F7F007E007D007C001D
:101B860012714A7BFF7A30794112752FD2ACD2A8F6
:101B96007BFF7A30795E12752FE490000DF090008D
:101BA6000DE0FF3395E0FEC3EF9408EE6480948069
:101BB6005056E4A3F0900039E0FF90000EE0FEC31B
:101BC600EF6480F8EE6480985036E0FF3395E0FECF
:101BD60090000DE0FD3395E0FC90003A75F030ED95
:101BE600124526EC75F030A42583F583E5822FF5A2
:101BF60082E5833EF583E4F090000EE004F080B5C4
:101C060090000DE004F08096E4900035F090118F7E
:101C1600E0FF900035E0FD3395E0FCC3ED9F748056
:101C2600F86C9840030226B47B017A107941C00310
:101C3600C002C0019009B174FFF0A3742EF0A37422
:101C460082F0900035E0FF3395E0FEEF7802C33373
:101C5600CE33CED8F924A1F58274113EF583E0FC8B
:101C6600A3E0FDA3E0FEA3E0FF9009B41244CFD0A9
:101C760001D002D0031246777B017A1079411275A2
:101C86002F900035E0FF3395E0FEEF7802C333CEA8
:101C960033CED8F924A1F58274113EF583E0FCA376
:101CA600E0FDA3E0FEA3E0FF90097A1244CFE4FD35
:101CB600FF125D7420162B300328E4900014F09078
:101CC6000014E0FF3395E0FEC3EF9478EE64809451
:101CD60080500F7F307E75127455900014E004F02A
:101CE60080DDE49001BAF09001BAE0FF3395E0FEA2
:101CF600C3EF9403EE6480948040030226A0E49030
:101D06000012F0900012E0FF3395E0FEC3EF94203E
:101D1600EE648094805027E03395E0FEEF7802C3AE
:101D260033CE33CED8F924BCF58274013EF5831246
:101D360044DB00000000900012E004F080C5E4904F
:101D4600000DF090000DE0FF3395E0FEC3EF940820
:101D5600EE648094805064E4A3F090000EE0FF33BC
:101D660095E0FEC3EF9430EE648094805045E033F6
:101D760095E0FEEF7802C333CE33CED8F9FF90005C
:101D86000DE0FD3395E0FC9002FC75F0C0ED1245C8
:101D960026EC75F0C0A42583F583E5822FF582E550
:101DA600833EF5831244DB0000000090000EE00441
:101DB600F080A790000DE004F080889001BAE0FF63
:101DC6003395E0FEEF7802C333CE33CED8F92495AF
:101DD600F58274113EF583E0FCA3E0FDA3E0FEA3CB
:101DE600E0FF12714A7F887E131274551275527F76
:101DF600147E00127455E4900036F0900036E0FF31
:101E06003395E0FEC3EF940AEE64809480400302AB
:101E160021197BFF7A2E79DC12752F7B017A0F79D7
:101E2600B8124E70EF7003021EC7E4900012F090D5
:101E36000012E0FF3395E0FEC3EF9420EE64809439
:101E4600804003021EE3E03395E0FEEF7802C333E1
:101E5600CE33CED8F924BCF58274013EF583C08317
:101E6600C082E0F8A3E0F9A3E0FAA3E0FBC000C05B
:101E760001C002C003900012E0FF3395E0FEEF7848
:101E860002C333CE33CED8F924B8F582740F3EF5AB
:101E960083E0FCA3E0FDA3E0FEA3E0FFE4FBFA7908
:101EA600207841123F02D003D002D001D000123D6B
:101EB60008D082D0831244CF900012E004F0021EB4
:101EC60035E4FDFF12647C7F007E007D007C0012FD
:101ED600714A7BFF7A2E79DF12752F80FE12756E9E
:101EE6007F647E001274557B017A0979747D037FC5
:101EF60001125809E490000DF090000DE0FF3395B3
:101F0600E0FEC3EF9408EE64809480400302208EC6
:101F1600E03395E0FE74192FF58274123EF583E0E6
:101F2600FF90000CE05F70030220857E007FC87D75
:101F3600007B017A10794112457890000DE0FF335D
:101F460095E0FE74192FF58274123EF583E0FF903A
:101F5600000CE05FFF7B017A09790C125BC5E49007
:101F6600000EF0900039E0FF90000EE0FEC3EF6433
:101F760080F8EE6480984003022077E0FF3395E016
:101F8600FEEF25E0FFEE33FE740C2FF58274093E5A
:101F9600F583E0FCA3E0FDEC12402EE4FBFA798029
:101FA6007841123F02C004C005C006C00790000E6B
:101FB600E0FF3395E0FEEF7802C333CE33CED8F997
:101FC600243CF58274023EF583D007D006D005D0B6
:101FD600041244CF90000EE0FF3395E0FEEF780246
:101FE600C333CE33CED8F9FF90000DE0FD3395E034
:101FF600FC9002FC75F0C0ED124526EC75F0C0A40D
:102006002583F583E5822FF582E5833EF583C0833C
:10201600C082E0F8A3E0F9A3E0FAA3E0FBC000C0A9
:1020260001C002C00390000EE0FF3395E0FEEF789A
:1020360002C333CE33CED8F9243CF58274023EF582
:1020460083E0FCA3E0FDA3E0FEA3E0FFE4FBFA7956
:10205600207841123F02D003D002D001D000123DB9
:1020660008D082D0831244CF90000EE004F0021F05
:10207600697B017A02793C900039E0FD1274249064
:10208600000DE004F0021EFFE4900012F090001133
:10209600E0FFA3E0FEC3EF6480F8EE64809850365C
:1020A600E0FF3395E0FE74152FF58274003EF5834C
:1020B600E0FF3395E0FEEF7802C333CE33CED8F996
:1020C60024B8F9740F3EFA7B017D01127424900046
:1020D60012E004F080B77B017A1079419009B1745F
:1020E600FFF0A3742FF0A37471F0900974E0FCA3C1
:1020F600E0FDA3E0FEA3E0FF9009B41244CF124630
:10210600777B017A10794112752F900036E004F042
:10211600021E017BFF7A3079B112752FE490000D13
:10212600F090000DE0FF3395E0FEC3EF9408EE64F7
:102136008094805040E03395E0FE74192FF5827448
:10214600123EF583E0FF90000CE05F6020A3E0FF05
:102156003395E0FE7C007DC012433674FC2FF97483
:10216600023EFA7B01900039E0FD12742490000DC6
:10217600E004F080ACE4900012F0900011E0FFA3C0
:10218600E0FEC3EF6480F8EE6480985036E0FF33DB
:1021960095E0FE74152FF58274003EF583E0FF335B
:1021A60095E0FEEF7802C333CE33CED8F924BCF9DE
:1021B60074013EFA7B017D01127424900012E00442
:1021C600F080B77B017A107941C003C002C001904C
:1021D60009B174FFF0A37430F0A37432F09001BA21
:1021E600E0FF3395E0FEEF7802C333CE33CED8F965
:1021F6002495F58274113EF583E0FCA3E0FDA3E08F
:10220600FEA3E0FF9009B41244CF900035E0FF33FF
:1022160095E0FEEF7802C333CE33CED8F924A1F58C
:102226008274113EF583E0FCA3E0FDA3E0FEA3E08B
:10223600FF9009B81244CFD001D002D003124677DE
:102246007B017A10794112752F90000FE05407FF39
:102256003395E0FEEF64074E600302250790000DFC
:10226600F090000DE0FF3395E0FEC3EF9408EE64B6
:102276008094804003022507E03395E0FE74192F11
:10228600F58274123EF583E0FF90000CE05F700368
:102296000224FEE490000EF0900039E0FF90000E5C
:1022A600E0FEC3EF6480F8EE64809840030224DC0D
:1022B600E0FF3395E0FEEF7802C333CE33CED8F994
:1022C600FF90000DE0FD3395E0FC9002FC75F0C038
:1022D600ED124526EC75F0C0A42583F583E5822F23
:1022E600F582E5833EF583C083C082E0FCA3E0FD72
:1022F600A3E0FEA3E0FFC004C005C006C00790002F
:102306000EE0FF75F00C12429AFF90000DE075F09A
:1023160004A42FF582E435F0F583E5822415F582D1
:10232600E5833400F583E0FF3395E0FEEF7802C3E2
:1023360033CE33CED8F924BCF58274013EF583E062
:10234600F8A3E0F9A3E0FAA3E0FBD007D006D00596
:10235600D004123D04D082D0831244CF90000EE008
:10236600FF3395E0FEEF7802C333CE33CED8F9FFC4
:1023760090000DE0FD3395E0FC9002FC75F0C0ED99
:10238600124526EC75F0C0A42583F583E5822FF56A
:1023960082E5833EF583E0FCA3E0FDA3E0FEA3E037
:1023A600FFC004C005C006C007900035E0FF3395A6
:1023B600E0FEEF7802C333CE33CED8F9245EF58241
:1023C60074113EF583E0F8A3E0F9A3E0FAA3E0FB7D
:1023D600D007D006D005D004123F9F5003022469CF
:1023E60090000EE0FF3395E0FEEF7802C333CE3364
:1023F600CED8F9FF90000DE0FD3395E0FC9002FC8D
:1024060075F0C0ED124526EC75F0C0A42583F58362
:10241600E5822FF582E5833EF583E0FCA3E0FDA38C
:10242600E0FEA3E0FFC004C005C006C0079000356B
:10243600E0FF3395E0FEEF7802C333CE33CED8F912
:102446002432F58274113EF583E0F8A3E0F9A3E0A7
:10245600FAA3E0FBD007D006D005D004123F9F6058
:102466006C406A90000EE0FF3395E0FE90000DE0B0
:10247600FD3395E0FC90003A75F030ED124526EC00
:1024860075F030A42583F583E5822FF582E5833E3A
:10249600F583E0FF3395E0FEEF4E703190000EE0DD
:1024A600FF3395E0FE90000DE03395E0FC90003A96
:1024B60075F030ED124526EC75F030A42583F583D2
:1024C600E5822FF582E5833EF5837401F090000ED8
:1024D600E004F002229E90000DE0FF3395E0FE7CC2
:1024E600007DC012433674FC2FF974023EFA7B015C
:1024F600900039E0FD12742490000DE004F00222F1
:10250600677BFF7A2F79FA12752FE490000DF09011
:10251600000DE0FF3395E0FEC3EF9408EE6480946F
:1025260080400302268EE03395E0FE74192FF58273
:1025360074123EF583E0FF90000CE05F7003022604
:1025460085E490000EF0900039E0FF90000EE0FE6A
:10255600C3EF6480F8EE6480984003022685E0FFAE
:102566003395E0FEEF7802C333CE33CED8F9FF9031
:10257600000DE0FD3395E0FC9002FC75F0C0ED1215
:102586004526EC75F0C0A42583F583E5822FF582F8
:10259600E5833EF583E0FCA3E0FDA3E0FEA3E0FFB8
:1025A600C004C005C006C007900035E0FF3395E0C3
:1025B600FEEF7802C333CE33CED8F9245EF58274AB
:1025C600113EF583E0F8A3E0F9A3E0FAA3E0FBD01F
:1025D60007D006D005D004123F9F5003022668900C
:1025E600000EE0FF3395E0FEEF7802C333CE33CE24
:1025F600D8F9FF90000DE0FD3395E0FC9002FC75E4
:10260600F0C0ED124526EC75F0C0A42583F583E5F0
:10261600822FF582E5833EF583E0FCA3E0FDA3E08F
:10262600FEA3E0FFC004C005C006C007900035E069
:10263600FF3395E0FEEF7802C333CE33CED8F924CC
:1026460032F58274113EF583E0F8A3E0F9A3E0FACF
:10265600A3E0FBD007D006D005D004123F9F600D43
:10266600400B7BFF7A3079E212752F80097BFF7A67
:102676003079E812752F90000EE004F002254C9098
:10268600000DE004F00225157BFF7A2E79D712752E
:102696002F9001BAE004F0021CED7F007E007D0061
:1026A6007C0012714A900035E004F0021C13900081
:1026B6000CE0FF1270E47BFF7A3079EE12752FE49E
:1026C60090000DF090000DE0FF3395E0FEC3EF940F
:1026D60008EE64809480400302276EE03395E0FEA6
:1026E60074192FF58274123EF583E0FF90000CE01A
:1026F6005F606CE490000EF0900039E0FF90000EF1
:10270600E0FEC3EF6480F8EE6480985052E0FF3339
:1027160095E0FE90000DE0FD3395E0FC90003A75E3
:10272600F030ED124526EC75F030A42583F583E5EF
:10273600822FF582E5833EF583E0FF3395E0FEEFD9
:102746004E600B7BFF7A3079E212752F80097BFF92
:102756007A3079E812752F90000EE004F080999097
:10276600000DE004F00226CA7BFF7A2E79D7127597
:102776002FE4FDFF12647C7BFF7A31790012752FFE
:06278600D2ACD2A880FED7
:01278C00222A
:10748500312C504F5745522C4F46460A00312C504F
:107495004F5745522C4F4E0A00312C54454D502C18
:1074A50053252E31660A00312C54454D503F0A00B4
:10647C00900978EFF0A3EDF0900978E0FF3395E008
:10648C00FEEF64014E701ED2A17B047DC07F011211
:10649C00618B7F017E001274557BFF7A7479857F46
:1064AC0001126FF322900978E0FF3395E0FEEF4E76
:1064BC00600302656D900F5404F0A37410F0E4A314
:1064CC00F0A3742FF0E4A3F0A304F0A304F0E4A36E
:1064DC00F0A3F07B017A0F79547D09FC12628D9048
:1064EC000AA2EEF0A3EFF0900AA2E0A3E0900F5DF9
:1064FC00F0900AA2E0900F5EF0900979E0FF3395DE
:10650C00E0FEEF4E7026D2A17B037D407F0112612D
:10651C008B7F017E001274557B017A0F79549009A0
:10652C0084E4F0A3740BF07F0112706E900979E093
:10653C00FF3395E0FEEF64014E7026D2A17B037D04
:10654C00C07F0112618B7F017E001274557B017A32
:10655C000F7954900984E4F0A3740BF07F0112704E
:02656C006E229D
:10638900901229EFF0A3EDF0901229E0FF3395E088
:10639900FEEF64014E701ED2A17B047DC07F011205
:1063A900618B7F017E001274557BFF7A7479927F2D
:1063B90001126FF322901229E0FF3395E0FEEF4EB0
:1063C900600302647B900F5404F0A37410F0E4A3FB
:1063D900F0A3742FF0E4A3F0A304F0A304F0E4A362
:1063E900F0A304F0FB7A0F79547D097C0012628DC9
:1063F900900AA2EEF0A3EFF0900AA2E0A3E0900FBA
:106409005DF0900AA2E0900F5EF090122AE0FF334F
:1064190095E0FEEF4E7026D2A17B037D407F0112ED
:10642900618B7F017E001274557B017A0F7954903C
:106439000984E4F0A3740BF07F0112706E90122AA4
:10644900E0FF3395E0FEEF64014E7026D2A17B0395
:106459007DC07F0112618B7F017E001274557B0123
:106469007A0F7954900984E4F0A3740BF07F011238
:03647900706E2220
:085D7400900978EFF0A3EDF0B7
:105D7C00900978E0FF3395E0FEEF64014E7056D247
:105D8C00A1FE7F64FD7B017A0F79541245787B016B
:105D9C007A0F79549009B174FFF0A37474F0A37462
:105DAC009EF090097AE0FCA3E0FDA3E0FEA3E0FFE7
:105DBC009009B41244CF1246777B047DC07F011248
:105DCC00618B7F017E001274557B017A0F79547FB1
:105DDC0001126FF322900978E0FF3395E0FEEF4E4D
:105DEC006003025F0FFFFEFDFC90097AE0F8A3E070
:105DFC00F9A3E0FAA3E0FB123F9F4025E4FFFE7DF0
:105E0C00207C4190097AE0F8A3E0F9A3E0FAA3E042
:105E1C00FB123DF912406790097EEEF0A3EFF08083
:105E2C0023E4FFFE7D207C4190097AE0F8A3E0F9A1
:105E3C00A3E0FAA3E0FB123DF912406790097EEE55
:105E4C00F0A3EFF0900F547401F0A37410F0E4A3DE
:105E5C00F0A3742BF0E4A3F0A304F0A304F09009D6
:105E6C007EE0FF3395E0900F5BEFF090097EA3E0AE
:105E7C00900F5CF07B017A0F79547D097C001262E3
:105E8C008D900AA2EEF0A3EFF0900AA2E0A3E090AE
:105E9C000F5DF0900AA2E0900F5EF0900979E0FFA0
:105EAC003395E0FEEF4E7026D2A17B037D407F013F
:105EBC0012618B7F017E001274557B017A0F79542D
:105ECC00900984E4F0A3740BF07F0112706E9009BA
:105EDC0079E0FF3395E0FEEF64014E7026D2A17B92
:105EEC00037DC07F0112618B7F017E001274557B94
:105EFC00017A0F7954900984E4F0A3740BF07F01BC
:035F0C0012706EA2
:015F0F00226F
:10515C009011F3EFF0A3EDF0A3EBF0A3EAF0A3E9C9
:01516C00F052
:10516D007E007F147D007B017A1179FB1245787EDC
:10517D00007F647D007B017A0F7954124578901180
:10518D00F3E0FF3395E0FEEF64014E600302525BE6
:10519D00D2A17B047DC07F0112618B7F017E001245
:1051AD0074557BFF7A7479AC7F01126FF3E4901123
:1051BD00F9F0C2A1539AFEE59A30E0FB539AFEE551
:1051CD009B640A60189011F9E02454F582E4340FC1
:1051DD00F583E59BF09011F9E004F080DAE490118D
:1051ED00F9F09011F9E0C3943274809480505CE032
:1051FD002454F582E4340FF583E0B42C287B017A36
:10520D001179FB12726C9011F5E0FBA3E0FAA3E0AB
:10521D00F91244817E007F147D007B017A1179FBA8
:10522D0012457880269011F9E02454F582E4340F6C
:10523D00F583E0FF9011F9E024FBF582E43411F5DC
:10524D0083EFF09011F9E004F08097D2A122901134
:10525D00F3E0FF3395E0FEEF4E60030253AD900F88
:10526D005404F0A37403F0E4A3F09011F8E0FF33BD
:10527D0095E0FEEF4E7004900F57F09011F8E0FF9F
:10528D003395E0FEEF64014E7006900F57742BF0CE
:10529D00E4900F58F0A304F0FB7A0F79547D067C4F
:1052AD000012628D900AA2EEF0A3EFF0900AA2E038
:1052BD00A3E0900F5AF0900AA2E0900F5BF09011CE
:1052CD00F4E0FF3395E0FEEF4E7028D2A17B037D15
:1052DD00407F0112618B7F017E001274557B017A34
:1052ED000F7954900984E4F0A37408F07F011270D3
:1052FD006EC2A19011F4E0FF3395E0FEEF64014E14
:10530D007028D2A17B037DC07F0112618B7F017E4E
:10531D00001274557B017A0F7954900984E4F0A33F
:10532D007408F07F0112706EC2A1539AFEE59A3097
:10533D00E0FB539AFE9011F9E024FBF582E4341161
:10534D00F583E59BF09011F9E004F0E06403700A39
:10535D009011FDE024059011FAF09011FAE0FF9004
:10536D0011F9E0B507C7800280C3D2A19011FEE00C
:10537D00FF3395E0AD07FCED7D00FCA3E02DFDE4D2
:10538D003CFCFEAF0512402EE4FBFA792078411269
:10539D003F029011F5E0FBA3E0FAA3E0F91244817E
:0153AD0022DD
:0832D9009011D1EFF0A3EDF01C
:1032E100D39011E0E0942C9011DFE0648094814050
:1032F100077401F0A3742CF0E49011E3F0A3F090B3
:1033010011DFE0FEA3E0FFC39011E4E09FEE6480D3
:10331100F89011E3E064809840030234319011EF9A
:103321001244DB000000007B017A0F79B8124E7065
:10333100EF700302341DE49011E5F0A3F09011DE6B
:10334100E0FF3395E0FEC39011E6E09FEE6480F864
:103351009011E5E064809850749011EFE0FCA3E0D7
:10336100FDA3E0FEA3E0FFC004C005C006C00790B6
:1033710011DBE0FBA3E0FAA3E0F99011E5E0FEA385
:10338100E0F5828E831242D5FF3395E0FEEF78029D
:10339100C333CE33CED8F924B8F582740F3EF5830A
:1033A100E0F8A3E0F9A3E0FAA3E0FBD007D006D050
:1033B10005D004123D089011EF1244CF9011E6E0C0
:1033C10004F070069011E5E004F002333E9011DE46
:1033D100E0FC124033A804A905AA06AB079011EF3F
:1033E100E0FCA3E0FDA3E0FEA3E0FF123F02C00466
:1033F100C005C006C0079011E3E0FEA3E07802C358
:1034010033CE33CED8F924A4F582740A3EF583D0A5
:1034110007D006D005D0041244CF80037F0022904C
:1034210011E4E004F070069011E3E004F0023300CF
:10343100900AA4E0FCA3E0FDA3E0FEA3E0FF90114D
:10344100E71244CF900AA4E0FCA3E0FDA3E0FEA3B1
:10345100E0FF9011EB1244CFE49011E3F0A3F09060
:1034610011DFE0FEA3E0FFC39011E4E09FEE648072
:10347100F89011E3E06480984003023550E0FEA328
:10348100E07802C333CE33CED8F924A4F582740A8E
:103491003EF583E0FCA3E0FDA3E0FEA3E0FF901175
:1034A100E7E0F8A3E0F9A3E0FAA3E0FB123F9F6095
:1034B1002C402A9011E3E0FEA3E07802C333CE331F
:1034C100CED8F924A4F582740A3EF583E0FCA3E08A
:1034D100FDA3E0FEA3E0FF9011E71244CF9011E3BA
:1034E100E0FEA3E07802C333CE33CED8F924A4F5AD
:1034F10082740A3EF583E0FCA3E0FDA3E0FEA3E0B5
:10350100FF9011EBE0F8A3E0F9A3E0FAA3E0FB12CE
:103511003F9F502A9011E3E0FEA3E07802C333CE2F
:1035210033CED8F924A4F582740A3EF583E0FCA3D6
:10353100E0FDA3E0FEA3E0FF9011EB1244CF901158
:10354100E4E004F070069011E3E004F002346090CE
:1035510011E7E0F8A3E0F9A3E0FAA3E0FBA3E0FCA4
:10356100A3E0FDA3E0FEA3E0FF123D047BCD7ACCF6
:10357100794C783E123F9F4003023705E49011E3F6
:10358100F0A3F09011E0E024FFFF9011DFE034FFA1
:10359100FEC39011E4E09FEE6480F89011E3E064D3
:1035A1008098505DE0FEA3E07802C333CE33CED8DD
:1035B100F924A8F582740A3EF583E0FCA3E0FDA39B
:1035C100E0FEA3E0FFC004C005C006C0079011E300
:1035D100E0FEA3E07802C333CE33CED8F924A4F5BC
:1035E10082740A3EF583D007D006D005D004124478
:1035F100CF9011E4E004F070069011E3E004F08054
:10360100829011EF1244DB000000007B017A0F79F8
:10361100B8124E70EF7003023702E49011E5F0A387
:10362100F09011DEE0FF3395E0FEC39011E6E09FDC
:10363100EE6480F89011E5E064809850749011EF89
:10364100E0FCA3E0FDA3E0FEA3E0FFC004C005C0D1
:1036510006C0079011DBE0FBA3E0FAA3E0F99011AB
:10366100E5E0FEA3E0F5828E831242D5FF3395E0BB
:10367100FEEF7802C333CE33CED8F924B8F5827485
:103681000F3EF583E0F8A3E0F9A3E0FAA3E0FBD055
:1036910007D006D005D004123D089011EF1244CF97
:1036A1009011E6E004F070069011E5E004F00236B6
:1036B100229011DEE0FC124033A804A905AA06AB52
:1036C100079011EFE0FCA3E0FDA3E0FEA3E0FF12F1
:1036D1003F02C004C005C006C0079011DFE0FEA391
:1036E100E07802C333CE33CED8F924A0F582740A30
:1036F1003EF583D007D006D005D0041244CF023462
:10370100317F0022E49011E3F0A3F09011E1E0FE9B
:10371100A3E0FFC39011E4E09FEE6480F89011E311
:10372100E064809840030237EE9011EF1244DB0011
:103731000000007B017A0F79B8124E70EF7003021E
:1037410037DAE49011E5F0A3F09011DEE0FF339554
:10375100E0FEC39011E6E09FEE6480F89011E5E091
:1037610064809850779011EFE0FCA3E0FDA3E0FEA8
:10377100A3E0FFC004C005C006C0079011DBE0FB59
:10378100A3E0FAA3E0F99011E5E0FEA3E0F5828E53
:10379100831242D5FF3395E0FEEF7802C333CE3377
:1037A100CED8F924B8F582740F3EF583E0F8A3E092
:1037B100F9A3E0FAA3E0FBD007D006D005D00412AC
:1037C1003D089011EF1244CF9011E6E004F070062D
:1037D1009011E5E004F002374A7F00229011E4E005
:1037E10004F070069011E3E004F002370C9011EF41
:1037F100E0FCA3E0FDA3E0FEA3E0FFC004C005C020
:1038010006C0079011DEE0FC124033A804A905AA06
:1038110006AB07D007D006D005D004123F029011A5
:10382100EF1244CF9011D3E0F8A3E0F9A3E0FAA39B
:10383100E0FB9011EFE0FCA3E0FDA3E0FEA3E0FFBD
:10384100123D041275F39011D7E0F8A3E0F9A3E05B
:10385100FAA3E0FB123F9F4003023CFEE4FFFEFDA2
:103861007C409011D3E0F8A3E0F9A3E0FAA3E0FBD8
:10387100123DF99011EFE0F8A3E0F9A3E0FAA3E01B
:10388100FB123D049011EF1244CF9011D1E0FFC023
:1038910007A3E0FDC0059011EFE0FCA3E0FDA3E06C
:1038A100FEA3E0FF90097A1244CFD005D007125D44
:1038B10074E49011E3F0A3F09011DFE0FEA3E0FFC8
:1038C100C39011E4E09FEE6480F89011E3E064801E
:1038D1009840030239EA9011EF1244DB0000000026
:1038E1007B017A0F79B8124E70EF70030239D6E47A
:1038F1009011E5F0A3F09011DEE0FF3395E0FEC3F7
:103901009011E6E09FEE6480F89011E5E064809804
:1039110050749011EFE0FCA3E0FDA3E0FEA3E0FFF3
:10392100C004C005C006C0079011DBE0FBA3E0FAAC
:10393100A3E0F99011E5E0FEA3E0F5828E83124247
:10394100D5FF3395E0FEEF7802C333CE33CED8F9FD
:1039510024B8F582740F3EF583E0F8A3E0F9A3E003
:10396100FAA3E0FBD007D006D005D004123D0890A1
:1039710011EF1244CF9011E6E004F070069011E5CA
:10398100E004F00238F79011DEE0FC124033A804A5
:10399100A905AA06AB079011EFE0FCA3E0FDA3E0A7
:1039A100FEA3E0FF123F02C004C005C006C007909D
:1039B10011E3E0FEA3E07802C333CE33CED8F9247D
:1039C100A4F582740A3EF583D007D006D005D00451
:1039D1001244CF80037F00229011E4E004F07006CE
:1039E1009011E3E004F00238B9900AA4E0FCA3E0EE
:1039F100FDA3E0FEA3E0FF9011E71244CF900AA4DB
:103A0100E0FCA3E0FDA3E0FEA3E0FF9011EB124474
:103A1100CFE49011E3F0A3F09011DFE0FEA3E0FF0B
:103A2100C39011E4E09FEE6480F89011E3E06480BC
:103A3100984003023B09E0FEA3E07802C333CE3392
:103A4100CED8F924A4F582740A3EF583E0FCA3E004
:103A5100FDA3E0FEA3E0FF9011E7E0F8A3E0F9A3E6
:103A6100E0FAA3E0FB123F9F602C402A9011E3E0B3
:103A7100FEA3E07802C333CE33CED8F924A4F58275
:103A8100740A3EF583E0FCA3E0FDA3E0FEA3E0FFA2
:103A91009011E71244CF9011E3E0FEA3E07802C356
:103AA10033CE33CED8F924A4F582740A3EF583E0EF
:103AB100FCA3E0FDA3E0FEA3E0FF9011EBE0F8A37F
:103AC100E0F9A3E0FAA3E0FB123F9F502A9011E333
:103AD100E0FEA3E07802C333CE33CED8F924A4F5B7
:103AE10082740A3EF583E0FCA3E0FDA3E0FEA3E0BF
:103AF100FF9011EB1244CF9011E4E004F0700690B6
:103B010011E3E004F0023A199011E7E0F8A3E0F9BB
:103B1100A3E0FAA3E0FBA3E0FCA3E0FDA3E0FEA386
:103B2100E0FF123D047BCD7ACC794C783E123F9F69
:103B31004003023CBEE49011E3F0A3F09011E0E0F9
:103B410024FFFF9011DFE034FFFEC39011E4E09FFA
:103B5100EE6480F89011E3E0648098505DE0FEA38C
:103B6100E07802C333CE33CED8F924A8F582740AA3
:103B71003EF583E0FCA3E0FDA3E0FEA3E0FFC0046B
:103B8100C005C006C0079011E3E0FEA3E07802C3C0
:103B910033CE33CED8F924A4F582740A3EF583D00E
:103BA10007D006D005D0041244CF9011E4E004F010
:103BB10070069011E3E004F080829011EF1244DB73
:103BC100000000007B017A0F79B8124E70EF70038C
:103BD100023CBBE49011E5F0A3F09011DEE0FF336D
:103BE10095E0FEC39011E6E09FEE6480F89011E548
:103BF100E064809850749011EFE0FCA3E0FDA3E035
:103C0100FEA3E0FFC004C005C006C0079011DBE0C1
:103C1100FBA3E0FAA3E0F99011E5E0FEA3E0F58251
:103C21008E831242D5FF3395E0FEEF7802C333CE87
:103C310033CED8F924B8F582740F3EF583E0F8A3AA
:103C4100E0F9A3E0FAA3E0FBD007D006D005D00449
:103C5100123D089011EF1244CF9011E6E004F0708C
:103C6100069011E5E004F0023BDB9011DEE0FC126E
:103C71004033A804A905AA06AB079011EFE0FCA305
:103C8100E0FDA3E0FEA3E0FF123F02C004C005C0B7
:103C910006C0079011DFE0FEA3E07802C333CE3304
:103CA100CED8F924A0F582740A3EF583D007D00658
:103CB100D005D0041244CF0239EA7F0022E49011EA
:103CC100E3F0A3F09011E1E0FEA3E0FFC39011E463
