:1031010000010506030408090F10141512131718FE
:10311100020763630A0B63630D0E63631116636336
:0C3121000C63636380402010080402016E
:100026007BFF7A31792578347C017D017E007F085B
:100036001211B19003F1E4F0A374FEF09003EFE423
:10004600F0A37404F0122FD27F07122C4CD2AC30DE
:1000560007FDC2077B017A00790F12280B90000F6B
:10006600E05408FF3395E0FEEF64084E6003020B90
:10007600E8D2A81226673006FDC2067F0A7E001265
:1000860030D19003F3E06401600302046D9002DF57
:10009600747FF07B80FDE4FF1222D07F017E001288
:1000A60030D19003EFE0A3E0FB7DFEE4FF121DF5E7
:1000B6007F647E001230D11231B6E490000DF090CC
:1000C600000DE0FF3395E0FEC3EF9430EE648094BC
:1000D60080504AE03395E0FEEF7803C333CE33CE4B
:1000E600D8F9243CF58274013EF58312139600007C
:1000F600000090000DE0FF3395E0FEEF7803C33378
:10010600CE33CED8F92440F58274013EF58312131E
:10011600960000000090000DE004F080A2E490003C
:100126000CF090000CE0FF3395E0FEC3EF940AEE6E
:1001360064809480400302022BD2AA3005FDC205DA
:100146007F0A7E001230D1122E787FE87E031230AD
:10015600D17B017A00797012208D7B017A0079704B
:10016600C0039002DFEBF0A37404F0A37419F0D07F
:1001760003122D72E490000DF090000DE0FF339510
:10018600E0FEC3EF9430EE648094804003020217D1
:10019600E03395E0FEEF7803C333CE33CED8F924AF
:1001A6003CF58274013EF583C083C082E0F8A3E08B
:1001B600F9A3E0FAA3E0FBC000C001C002C00390AF
:1001C600000DE0FF3395E0FEEF25E0FFEE33FE7411
:1001D600192FF58274043EF583E0FCA3E0FDEC12D2
:1001E6000EB1E4FBFA79807841120D85E4FBFA79C9
:1001F600207841120D85D003D002D001D000120C18
:1002060091D082D08312138A90000DE004F002018F
:100216007F7B017A0479197D30122EF790000CE06D
:1002260004F00201287B017A0279BC1224ABE49027
:10023600000DF090000DE0FF3395E0FEC3EF943023
:10024600EE64809480400302038A90000FE0540716
:10025600FF3395E0FEEF64074E60030202EA90006A
:100266000DE0FF75F00C1211D7FF3395E0FEEF7825
:1002760002C333CE33CED8F924BCF58274023EF5E0
:1002860083E0F8A3E0F9A3E0FAA3E0FBC000C00115
:10029600C002C00390000DE0FF3395E0FEEF780347
:1002A600C333CE33CED8F9243CF58274013EF583B0
:1002B600E0FCA3E0FDA3E0FEA3E0FFD003D002D064
:1002C60001D000120C8D7BCD7ACC79CC783D120C06
:1002D60091120E9BE4FBFA7980783E120D85900010
:1002E600D012138A9000D0E0FCA3E0FDA3E0FEA3A9
:1002F600E0FF120EEA90000EEFF09000D0E0FCA3B3
:10030600E0FDA3E0FEA3E0FF120EEAAD07AC06ECAB
:10031600120EB1A804A905AA06AB079000D0E0FC0E
:10032600A3E0FDA3E0FEA3E0FF120C8DE4FBFAF9C7
:10033600783F120E226002501A90000EE004F0E0A0
:10034600FF3395E0FED3EF941FEE64809480400364
:10035600741FF090000EE0FD3395E0FC90000DE078
:10036600FF3395E0FEEF25E0FFEE33FE74102FF528
:100376008274003EF583ECF0A3EDF090000DE004EE
:10038600F00202397B017A0079107D30122EF77B5C
:10039600017A007910C0039002DFEBF0A37404F039
:1003A600A37419F0D003122DF5E490000DF090001F
:1003B6000DE0FF3395E0FEC3EF9430EE6480948049
:1003C600400302086AE03395E0FEEF25E0FFEE33D6
:1003D600FE74192FF58274043EF583E0A3E09000C5
:1003E6000EF0E030E41890000DE0FF3395E0FE7467
:1003F600D42FF58274003EF58374FFF080169000CA
:100406000DE0FF3395E0FE74D42FF58274003EF5BF
:100416008374FEF090000EE0FFC454F0F09003EFFA
:10042600E0A3E0FF90000DE0FD3395E0FC74042DA1
:10043600F58274013CF583EFF090000DE0FF3395F3
:10044600E0FE74042FF58274013EF583C083C082FA
:10045600E0FF90000EE0FEEF4ED082D083F09000D9
:100466000DE004F00203B49003F3E06402600302BB
:10047600086A9002DF747FF07B80FDE4FF1222D0D1
:100486007F017E001230D19003F1E0A3E054FEFD1F
:100496009003EFE0A3E0FBE4FF121DF57F647E000E
:1004A6001230D11231B6E490000DF090000DE0FF4D
:1004B6003395E0FEC3EF9430EE64809480504AE0BA
:1004C6003395E0FEEF7803C333CE33CED8F9243C20
:1004D600F58274013EF58312139600000000900029
:1004E6000DE0FF3395E0FEEF7803C333CE33CED86D
:1004F600F92440F58274013EF5831213960000003C
:100506000090000DE004F080A2E490000CF0900052
:100516000CE0FF3395E0FEC3EF940AEE648094800E
:100526004003020617D2AA3005FDC2057F0A7E00E7
:100536001230D1122E787FE87E031230D17B017AF9
:1005460000797012208D7B017A007970C0039002C9
:10055600DFEBF0A37404F0A37419F0D003122D722C
:10056600E490000DF090000DE0FF3395E0FEC3EF40
:100576009430EE648094804003020603E03395E0F5
:10058600FEEF7803C333CE33CED8F9243CF582741C
:10059600013EF583C083C082E0F8A3E0F9A3E0FA48
:1005A600A3E0FBC000C001C002C00390000DE0FF45
:1005B6003395E0FEEF25E0FFEE33FE74192FF5824A
:1005C60074043EF583E0FCA3E0FDEC120EB1E4FBFF
:1005D600FA79807841120D85E4FBFA792078411288
:1005E6000D85D003D002D001D000120C91D082D05C
:1005F6008312138A90000DE004F002056B7B017AEA
:100606000479197D30122EF790000CE004F00205F3
:10061600147B017A0279BC1224ABE490000DF090B1
:10062600000DE0FF3395E0FEC3EF9430EE64809456
:1006360080400302077590000FE05407FF3395E0F2
:10064600FEEF64074E60030206D590000DE0FF75CD
:10065600F00C1211D7FF3395E0FEEF7802C333CECC
:1006660033CED8F924BCF58274023EF583E0F8A3B4
:10067600E0F9A3E0FAA3E0FBC000C001C002C0039A
:1006860090000DE0FF3395E0FEEF7803C333CE33E1
:10069600CED8F9243CF58274013EF583E0FCA3E054
:1006A600FDA3E0FEA3E0FFD003D002D001D00012EC
:1006B6000C8D7BCD7ACC79CC783D120C91120E9BA9
:1006C600E4FBFAF9783E120D859000D012138A9059
:1006D60000D0E0FCA3E0FDA3E0FEA3E0FF120EEADB
:1006E60090000EEFF09000D0E0FCA3E0FDA3E0FE4A
:1006F600A3E0FF120EEAAD07AC06EC120EB1A80499
:10070600A905AA06AB079000D0E0FCA3E0FDA3E094
:10071600FEA3E0FF120C8DE4FBFAF9783F120E22DD
:100726006002501A90000EE004F0E0FF3395E0FE00
:10073600D3EF943FEE648094804003743FF09000C2
:100746000EE0FD3395E0FC90000DE0FF3395E0FEF2
:10075600EF25E0FFEE33FE74102FF58274003EF5B0
:1007660083ECF0A3EDF090000DE004F00206257B8B
:10077600017A0079107D30122EF77B017A0079100C
:10078600C0039002DFEBF0A37404F0A37419F0D059
:1007960003122DF5E490000DF090000DE0FF339567
:1007A600E0FEC3EF9430EE64809480400302086A52
:1007B600E03395E0FEEF25E0FFEE33FE74192FF5EA
:1007C6008274043EF583E0A3E090000EF0E030E58D
:1007D600209003F1E0A3E04401FF90000DE0FD331B
:1007E60095E0FC74D42DF58274003CF583EFF0801F
:1007F6001E9003F1E0A3E054FEFF90000DE0FD33F0
:1008060095E0FC74D42DF58274003CF583EFF090EE
:10081600000EE0FF33333354F8F09003EFE0A3E02B
:10082600FF90000DE0FD3395E0FC74042DF5827415
:10083600013CF583EFF090000DE0FF3395E0FE7488
:10084600042FF58274013EF583C083C082E0FF90D9
:10085600000EE0FEEF4ED082D083F090000DE00453
:10086600F002079FD2A83006FDC2067F0A7E00125C
:1008760030D1D2AA3005FDC2057F0A7E001230D1E2
:100886007B017A0079D47D95E4FF121A0D7F017EF3
:10089600001230D17B017A0179047D637F01121A3F
:1008A6000D7FE87E031230D11231B67FB87E0B126F
:1008B60030D17B017A0079D4C0039002E0EBF0A33B
:1008C6007401F0A37404F0D0037F031214BF7E00FA
:1008D6007F607D007B017A00797012140BE4900032
:1008E6000DF090000DE0FF3395E0FEC3EF9430EE7F
:1008F6006480948040030209829003F3E0640170EF
:100906003490000DE03395E0FE74D42FF582740028
:100916003EF583E0FD90000DE03395E0FEEF25E027
:10092600FFEE33FE74702FF58274003EF583E4F01B
:10093600A3EDF0803E9003F3E06402703690000D64
:10094600E0FF3395E0FE74D42FF58274003EF58304
:10095600E054FEFD90000DE0FF3395E0FEEF25E04C
:10096600FFEE33FE74702FF58274003EF583E4F0DB
:10097600A3EDF090000DE004F00208E87B017A0098
:100986007970C0039002DFEBF0A37404F0A374192E
:10099600F0D003122D727B017A0479197D30122E64
:1009A600F77E007F607D007B017A00797012140B60
:1009B600E490000DF090000DE0FF3395E0FEC3EFEC
:1009C6009430EE648094804003020A7F9003F3E043
:1009D6006401703790000DE03395E0FE74042FF546
:1009E6008274013EF583E054F0FD90000DE0FF3384
:1009F60095E0FEEF25E0FFEE33FE74702FF582746E
:100A0600003EF583E4F0A3EDF080659003F3E06427
:100A160002705D90000DE0FF3395E0FE74D42FF573
:100A26008274003EF583E0540175F020A4FF900027
:100A36000DE0FD3395E0FC74042DF58274013CF560
:100A460083E054F8FD131313541FFDE5F0FCEF4D3E
:100A5600FD90000DE0FF3395E0FEEF25E0FFEE335D
:100A6600FE74702FF58274003EF583ECF0A3EDF072
:100A760090000DE004F00209BB7B017A007970C09A
:100A8600039002DFEBF0A37404F0A37419F0D00313
:100A9600122D727B017A0479197D30122EF77E00B1
:100AA6007F607D007B017A00797012140BE4900060
:100AB6000DF090000DE0FF3395E0FEC3EF9430EEAD
:100AC600648094804003020B559003F3E064017048
:100AD6003790000DE03395E0FE74042FF582740123
:100AE6003EF583E0540FFD90000DE0FF3395E0FEE8
:100AF600EF25E0FFEE33FE74702FF58274003EF5AD
:100B060083E4F0A3EDF0803E9003F3E064027036D8
:100B160090000DE0FF3395E0FE74042FF58274011A
:100B26003EF583E05407FD90000DE0FF3395E0FEAF
:100B3600EF25E0FFEE33FE74702FF58274003EF56C
:100B460083E4F0A3EDF090000DE004F0020AB87B18
:100B5600017A007970C0039002DFEBF0A37404F011
:100B6600A37419F0D003122D727B017A0479197DD2
:100B760030122EF77FE87E031230D1E490000CF09D
:100B860090000CE0FF3395E0FEC3EF940AEE64801C
:100B96009480504ED2AA3005FDC2057F0A7E00120F
:100BA60030D1122E787FE87E031230D17B017A0095
:100BB600797012208D7B017A007970C0039002DF74
:100BC600EBF0A37404F0A37419F0D003122D727B1A
:100BD600017A0479197D30122EF790000CE004F0AA
:100BE600809EC208C206D2A830080302005A300608
:100BF600F7C2ACC2067F0A7E001230D19002DF74C3
:100C06007FF07B80FDE4FF1222D07F017E00123050
:100C1600D1E490000CF090000CE0FF3395E0FEC3A9
:100C2600EF940AEE64809480504ED2AA3005FDC23D
:100C3600057F0A7E001230D1122E787FE87E0312DD
:100C460030D17B017A00797012208D7B017A007990
:100C560070C0039002DFEBF0A37404F0A37419F0E4
:100C6600D003122D727B017A0479197D30122EF78A
:100C760090000CE004F0809ED2A8C298C299D2AC33
:030C8600020BEE70
:010C89002248
:0430660041049A0087
:1030D100E4FDFC438E805389F0758ACD758CD4C292
:1030E1008DD2A9D28C90049AE064027006F00DEDA5
:0F30F10070010CEDB507EEECB506EAC28CC2A972
:0131000022AC
:03000B000231E1DE
:1031E100C0E0C083C08290049AE004F0D082D08312
:0331F100D0E032F9
:10315400E490049AF0438E805389F0758A91758CBB
:10316400FFC28DD2A9D28C90049AE0640170F8C297
:053174008CC2A9F0224D
:10317900E490049AF0438E805389F0758AD1758C56
:10318900FAC28DD2A9D28C90049AE0640170F8C277
:053199008CC2A9F02228
:10312D00E4900325F0A3F0438E805389F0758A292E
:10313D00758CCCC28DD2A9D28C90049AE0640170AA
:06314D00F8C28CC2A9F0DB
:013153002259
:102F6A001A20191610150F140E0A04030100272639
:102F7A00252B242A1B2113292C1106230B05120C9D
:102F8A00090208070D1C1D222F282E2D1F181E1797
:102F9A000D0C210B0A1D1A232220091C1F240806C6
:102FAA0004191E160705032F2D02001425262E2CA0
:102FBA000115271B12100F0E29171311182B2A2877
:082FCA00010204081020408000
:10306A00602004790001000200040008001000201A
:10307A000040008001000200040008001000200047
:0E308A004000800047041208060805050808EB
:102D72009002DCEBF0A3EAF0A3E9F0E4900499F00E
:102D8200900499E0FF3395E0FEC3EF9430EE648047
:102D92009480505EE03395E0FEEF25E0FFEE33FED7
:102DA2009002DCE0FBA3E0FAA3E0F98F828E8312AB
:102DB20012A6FD900499E0FF3395E0FE746A2FF5A8
:102DC20082742F3EF583E493FF3395E0FEEF25E016
:102DD200FFEE33FE9002DFE0FBA3E0FAA3E0F98FFF
:102DE200828E83E5F08DF012132B900499E004F0AB
:032DF200808E22AE
:102DF5009002DCEBF0A3EAF0A3E9F0E4900499F08B
:102E0500900499E0FF3395E0FEC3EF9430EE6480C3
:102E15009480505EE03395E0FEEF25E0FFEE33FE53
:102E25009002DCE0FBA3E0FAA3E0F98F828E831227
:102E350012A6FD900499E0FF3395E0FE749A2FF5F4
:102E450082742F3EF583E493FF3395E0FEEF25E092
:102E5500FFEE33FE9002DFE0FBA3E0FAA3E0F98F7B
:102E6500828E83E5F08DF012132B900499E004F027
:032E7500808E222A
:10309D00EF3395E0FEEF64014E70167580FF43909F
:1030AD003F75A0FF43C01F43C83E75E8FF75F8FF8D
:1030BD0022E4F5805390C0F5A053C0E053C8C1F58C
:0430CD00E8F5F82208
:10319E00D2C843B0C012312DE4FF12309DC2C81206
:0831AE00312DD2C812312D228F
:102E780012319E9002DC74CCF0E4A3F09002DDE005
:102E8800C39408748094805026E4FF12309DC2C811
:102E98001231549002DCE030E002D2C8123179D20B
:102EA800C89002DCE0FFC313F0A3E004F080CD1269
:102EB800312D9002DC7444F0E4A3F09002DDE0C30D
:102EC8009408748094805026E4FF12309DC2C81282
:102ED80031549002DCE030E002D2C8123179D2C815
:0E2EE8009002DCE0FFC313F0A3E004F080CD05
:012EF60022B9
:0B22D0009002DCEFF0A3EDF0A3EBF0B8
:1022DB0012319E9002E074CCF0E4A3F09002E1E0A6
:1022EB00C39408748094805026E4FF12309DC2C8BA
:1022FB001231549002E0E030E002D2C8123179D2B0
:10230B00C89002E0E0FFC313F0A3E004F080CD120D
:10231B00312D9002E0744EF0E4A3F09002E1E0C3A3
:10232B009408748094805026E4FF12309DC2C8122A
:10233B0031549002E0E030E002D2C8123179D2C8B9
:10234B009002E0E0FFC313F0A3E004F080CD123164
:10235B002D9002DDE09002E0F0E4A3F09002E1E0CA
:10236B00C39408748094805026E4FF12309DC2C839
:10237B001231549002E0E030E002D2C8123179D22F
:10238B00C89002E0E0FFC313F0A3E004F080CD128D
:10239B00312D9002DEE09002E0F0E4A3F09002E138
:1023AB00E0C39408748094805026E4FF12309DC2E1
:1023BB00C81231549002E0E030E002D2C8123179F9
:1023CB00D2C89002E0E0FFC313F0A3E004F080CD8D
:1023DB0012312D9002DFE0A3F0E4A3F09002E1E0D4
:1023EB00C39408748094805026E4FF12309DC2C8B9
:1023FB001231549002E0E030E002D2C8123179D2AF
:10240B00C89002E0E0FFC313F0A3E004F080CD908E
:10241B0002DCE0640160030224AA12319E9002E008
:10242B0074CCF0E4A3F09002E1E0C39408748094C0
:10243B00805026E4FF12309DC2C81231549002E046
:10244B00E030E002D2C8123179D2C89002E0E0FF4E
:10245B00C313F0A3E004F080CD12312D9002E07491
:10246B0048F0E4A3F09002E1E0C3940874809480F8
:10247B005026E4FF12309DC2C81231549002E0E0A6
:10248B0030E002D2C8123179D2C89002E0E0FFC32B
:0F249B0013F0A3E004F080CD7F647E001230D1F7
:0124AA00220F
:0B208D009002DCEBF0A3EAF0A3E9F006
:10209800E49002E2F09002E2E0C39430748094800D
:1020A80050269002DCE0FBA3E0FAA3E0F99002E2FC
:1020B800E075F002A4F58285F083E4F5F012132BA5
:1020C8009002E2E004F080CD12319E9002DF74CCE1
:1020D800F0E4A3F09002E0E0C39408748094805088
:1020E80026E4FF12309DC2C81231549002DFE0305E
:1020F800E002D2C8123179D2C89002DFE0FFC313E0
:10210800F0A3E004F080CD12312D9002DF74BEF010
:10211800E4A3F09002E0E0C3940874809480502611
:10212800E4FF12309DC2C81231549002DFE030E063
:1021380002D2C8123179D2C89002DFE0FFC313F08F
:10214800A3E004F080CDE49002E0F09002E0E0C368
:10215800941074809480400302220C43B0C0E4FFC2
:1021680012309DC2C8123154D2C87F0112309D531B
:10217800B03FC2C81231547892A68008A69008A62B
:10218800A008A6C0E5C8543E08F608A6E808A6F8C0
:102198007892E6FF9002E0E075F007A42422F8A602
:1021A800077893E6FFE075F007A42423F8A60778DC
:1021B80094E6FFE075F007A42424F8A6077895E6CE
:1021C800FFE075F007A42425F8A6077896E6FFC374
:1021D80013FFE075F007A42426F8A6077897E6FF12
:1021E800E075F007A42427F8A6077898E6FFE075BD
:1021F800F007A42428F8A6071231799002E0E00439
:10220800F0022153E49002E0F09002E0E0C3941061
:102218007480948040030222CFE4A3F0A3F09002DC
:10222800E2E0C394077480948040030222C6E4A3CA
:10223800F09002E2E02412F582E43404F583E0FF32
:102248009002E3E0C39F506D9002E2E0FF9002E04D
:10225800E075F007A424222FF8E6FF9002E3E025BA
:10226800E02479F582E43404F583E0FCA3E0FDE49E
:10227800ED5F60329002E0E025E02479F582E434F5
:1022880004F583E0FEA3E0FF9002DCE0FBA3E0FAA4
:10229800A3E0F99002E1E075F002A4F58285F083ED
:1022A800EE8FF01212DE9002E1E004F09002E3E01B
:1022B80004F00222399002E2E004F00222269002A1
:0722C800E0E004F002221126
:0122CF0022EC
:0B1DF5009002DCEFF0A3EDF0A3EBF098
:101E000012319E9002DF74CCF0E4A3F09002E0E087
:101E1000C39408748094805026E4FF12309DC2C899
:101E20001231549002DFE030E002D2C8123179D290
:101E3000C89002DFE0FFC313F0A3E004F080CD12EE
:101E4000312D9002DF7468F0E4A3F09002E0E0C36B
:101E50009408748094805026E4FF12309DC2C8120A
:101E600031549002DFE030E002D2C8123179D2C89A
:101E70009002DFE0FFC313F0A3E004F080CD123145
:101E80002D12319E9002DF74CCF0E4A3F09002E0BA
:101E9000E0C39408748094805026E4FF12309DC201
:101EA000C81231549002DFE030E002D2C81231791A
:101EB000D2C89002DFE0FFC313F0A3E004F080CDAE
:101EC00012312D9002DF7495F0E4A3F09002E0E06F
:101ED000C39408748094805026E4FF12309DC2C8D9
:101EE0001231549002DFE030E002D2C8123179D2D0
:101EF000C89002DFE0FFC313F0A3E004F080CD122E
:101F0000312D9002DDE09002DFF0E4A3F09002E0DA
:101F1000E0C39408748094805026E4FF12309DC280
:101F2000C81231549002DFE030E002D2C812317999
:101F3000D2C89002DFE0FFC313F0A3E004F080CD2D
:101F400012312D12319E9002DF74CCF0E4A3F09098
:101F500002E0E0C39408748094805026E4FF1230BD
:101F60009DC2C81231549002DFE030E002D2C812A4
:101F70003179D2C89002DFE0FFC313F0A3E004F090
:101F800080CD12312D9002DF7463F0E4A3F0900253
:101F9000E0E0C39408748094805026E4FF12309DE2
:101FA000C2C81231549002DFE030E002D2C81231D0
:101FB00079D2C89002DFE0FFC313F0A3E004F08001
:101FC000CD12312D9002DEE0A3F0E4A3F09002E008
:101FD000E0C39408748094805026E4FF12309DC2C0
:101FE000C81231549002DFE030E002D2C8123179D9
:101FF000D2C89002DFE0FFC313F0A3E004F080CD6D
:102000009002DCE06401600302208C12312D123159
:102010009E9002DF74CCF0E4A3F09002E0E0C39461
:1020200008748094805026E4FF12309DC2C812319B
:10203000549002DFE030E002D2C8123179D2C89069
:1020400002DFE0FFC313F0A3E004F080CD12312DD6
:102050009002DF7494F0E4A3F09002E0E0C39408EF
:10206000748094805026E4FF12309DC2C81231540F
:102070009002DFE030E002D2C8123179D2C890027B
:0C208000DFE0FFC313F0A3E004F080CD0C
:01208C002231
:101A0D009002DCEFF0A3EDF0A3EBF0A3EAF0A3E975
:011A1D00F0D8
:101A1E00E49002E2F07BFF7A2F79CA781D7C037D79
:101A2E0001FE7F081211B1E49002E3F09002E3E0B0
:101A3E00C3940874809480503FE4A3F09002E4E0D5
:101A4E00C39407748094805027E0FF9002E3E07502
:101A5E00F007A424E5F582E43402F583E5822FF540
:101A6E0082E43583F583E4F09002E4E004F080CC68
:101A7E009002E3E004F080B4E49002E3F09002E31D
:101A8E00E0C39408748094804003021B3DE49002EE
:101A9E00E2F09002E4F09002E4E0C39407748094C4
:101AAE00804003021B34E4FF9002E4E02412F5822E
:101ABE00E43404F583E0FEEFC39E50619002DEE055
:101ACE00FBA3E0FAA3E0F99002E2E0F58275830051
:101ADE00121212FE9002E3E0241DF582E43403F5A7
:101AEE0083E05E602F741D2FF582E43403F583E0EE
:101AFE00FE9002E4E0FD9002E3E075F007A424E519
:101B0E00F582E43402F583E5822DF582E43583F522
:101B1E0083E02EF09002E2E004F00F808B9002E45E
:101B2E00E004F0021AA49002E3E004F0021A8B1211
:101B3E00319E9002E174CCF0E49002E3F09002E367
:101B4E00E0C39408748094805028E4FF12309DC244
:101B5E00C81231549002E1E030E002D2C81231795D
:101B6E00D2C89002E1E0FFC313F09002E3E004F06C
:101B7E0080CB12312D9002E17468F0E49002E3F014
:101B8E009002E3E0C39408748094805028E4FF121E
:101B9E00309DC2C81231549002E1E030E002D2C84A
:101BAE00123179D2C89002E1E0FFC313F09002E344
:101BBE00E004F080CB12319E9002E174CCF0E49000
:101BCE0002E3F09002E3E0C39408748094805028FE
:101BDE00E4FF12309DC2C81231549002E1E030E0B1
:101BEE0002D2C8123179D2C89002E1E0FFC313F0DD
:101BFE009002E3E004F080CB12312D9002DDE090F4
:101C0E0002E1F0E49002E3F09002E3E0C394087482
:101C1E008094805028E4FF12309DC2C81231549037
:101C2E0002E1E030E002D2C8123179D2C89002E16E
:101C3E00E0FFC313F09002E3E004F080CBE49002E7
:101C4E00E3F09002E3E0C3940874809480400302B2
:101C5E001D63E075F007A424E5F582E43402F583F4
:101C6E00E07892F69002E3E075F007A424E7F5829F
:101C7E00E43402F583E07894F69002E3E075F00721
:101C8E00A424EAF582E43402F583E07897F6900214
:101C9E00E3E075F007A424EBF582E43402F583E06B
:101CAE0008F69002E3E075F007A424E9F582E43427
:101CBE0002F583E0FF25E0F09002E3E075F007A463
:101CCE0024E9F582E43402F583E054FEF0E4FF12D9
:101CDE00309DC2C89002E3E075F007A424E6F582B9
:101CEE00E43402F583E0FFE59054C0FEEF4E7893A6
:101CFE00F69002E3E075F007A424E8F582E43402DE
:101D0E00F583E0FFE5C054E0FEEF4E7895F69002C5
:101D1E00E3E075F007A424E9F582E43402F583E0EC
:101D2E00FFE5C854C1FEEF4E08F67892E6F580083E
:101D3E00E6F59008E6F5A008E6F5C008E6F5C80851
:101D4E00E6F5E808E6F5F8123179D2C89002E3E03C
:101D5E0004F0021C509002DCE064016003021DF4EA
:101D6E0012319E9002E174CCF0E49002E3F0900206
:101D7E00E3E0C39408748094805028E4FF12309DF1
:101D8E00C2C81231549002E1E030E002D2C81231E2
:101D9E0079D2C89002E1E0FFC313F09002E3E004B1
:101DAE00F080CB12312D9002E17494F0E49002E3B6
:101DBE00F09002E3E0C39408748094805028E4FF0E
:101DCE0012309DC2C81231549002E1E030E002D2CE
:101DDE00C8123179D2C89002E1E0FFC313F090022D
:061DEE00E3E004F080CBED
:011DF40022CC
:0E14BF009002DCEFF0A3EBF0A3EAF0A3E9F05B
:1014CD00E49002E6F09002E6E0C3943074809480DC
:1014DD0050389002DDE0FBA3E0FAA3E0F99002E6BC
:1014ED00E0F582758300E41212849002E0E0FBA324
:1014FD00E0FAA3E0F99002E6E0F582758300E412CC
:10150D0012849002E6E004F080BB12319E9002DC62
:10151D00E06403707B9002E374CCF0E4A3F09002DE
:10152D00E4E0C39408748094805026E4FF12309D4B
:10153D00C2C81231549002E3E030E002D2C8123139
:10154D0079D2C89002E3E0FFC313F0A3E004F0806A
:10155D00CD12312D9002E374B8F0E4A3F09002E4C3
:10156D00E0C39408748094805026E4FF12309DC22D
:10157D00C81231549002E3E030E002D2C812317942
:10158D00D2C89002E3E0FFC313F0A3E004F080CDD6
:10159D0012312D12319E9002E374CCF0E4A3F09041
:1015AD0002E4E0C39408748094805026E4FF123066
:1015BD009DC2C81231549002E3E030E002D2C8124D
:1015CD003179D2C89002E3E0FFC313F0A3E004F039
:1015DD0080CD12312D9002E37468F0E4A3F09002F7
:1015ED00E4E0C39408748094805026E4FF12309D8B
:1015FD00C2C81231549002E3E030E002D2C8123179
:10160D0079D2C89002E3E0FFC313F0A3E004F080A9
:10161D00CD12312D12319E9002E374CCF0E4A3F083
:10162D009002E4E0C39408748094805026E4FF1285
:10163D00309DC2C81231549002E3E030E002D2C8AE
:10164D00123179D2C89002E3E0FFC313F0A3E00496
:10165D00F080CD12312D9002E37493F0E4A3F0905D
:10166D0002E4E0C39408748094805026E4FF1230A5
:10167D009DC2C81231549002E3E030E002D2C8128C
:10168D003179D2C89002E3E0FFC313F0A3E004F078
:10169D0080CDE49002E4F09002E4E0C394087480FD
:1016AD009480400302175D43B0C0E4FF12309DC229
:1016BD00C8123154D2C87F0112309D53B03FC2C8F9
:1016CD001231547892A68008A69008A6A008A6C04C
:1016DD00E5C8543E08F608A6E808A6F87892E6FF95
:1016ED009002E4E075F007A42422F8A6077893E6AB
:1016FD00FFE075F007A42423F8A6077894E6FFE031
:10170D0075F007A42424F8A6077895E6FFE075F098
:10171D0007A42425F8A6077896E6FFC313FFE07506
:10172D00F007A42426F8A6077897E6FFE075F007E2
:10173D00A42427F8A6077898E6FFE075F007A424FF
:10174D0028F8A6071231799002E4E004F00216A4FD
:10175D00E49002E4F09002E4E0C394087480948075
:10176D004003021818E4A3F0A3F09002E6E0C3943E
:10177D000774809480400302180FE4A3F09002E6F2
:10178D00E02412F582E43404F583E0FF9002E7E0F3
:10179D00C39F50659002E6E0FF9002E4E075F0070C
:1017AD00A424222FF8E6FF9002E7E025E02479F546
:1017BD0082E43404F583E0FCA3E0FDE4ED5F602BEF
:1017CD009002E4E025E02479F582E43404F583E029
:1017DD00A3E0FF9002DDE0FBA3E0FAA3E0F99002A5
:1017ED00E5E0F582758300EF12123F9002E5E0040B
:1017FD00F09002E7E004F080849002E6E004F0024D
:10180D0017779002E4E004F002176212319E900205
:10181D00E374CCF0E4A3F09002E4E0C39408748088
:10182D0094805026E4FF12309DC2C81231549002AC
:10183D00E3E030E002D2C8123179D2C89002E3E081
:10184D00FFC313F0A3E004F080CD12312D9002E31D
:10185D007468F0E4A3F09002E4E0C39408748094FB
:10186D00805026E4FF12309DC2C81231549002E31D
:10187D00E030E002D2C8123179D2C89002E3E0FF25
:10188D00C313F0A3E004F080CDE49002E4F09002E5
:10189D00E4E0C3940874809480400302195143B06E
:1018AD00C0E4FF12309DC2C8123154D2C87F01125C
:1018BD00309D53B03FC2C81231547892A68008A60D
:1018CD009008A6A008A6C008A6C808A6E808A6F80D
:1018DD007892E6FF9002E4E075F007A42422F8A6C2
:1018ED00077893E6FFE075F007A42423F8A60778A0
:1018FD0094E6FFE075F007A42424F8A6077895E692
:10190D00FFE075F007A42425F8A6077896E6FFC337
:10191D0013FFE075F007A42426F8A6077897E6FFD5
:10192D00E075F007A42427F8A6077898E6FFE07580
:10193D00F007A42428F8A6071231799002E4E004F8
:10194D00F002189BE49002E4F09002E4E0C39408E6
:10195D00748094804003021A0CE4A3F0A3F090026B
:10196D00E6E0C39407748094804003021A03E4A355
:10197D00F09002E6E02412F582E43404F583E0FFF2
:10198D009002E7E0C39F50659002E6E0FF9002E40D
:10199D00E075F007A424222FF8E6FF9002E7E0257A
:1019AD00E02479F582E43404F583E0FCA3E0FDE462
:1019BD00ED5F602B9002E4E025E02479F582E434BC
:1019CD0004F583E0A3E0FF9002E0E0FBA3E0FAA3BF
:1019DD00E0F99002E5E0F582758300EF12123F9079
:1019ED0002E5E004F09002E7E004F080849002E666
:0F19FD00E004F002196B9002E4E004F0021956C6
:011A0C0022B7
:04309800C105C106A7
:102FD20043BA8090FE0374C0F090FE03E030E0F943
:102FE20090FE01E4F090FE0004F0E4F5BAF580539F
:102FF20090C0F5A053C0E053C8E0F5E8F5F843B23D
:103002000253B1FDD288D28AF5A2C2A8C2AAC2AC2A
:0B301200D2AFC207C208C205C20622EE
:03001300020016D2
:08001600C2AA30B3FDD205328D
:03000300023216B0
:08321600C2A830B2FDD206325D
:1031F40049533F00454E4400505400504B47004251
:0332040000430084
:102C4C00759850438E40538EFE53890FEFFD33958C
:102C5C00E0FCED64074C7006758BD0758DFFEFFDB5
:102C6C003395E0FCED64064C7006758BA0758DFFFA
:102C7C00EFFD3395E0FCED64054C7006758B7075BB
:102C8C008DFFEFFD3395E0FCED64044C7006758B05
:102C9C00E0758DFEEFFD3395E0FCED64034C7006A2
:102CAC00758BC0758DFDEFFD3395E0FCED64024C2A
:102CBC007006758B80758DFBEFFD3395E0FCED6434
:102CCC00014C7005F58B758DF7EF3395E04F700562
:0A2CDC00F58B758DEEC2ABD28E228F
:0B2EF7009002DCEBF0A3EAF0A3E9F08E
:102F0200E4FCA3F0A3F0A3F0C2983098FDC298AFFE
:102F120099EF640270F4800280F0C299E4FCECC381
:102F22009D50449002DCE0FBA3E0FAA3E0F975F0C7
:102F320002ECA4F58285F0831212A6FF9002DFE56F
:102F4200F0F0A3EFF09002DFE0A3E0FB9002DFE0FD
:102F5200FF3395E08F993099FDC299AF038F993075
:072F620099FDC2990C80B734
:012F69002245
:03002300022BA20B
:0D2BA200C0E0C0F0C083C082C0D075D01864
:102BAF00E4FFC2AC3098FDC29874272FF582E4344D
:102BBF0003F583E599F074272FF582E43403F58349
:102BCF00E0644060030F80DC7B017A037927900279
:102BDF00EF74FFF0A37431F0A374F4F0122AE3EB57
:102BEF008A8389827B007A0079007006E582700201
:102BFF00E583600CC2997599593099FDC299D20736
:102C0F007B017A0379279002EF74FFF0A37431F000
:102C1F00A374F8F0122AE3EB8A8389827B007A008F
:102C2F0079007006E5827002E5836004D2088002A5
:022C3F00C208C9
:0B2C4100D0D0D082D083D0F0D0E032A1
:0B24AB009002DCEBF0A3EAF0A3E9F0E4
:1024B600E4A3F0A3F0A3F0FE7F0AFD7B017A027984
:1024C600E212140BE49002DFF09002DFE0FF339596
:1024D600E0FEC3EF9404EE64809480502EE03395C2
:1024E600E0FEEF7802C333CE33CED8F9FF9002DC9C
:1024F600E0FBA3E0FAA3E0F98F828E831213C700F4
:102506000000009002DFE004F080BEC2983098FD23
:10251600C2989002E1E02427F582E43403F583E5CE
:1025260099F09002E1E02427F582E43403F583E094
:10253600644060089002E1E004F080D1E49002E19A
:10254600F07B017A0379279002EF74FFF0A37431D0
:10255600F0A374FCF0122AE3EB8A8389827B007A6B
:102566000079007006E5827002E583700302266634
:102576009002E1E02427F582E43403F583E0642C3D
:1025860060089002E1E004F080E69002E1E004F0E9
:10259600E49002DFF09002DFE0FF3395E0FEC3EF48
:1025A6009404EE648094804003022666E4A3F090CF
:1025B60002E1E02427F582E43403F583E0642C602D
:1025C600429002E1E02427F582E43403F583E064D7
:1025D6004060309002E1E02427F582E43403F5837D
:1025E600E0FF9002E0E0FD3395E0FC74E22DF58219
:1025F60074023CF583EFF09002E0E004F0A3E004FF
:10260600F080AC9002E1E004F07B017A0279E212FC
:10261600301DC004C005C006C0079002DFE0FF33CE
:1026260095E0FEEF7802C333CE33CED8F9FF9002A1
:10263600DCE0FBA3E0FAA3E0F98F828E83D007D01B
:1026460006D005D0041213667E007F0A7D007B014A
:102656007A0279E212140B9002DFE004F002259B65
:012666002251
:1031B600C298C2993098FDC298E599B425F67599DA
:0731C600253099FDC299229A
:0B280B009002DCEBF0A3EAF0A3E9F080
:10281600E4A3F0A3F09002EBF0FE7FC8FD7B017A03
:1028260003792712140B7E007F0A7D007B017A0252
:1028360079E112140BC2983098FDC2989002EBE031
:102846002427F582E43403F583E599F09002EBE062
:102856002427F582E43403F583E06440600890029F
:10286600EBE004F080D1E49002EBF07B017A03798F
:10287600279002EF74FFF0A37431F0A374FFF012F7
:102886002AE3EB8A8389827B007A0079007006E569
:10289600827002E58370030229219002EBE024276F
:1028A600F582E43403F583E0642C60089002EBE0E3
:1028B60004F080E6E49002E0F09002EBE004F09091
:1028C60002EBE02427F582E43403F583E0644060FC
:1028D600329002EBE02427F582E43403F583E0FF2F
:1028E6009002E0E0FD3395E0FC74E12DF582740280
:1028F6003CF583EFF09002E0E004F09002EBE00498
:10290600F080BC7B017A0279E1122A089002DCE0B1
:0B291600FBA3E0FAA3E0F9EF1212723D
:012921002293
:10266700E49002DCF0A3F0A3F0FE7FC8FD7B017AC3
:1026770003792712140B7E007F0A7D007B017A0203
:1026870079DF12140BC2983098FDC2989002DEE0F1
:102697002427F582E43403F583E599F09002DEE020
:1026A7002427F582E43403F583E064406008900250
:1026B700DEE004F080D1E49002DEF07B017A03795A
:1026C700279002EF74FFF0A37432F0A37403F012A3
:1026D7002AE3EB8A8389827B007A0079007006E51A
:1026E700827002E58360089003F37401F080327B07
:1026F700017A0379279002EF74FFF0A37432F0A3F5
:102707007405F0122AE3EB8A8389827B007A0079C9
:10271700007006E5827002E58360069003F3740299
:10272700F09002DEE02427F582E43403F583E064C9
:102737002C60089002DEE004F080E69002DEE00400
:10274700F0E49002DCF09002DCE0FF3395E0FEC39A
:10275700EF9402EE64809480400302280AE4A3F019
:102767009002DEE02427F582E43403F583E0642C4D
:1027770060429002DEE02427F582E43403F583E02B
:10278700644060309002DEE02427F582E43403F5EC
:1027970083E0FF9002DDE0FD3395E0FC74DF2DF56B
:1027A7008274023CF583EFF09002DDE004F0A3E0D1
:1027B70004F080AC9002DEE004F09002DCE0FF332E
:1027C70095E0FEEF4E70137B017A0279DF122A083B
:1027D7009003F1EEF0A3EFF080117B017A0279DF2D
:1027E700122A089003EFEEF0A3EFF07E007F0A7D38
:1027F700007B017A0279DF12140B9002DCE004F00F
:0328070002274D58
:01280A0022AB
:100C8A00020F56E86480F8E933E83360110460F033
:100C9A00ED33EC337009E8FCE9FDEAFEEBFF2204D0
:100CAA0060DED3EB9FEA9EE99DE8C2E78CF0C2F7CB
:100CBA0095F0400CE8CCF8E9CDF9EACEFAEBCFFB97
:100CCA00120F2185D0F05804700320D5B3E80470C0
:100CDA00075002B2D5020F6092D5EC0460F7E4CC5B
:100CEA00C0E0C398F8603B94186008400DD0E0FB60
:100CFA00020F38E4FBFAC9FC8028E830E406E4C9AC
:100D0A00FBE4CAFCE830E305E4C9CACBFCE85407B3
:100D1A006010F8C3E913F9EA13FAEB13FBEC13FCBE
:100D2A00D8F130F52FC3E49CFCEF9BFFEE9AFEED61
:100D3A0099FDD0E0FBEF4E4D4C701222DB03020FFF
:100D4A005DEC2CFCEF33FFEE33FEED33FDED30E7C7
:100D5A00EB020F38EF2BFFEE3AFEED39FDD0E0FB48
:100D6A0050130BBB0003020F60ED13FDEE13FEEFF1
:080D7A0013FFEC13FC020F381B
:100D8200020F60EC5D046005E859047003020F561F
:100D9200120F21580460F6EC4860F2EC7004FDFE7C
:100DA200FF22C860DB2481C85009C3986002500644
:100DB200020F5D9850CAF582E9294B4A7005AB8251
:100DC200020F4C75F0007C1A7880C3EF9BEE9AED0F
:100DD20099400DC3EF9BFFEE9AFEED99FDE842F0BC
:100DE200DC23ACF0D0E0FFD0E0FED0E0FDAB82200F
:100DF200E7101BEB60BAEC2CFCEF33FFEE33FEED99
:100E020033FD020F38E803F830E705C0F075F00053
:100E1200EF2FFFEE33FEED33FD40B830E7C280AA7C
:100E220074F8CC6480CCC86480C8F58204604FC377
:100E3200EB9FF5F0EA9E42F0E99D42F0E89C45F016
:100E4200603C501DE5825FFFE582D313CB5BCBF4A0
:100E52002B5582FB50280ABA002409B900200880C9
:100E62001DE5825BFBE582D313CF5FCFF4C3132F63
:100E72005582FF50090EBE00050DBD00010CC3EBEB
:100E82009FF5F0EA9E42F0E99D42F0E89C45F06051
:090E920007CC4820E701B3EC2273
:100E9B00ED33EC33600A047003BD8004ECB2E7FC65
:010EAB002224
:100EAC0075F020800E75F010800575F0087D007EC1
:100EBC00007F003392D530D503121358EC33401019
:100ECC00EF33FFEE33FEED33FDEC33FCD5F0ED22CA
:0E0EDC00E5F0247EA2D513CC92E7CDCEFF2206
:100EEA00EDD2E7CD33EC3392D524814006E4FFFE00
:100EFA00FDFC22FCE4CFCECDCC24E0501174FF805F
:100F0A00EDC3CC13CCCD13CDCE13CECF13CF0470FB
:070F1A00F030D5DE02135890
:10301D00D2009002EC121402123059C0E0FF1231AE
:10302D00CDD0E040F3122935400122ECC0E0EDC0D7
:10303D00E0EEC0E0EFC0E0123059D0F0AFF0D0F0CC
:10304D00AEF0D0F0ADF0D0F0ACF080D9E475F00179
:09305D009002EC1213EB0211F9D0
:100F2100E9D2E7C933E833F892D5EDD2E7CD33EC16
:070F310033FC5002B2D5228F
:100F3800EC30E7100FBF000C0EBE00080DBD00041A
:100F48000BEB6014A2D5EB13FCED92E7FD2274FFC6
:100F5800FCFDFEFF22E480F8A2D574FF13FC7D801F
:030F6800E480EF33
:10292200C201C202C203C204F9E4F508F509FCFDC2
:10293200FEFFE91000EA20030CB42D04D203D322D7
:10294200B42B02D32224D0504794095041240A3098
:102952000415F88509F0740AA42872E74051C5F0FD
:10296200704D85F009D322D202C0E0E4FBFA79204F
:102972007841120F6BECF8EDF9EEFAEFFBD0E0FCC8
:10298200E4120EB6120C913001B41508D322240AB7
:10299200200420B4FE0720011AD201D32224EB60C6
:1029A2000424E0700EA2039201D204C203D322C314
:1029B200020F56E430040BE509300302F404A201CD
:1029C20092033002EA250820D2E5A2E792045002DF
:1029D200F404B4260050D8CCC0E0EDC0E0EEC0E074
:1029E200EFC0E0EC1210A1D0E0FFD0E0FED0E0FD9D
:1029F200D0E0FC200405120F6B8003120D8530031A
:062A020003120E9BC3222B
:100F6B00EC4D6011E8497017ED33EC3304600DE480
:100F7B00FCFFFEFD22E933E8330470F8020F561232
:100F8B000F2158046009E4CC248150062850090233
:100F9B000F60284003020F5DC0E0EB4A7044B9803C
:100FAB0006D0E0FB020F4CEF4E701CBD8008EBFF30
:100FBB00EAFEE9FD80EBE98DF0A4FEE5F0021054AA
:100FCB00E9CDF9EAFEEBFFEF89F0A4FCE5F0CE8961
:100FDB00F0A42EFFE435F0CD89F0A42DFEE435F01E
:100FEB008067EF4E7005BD80D780C3EF8BF0A4AC4C
:100FFB00F0EE8BF0A42CFCE435F0F8EF8AF0A42C87
:10100B00E5F038FCE433CB8DF0A42CFCE5F03BF899
:10101B00EE8AF0A42CFCE5F038F8E433CF89F0A489
:10102B002CFCE5F038CF3400CE89F0A42FFFE5F08F
:10103B003EFEE433C98DF0A42EFEE5F039CD8AF0E7
:10104B00A42FFFE5F03EFEE43DFD33D0E0FB50075F
:10105B000BBB000F020F60EC2CFCEF33FFEE33FEEB
:06106B00ED33FD020F3819
:101071003F8000004120000042C80000447A000087
:10108100461C400047C35000497424004B18968009
:101091004CBEBC205A0E1BCA6753C21C749DC5AE00
:1010A100FB60065407601C23231210CFEB543860F9
:1010B100091210BB1210CA120F6BECF8EDF9EEFA1F
:1010C100EFCB22EB1210CA80F1543803241C90108C
:1010D10071FE93FC0EEE93FD0EEE930ECE93FF2266
:03000000022CE6E9
:0C2CE600787FE4F6D8FD758198022D2D52
:1010E100E709F608DFFA8046E709F208DFFA803EF1
:1010F10088828C83E709F0A3DFFA8032E309F608DE
:10110100DFFA8078E309F208DFFA807088828C8345
:10111100E309F0A3DFFA806489828A83E0A3F608F9
:10112100DFFA805889828A83E0A3F208DFFA804CD3
:1011310080D280FA80C680D4806980F280338010AA
:1011410080A680EA809A80A880DA80E280CA803313
:1011510089828A83ECFAE493A3C8C582C8CCC5838B
:10116100CCF0A3C8C582C8CCC583CCDFE9DEE7805B
:101171000D89828A83E493A3F608DFF9ECFAA9F0DA
:10118100EDFB2289828A83ECFAE0A3C8C582C8CC30
:10119100C583CCF0A3C8C582C8CCC583CCDFEADE49
:1011A100E880DB89828A83E493A3F208DFF980CCAB
:1011B10088F0EF60010E4E60C388F0ED2402B404A4
:1011C1000050B9F582EB2402B4040050AF2323454B
:0611D1008223901131732E
:1011D700C2D530F707B2D563F0FF05F030E70CB2A0
:1011E700D5F4048463F0FF05F080018430D502F460
:0211F7000422D0
:1011F900BB010689828A83E0225002E722BBFE02F4
:09120900E32289828A83E4932226
:10121200BB010CE58229F582E5833AF583E0225091
:1012220006E92582F8E622BBFE06E92582F8E222DB
:0D123200E58229F582E5833AF583E49322F5
:10123F00BB010FF8E58229F582E5833AF583E028B3
:10124F00F0225009C58229F8E58226F622BBFE0955
:10125F00C58229F8E22582F222F8EA2583F583E98F
:03126F009328229F
:10127200BB010689828A83F0225002F722BBFE015B
:02128200F32255
:10128400F8BB010DE58229F582E5833AF583E8F0A0
:10129400225006E92582C8F622BBFE05E92582C84C
:0212A400F22234
:1012A600BB0110E58229F582E5833AF583E0F5F086
:1012B600A3E0225009E92582F886F008E622BBFE63
:1012C6000AE92582F8E2F5F008E222E5832AF583A9
:0812D600E993F5F0A3E993226E
:1012DE00BB010DC58229C582C5833AC58302144957
:1012EE005011C58229F808E5F026F618F5F0E582CA
:1012FE0036F622BBFE11C58229F808E225F0F5F07C
:10130E00F218E23582F222F8E58229F582E5832A87
:0D131E00F58374019325F0F5F0E493382277
:10132B00F8BB0111E58229F582E5833AF583E8F0F4
:10133B00E5F0A3F0225009E92582C8F608A6F022B1
:0D134B00BBFE09E92582C8F2E5F008F22298
:0E135800C3E49FFFE49EFEE49DFDE49CFC22A6
:10136600BB010DE58229F582E5833AF58302138AEE
:101376005007E92582F8021475BBFE07E92582F8B5
:0413860002148122AA
:0C138A00ECF0A3EDF0A3EEF0A3EFF022D6
:10139600A8828583F0D083D0821213AD1213AD12CA
:1013A60013AD1213ADE473E493A3C583C5F0C583EF
:1013B600C8C582C8F0A3C583C5F0C583C8C582C8A1
:0113C6002204
:1013C700BB010DE58229F582E5833AF58302139681
:1013D7005007E92582F802148DBBFE07E92582F83C
:0413E7000214A62224
:1013EB00F8E0FBA3A3E0F925F0F0E582158270028B
:0713FB001583E0FA38F0222F
:09140200EBF0A3EAF0A3E9F022EB
:1031CD00EFC394094005EF940E4004EFB42003D3F0
:0431DD008001C32288
:102AE3009002ECEBF0A3EAF0A3E9F0A3E0FBA3E090
:102AF300FAA3E0F91211F97003022B8F9002ECE0B4
:102B0300FBA3E0FAA3E0F91211F97003022B9B90E7
:102B130002EFE0F9A3E0FAA3E0A3C9F0A3EAF0A36C
:102B2300E9F09002ECA3E0FAA3E0F99002F5EBF0F0
:102B3300A3EAF0A3E9F09002F2E0FBA3E0FAA3E03A
:102B4300F91211F9FF60269002F5E0FBA3E0FAA366
:102B5300E0F91211F96F70159002F375F001121478
:102B6300499002F6E475F00112144980C99002F20B
:102B7300E0FBA3E0FAA3E0F91211F97002800D90D3
:102B830002EDE475F001121449022AFF9002ECE011
:0F2B9300FBA3E0FAA3E0F9227B007A007900228D
:102A08009002ECEBF0A3EAF0A3E9F09002ECE0FB13
:102A1800A3E0FAA3E0F91211F9FF1231CD500C909E
:102A280002EDE475F00112144980E0D2009002EC46
:102A3800E0FBA3E0FAA3E0F91211F9FF642B6004AC
:102A4800EFB42D1D9002ECE0FBA3E475F001121425
:102A58005FA9F0FA1211F9642D6003D38001C392C3
:102A680000E49002EFF0A3F09002ECE0FBA3E0FAA0
:102A7800A3E0F91211F9FF12320750429002ECE07C
:102A8800FBA3E0FAA3E0F91211F9FF3395E0FEEF9A
:102A980024D0FBEE34FFFA9002EFE0FEA3E0FF7CC7
:102AA800007D0A121437EF2BFFEE3A9002EFF0A3E5
:102AB800EFF09002EDE475F00112144980AA30009D
:102AC8000A9002EFE0FEA3E0FF800F9002EFE0FE25
:0B2AD800A3E0FFC3E49FFFE49EFE228A
:10140B00EF4E6012EF60010EEDBB010B89828A83F8
:10141B00F0A3DFFCDEFA2289F05007F709DFFCA905
:0C142B00F022BBFEFCF309DFFCA9F0225C
:102CF200020026E493A3F8E493A34003F68001F2D2
:102D020008DFF48029E493A3F85407240CC8C333E2
:102D1200C4540F4420C8834004F456800146F6DFB1
:102D2200E4800B0102040810204080903066E47EAB
:102D3200019360BCA3FF543F30E509541FFEE493A6
:102D4200A360010ECF54C025E060A840B8E493A36D
:102D5200FAE493A3F8E493A3C8C582C8CAC583CA98
:102D6200F0A3C8C582C8CAC583CADFE9DEE780BE50
:01309C000033
:10143700EF8DF0A4A8F0CF8CF0A428CE8DF0A42EC9
:02144700FE2283
:10144900C5F0F8A3E028F0C5F0F8E582158270022E
:061459001583E038F022CB
:10145F00A3F8E0C5F025F0F0E58215827002158340
:06146F00E0C838F0E8229D
:0C147500ECF608EDF608EEF608EFF622A3
:0C148100ECF208EDF208EEF208EFF222A7
:10148D00D083D082E493F608740193F60874029326
:09149D00F608740393F67404735D
:1014A600D083D082E493F208740193F20874029315
:0914B600F208740393F27404734C
:0F320700EFC394304007EF943A50028001C32286
:00000001FF
